:100000000C94D5000C940F010C94F2000C94F200A7
:100010000C94AC030C94F2000C94F2000C94F200DB
:100020000C94F2000C94F2000C94F2000C94F20088
:100030000C94F2000C94F2000C94F2000C94F20078
:100040000C94F2000C94F2000C94F2000C94F20068
:100050000C94F20020202020202053696E6520207F
:100060002020202000002020202020537175617264
:10007000652020202020000020202020547269616B
:100080006E676C6520202020000020202020536116
:1000900077546F6F74682020202000002020526564
:1000A0007620536177546F6F746820200000202001
:1000B0002020202045434720202020202020000011
:1000C0002020202046726571205374657020202006
:1000D000000020202020204E6F6973652020202002
:1000E0002020000020202048696768205370656543
:1000F0006420202000004F4E2000004F46460000A4
:10010000202020202020204E4120202020202020A0
:10011000000020202020202020202020202020201F
:10012000202000002020202020202020202020002F
:1001300000536176696E672053657474696E6773E6
:100140000000202020202020314D487A202020004F
:1001500000415652205349474E414C000020202078
:100160002052616E646F6D0000001F000000001FD0
:1001700000001F101010101F00001F181818181F63
:1001800000001F1C1C1C1C1F00001F1E1E1E1E1F0B
:1001900000001F1F1F1F1F1F0003070F1F0F070354
:1001A00000181C1E1F1E1C18000011241FBECFE5C6
:1001B000D4E0DEBFCDBF10E0A0E6B0E0E8ECF9E1AE
:1001C00002C005900D92AA3AB107D9F710E0AAEA49
:1001D000B0E001C01D92A33CB107E1F70E943C03CF
:1001E0000C94E20C0C94000020E040E45CE9CA01AD
:1001F0000197F1F72F5F2436D1F7089514BC789456
:10020000089585B5866085BD89B7806489BF0895E6
:1002100083B7897F83BF89B78F7B89BF08951F927A
:100220000F920FB60F9211241092B2006A9A109298
:10023000B700829BFECF0F900FBE0F901F901895B6
:10024000823039F0833070F0843031F0883051F4EE
:1002500006C083E090E008C081E090E005C01BBCD0
:100260001ABC04C087E090E09BBD8ABD80E48FBDCE
:1002700089E08EBD08951EBC08950E94890680E025
:1002800090E00895CF93DF938091AA008630F9F42F
:1002900080E061E00E94E4068091B9009091BA008C
:1002A000A091BB00B091BC0000D000D0EDB7FEB76C
:1002B000319620E630E0CDB7DEB73A8329839383C9
:1002C00082830E94E9090F900F900F900F90809108
:1002D000AA008830D9F480E061E00E94E406209111
:1002E000B80000D000D0EDB7FEB731968AE690E0B6
:1002F000ADB7BEB712969C938E931197228313824B
:100300000E94E9090F900F900F900F908091AA0022
:100310008823A1F08091AA00813081F08091AA0009
:10032000823061F08091AA00833041F08091AA0070
:10033000843021F08091AA008530F9F480E061E0FA
:100340000E94E4068091AE009091AF00A091B000B1
:10035000B091B10000D000D0EDB7FEB7319622E7E2
:1003600030E0CDB7DEB73A832983938382830E943E
:10037000E9090F900F900F900F90DF91CF910895A2
:100380001F93CF93DF93182F0E94C706E091AA0016
:10039000F0E0EE0FFF1FE758FF4F8081918160E092
:1003A00040E00E94F30680E061E00E94E406809154
:1003B000AA00863029F582E191E060E041E00E94E8
:1003C000F30680E061E00E94E4068091B90090911C
:1003D000BA00A091BB00B091BC0000D000D0EDB736
:1003E000FEB7319620E630E0CDB7DEB73A832983F9
:1003F000938382830E94E9090F900F900F900F90D2
:100400008091AA00873061F482E191E060E041E0F0
:100410000E94F3068DE591E060E041E00E94F30662
:100420008091AA00883009F582E191E060E041E026
:100430000E94F30680E061E00E94E4062091B8008B
:1004400000D000D0EDB7FEB731968AE690E0ADB7A8
:10045000BEB712969C938E931197228313820E94AB
:10046000E9090F900F900F900F908091AA008823B8
:10047000A1F08091AA00813081F08091AA008230A1
:1004800061F08091AA00833041F08091AA0084300D
:1004900021F08091AA00853029F582E191E060E0A9
:1004A00041E00E94F30680E061E00E94E406809152
:1004B000AE009091AF00A091B000B091B10000D01B
:1004C00000D0EDB7FEB7319622E730E0CDB7DEB70A
:1004D0003A832983938382830E94E9090F900F90C6
:1004E0000F900F908091AA00863059F0113019F4C6
:1004F00086EF90E002C08BEF90E06DE041E00E945B
:10050000F306DF91CF911F910895EF92FF920F9321
:100510001F9387E990E09093C0008093BF000E94F2
:100520002E070E94C7060E9496078FEF91E00E9457
:10053000DB0B8435C9F080E090E060E00E94E30BC3
:1005400081E090E068EE0E94E30B82E090E063E0DF
:100550000E94E30B83E090E060E00E94E30B8FEFEA
:1005600091E064E50E94E30B80E090E00E94DB0BE9
:100570008093AA0081E090E00E94DB0B8093AB00A7
:1005800082E090E00E94DB0B8093AC0083E090E07F
:100590000E94DB0B8093AD008091AD002091AC00F8
:1005A000E090AB00992787FD9095A92FB92FDC012A
:1005B0009927882730E040E050E0542F432F322F16
:1005C0002227822B932BA42BB52BFF2400E010E0D5
:1005D0008E299F29A02BB12B8093AE009093AF0062
:1005E000A093B000B093B1006091AE007091AF00E5
:1005F0008091B0009091B1000E94920820E030E517
:1006000043EC5DE30E94FE070E9466086093B3001E
:100610007093B4008093B5009093B6001092B2002E
:1006200081E08093B80084E690E0A0E0B0E08093A1
:10063000B9009093BA00A093BB00B093BC001BBA62
:100640008FEF8ABB81B3807E81BB82B38F6182BB17
:100650008D9A1092B7008091B7000E94C00114BC1F
:10066000789485B5866085BD89B7806489BF1F9100
:100670000F91FF90EF900895EF92FF920F931F93C9
:100680000E9485028091B2008130E1F78BB78064CF
:100690008BBF8091AA00873041F40E94D9098BBB9F
:1006A0008091B2008130C9F348C08091AA0088309F
:1006B00091F48091B8000E94200106C086EF90E07E
:1006C0006DE041E00E94F3068091B2008130B1F309
:1006D0001EBC959833C0E091AA004091B3005091A0
:1006E000B4006091B5007091B6008091B300909114
:1006F000B400A091B500B091B600E090B300F090C6
:10070000B4000091B5001091B600892F9A2FAB2F3D
:10071000BB27AB0166277727F0E0EE0FFF1FE557F9
:10072000FF4F0190F081E02D222733272E0D381F37
:10073000E41FC8950BBA6A9BF9CF1BBA8091B7002A
:100740000E94C0018BB78F7B8BBF85B5866085BD4E
:1007500089B7806489BF96CF1F920F920FB60F9210
:100760001124AF92BF92CF92DF92EF92FF920F933C
:100770001F932F933F934F935F936F937F938F9329
:100780009F93AF93BF93EF93FF93849911C0809190
:10079000AA00882311F488E003C08091AA00815048
:1007A0008093AA008091B7000E94C001849BFECF75
:1007B000809912C08091AA00883030F48091AA00FC
:1007C0008F5F8093AA0002C01092AA008091B700A8
:1007D0000E94C001809BFECF8399EFC08091AA0048
:1007E0008630A1F58091B9009091BA00A091BB002C
:1007F000B091BC0080519742A040B04069F481E0C4
:1008000090E0A0E0B0E08093B9009093BA00A0938C
:10081000BB00B093BC0016C06091B9007091BA00E3
:100820008091BB009091BC002AE030E040E050E0B5
:100830000E9420096093B9007093BA008093BB00B6
:100840009093BC000E944201839BFECF8091AA003E
:10085000883079F48091B800883011F481E003C0C9
:100860008091B800880F8093B8000E944201839B5A
:10087000FECF8091AA008823A9F08091AA00813040
:1008800089F08091AA00823069F08091AA008330BB
:1008900049F08091AA00843029F08091AA00853027
:1008A00009F08BC08091AE009091AF00A091B00094
:1008B000B091B100E090B900F090BA000091BB0097
:1008C0001091BC002FEF3FEF40E050E0281B390BA8
:1008D0004A0B5B0B2E153F0540075107E0F02091B6
:1008E000AE003091AF004091B0005091B1008091C6
:1008F000B9009091BA00A091BB00B091BC00820FEA
:10090000931FA41FB51F8093AE009093AF00A093D8
:10091000B000B093B1000E94420120E040E45FE1EA
:10092000CA010197F1F72F5F839B04C02A3F08F4A7
:1009300044C002C02B3FA1F76FEFE62E6FEFF62EFB
:10094000012D112D8091AE009091AF00A091B000CB
:10095000B091B1002091B9003091BA004091BB0034
:100960005091BC0057016801A81AB90ACA0ADB0AEB
:10097000A216B306C406D506E0F02091AE00309171
:10098000AF004091B0005091B1008091B9009091BA
:10099000BA00A091BB00B091BC00820F931FA41FAE
:1009A000B51F8093AE009093AF00A093B000B093BA
:1009B000B1000E944201839BC5CF8199D4C0809130
:1009C000AA00863069F58091B9009091BA00A09193
:1009D000BB00B091BC000197A105B10529F480E1ED
:1009E00097E2A0E0B0E010C06091B9007091BA0049
:1009F0008091BB009091BC002AE030E040E050E0E4
:100A00000E946609C901DA018093B9009093BA0087
:100A1000A093BB00B093BC000E944201819BFECF1B
:100A20009091AA00983081F48091B800813019F437
:100A30009093B80005C08091B80086958093B80067
:100A40000E944201819BFECF8091AA008823A9F0D9
:100A50008091AA00813089F08091AA00823069F0EB
:100A60008091AA00833049F08091AA00843029F057
:100A70008091AA00853009F076C02091AE003091B7
:100A8000AF004091B0005091B1008091B9009091B9
:100A9000BA00A091BB00B091BC00281739074A07E3
:100AA0005B07E0F08091AE009091AF00A091B000A4
:100AB000B091B1002091B9003091BA004091BB00D3
:100AC0005091BC00821B930BA40BB50B8093AE001E
:100AD0009093AF00A093B000B093B1000E94420188
:100AE00020E040E45FE1CA010197F1F72F5F819BAD
:100AF00003C02A3FC0F102C02B3FA9F72091AE00EE
:100B00003091AF004091B0005091B1008091B90098
:100B10009091BA00A091BB00B091BC002817390792
:100B20004A075B07E0F08091AE009091AF00A09182
:100B3000B000B091B1002091B9003091BA0040915D
:100B4000BB005091BC00821B930BA40BB50B809390
:100B5000AE009093AF00A093B000B093B1000E949C
:100B60004201819BCBCF8299BBC08091AA00863085
:100B700009F4B4C08091AE009091AF00A091B00094
:100B8000B091B1008093AB008091AE009091AF0026
:100B9000A091B000B091B100892F9A2FAB2FBB2745
:100BA0008093AC008091AE009091AF00A091B00016
:100BB000B091B100CD01AA27BB278093AD0080E0A2
:100BC00090E00E94DB0B9091AA00891731F06091B0
:100BD000AA0080E090E00E94E30B81E090E00E9498
:100BE000DB0B9091AB00891731F06091AB0081E095
:100BF00090E00E94E30B82E090E00E94DB0B90917A
:100C0000AC00891731F06091AC0082E090E00E9466
:100C1000E30B83E090E00E94DB0B2091AD0090E0BD
:100C2000332727FD30958217930731F06091AD008F
:100C300083E090E00E94E30B8091AD002091AC0036
:100C4000E090AB00992787FD9095A92FB92FDC0183
:100C50009927882730E040E050E0542F432F322F6F
:100C60002227822B932BA42BB52BFF2400E010E02E
:100C70008E299F29A02BB12B8093AE009093AF00BB
:100C8000A093B000B093B1006091AE007091AF003E
:100C90008091B0009091B1000E94920820E030E570
:100CA00043EC5DE30E94FE070E9466086093B30078
:100CB0007093B4008093B5009093B60081E0809368
:100CC000B2008093B7006A9883B7897F83BF89B7E2
:100CD0008F7B89BF8091B7000E94C001829BFECFAD
:100CE000FF91EF91BF91AF919F918F917F916F9104
:100CF0005F914F913F912F911F910F91FF90EF9036
:100D0000DF90CF90BF90AF900F900FBE0F901F90CD
:100D10001895282F207F25BBA89AAA9A20EA3FE0A1
:100D2000F9013197F1F7AA98A898F9013197F1F7ED
:100D300090E044E0880F991F4A95E1F785BBA89A97
:100D4000AA9AC9010197F1F7AA98A898C901019731
:100D5000F1F70895282F207F25BBAA9A20EA3FE0CB
:100D6000F9013197F1F7AA98F9013197F1F790E07D
:100D700054E0880F991F5A95E1F785BBAA9AC901DB
:100D80000197F1F7AA98C9010197F1F7089581E059
:100D90000E94AA06089582E00E94AA0608950F9371
:100DA0001F93CF93DF93062F009749F0EC0110E0DB
:100DB00004C089910E9489061F5F1017D0F3DF914C
:100DC000CF911F910F910895623031F0633031F06F
:100DD000613029F4805C03C08C5E01C08C5A80684D
:100DE0000E94AA0608951F93CF93DF93EC01862FEC
:100DF000642F0E94E40610E003C00E9489061F5F72
:100E0000FE01E10FF11D84918823B9F7DF91CF91A5
:100E10001F910895EF92FF920F931F93CF93DF934B
:100E20007C01162F110F110F110F1064C0E0D0E0DC
:100E3000F701EC0FFD1F0491812F8C0F0E94AA0671
:100E4000802F0E9489062196C830D10589F7DF914D
:100E5000CF911F910F91FF90EF9008951F93CF9323
:100E6000DF9380E69AEE0197F1F715BA15BA84B3CD
:100E7000806F84BB84B3876084BB80E385BBAA9A00
:100E800020EA3FE0F9013197F1F7AA98F90131978B
:100E9000F1F785BBAA9AC9010197F1F7AA98C90190
:100EA0000197F1F780E285BBAA9AC9010197F1F792
:100EB000AA98C9010197F1F788E20E94AA068CE07E
:100EC0000E94AA06C9E6D1E060E0162F1F5FCE019E
:100ED0000E940A072896612F1830B9F7DF91CF9149
:100EE0001F9108950F931F93082F10E004C08EE107
:100EF0000E94AA061F5F1017D0F31F910F9108954B
:100F00000F931F93082F10E004C088E10E94AA06E7
:100F10001F5F1017D0F31F910F9108958EE00E946C
:100F2000AA0608958FE00E94AA0608958CE00E9408
:100F3000AA06089588E00E94AA0608958CE00E94FF
:100F4000AA0608950F931F93082F10E004C080E1B4
:100F50000E94AA061F5F1017D0F31F910F910895EA
:100F60000F931F93082F10E004C084E10E94AA068B
:100F70001F5F1017D0F31F910F910895DF92EF922A
:100F8000FF920F931F93CF93DF93D42E96E0899F08
:100F9000C0011124242F30E0AC01429FC001439FC7
:100FA000900D529F900D112470E00E945309EB01A7
:100FB000CB0166E070E00E943F09E82EFF2400E0CC
:100FC00010E012C0C8010596C817D90710F085E0D7
:100FD00006C0C017D10710F08E2D01C080E00E941E
:100FE0008906F3940A5F1F4FFD1460F3DF91CF91E0
:100FF0001F910F91FF90EF90DF9008950CD0E6C005
:10100000DED040F0D5D030F021F45F3F19F0C7C0FA
:10101000511110C1CAC0EBD098F39923C9F35523DD
:10102000B1F3951B550BBB27AA27621773078407DB
:1010300038F09F5F5F4F220F331F441FAA1FA9F391
:1010400033D00E2E3AF0E0E830D091505040E69583
:10105000001CCAF729D0FE2F27D0660F771F881FE4
:10106000BB1F261737074807AB07B0E809F0BB0BD3
:10107000802DBF01FF2793585F4F2AF09E3F5105F7
:1010800068F08DC0D7C05F3FECF3983EDCF38695E7
:1010900077956795B795F7959F5FC9F7880F911D6D
:1010A0009695879597F90895E1E0660F771F881F59
:1010B000BB1F621773078407BA0720F0621B730B0C
:1010C000840BBA0BEE1F88F7E095089598D088F04E
:1010D0009F5790F0B92F9927B751A0F0D1F0660F24
:1010E000771F881F991F1AF0BA95C9F712C0B1303F
:1010F00081F09FD0B1E008959CC0672F782F88279A
:10110000B85F39F0B93FCCF3869577956795B3957D
:10111000D9F73EF490958095709561957F4F8F4FEC
:101120009F4F0895E89409C097FB3EF490958095F1
:10113000709561957F4F8F4F9F4F9923A9F0F92F9D
:1011400096E9BB279395F695879577956795B7951B
:10115000F111F8CFFAF4BB0F11F460FF1BC06F5F01
:101160007F4F8F4F9F4F16C0882311F096E911C013
:10117000772321F09EE8872F762F05C0662371F034
:1011800096E8862F70E060E02AF09A95660F771F48
:10119000881FDAF7880F9695879597F9089597F93C
:1011A0009F6780E870E060E008959FEF80EC08950D
:1011B00000240A9416161706180609060895002436
:1011C0000A9412161306140605060895092E0394B0
:1011D000000C11F4882352F0BB0F40F4BF2B11F424
:1011E00060FF04C06F5F7F4F8F4F9F4F089557FD83
:1011F0009058440F551F59F05F3F71F04795880F85
:1012000097FB991F61F09F3F79F08795089512161B
:1012100013061406551FF2CF4695F1DF08C01616C7
:1012200017061806991FF1CF869571056105089478
:101230000895E894BB2766277727CB0197F908958F
:10124000629FD001739FF001829FE00DF11D649FAA
:10125000E00DF11D929FF00D839FF00D749FF00D36
:10126000659FF00D9927729FB00DE11DF91F639FD7
:10127000B00DE11DF91FBD01CF0111240895AA1B76
:10128000BB1B51E107C0AA1FBB1FA617B70710F071
:10129000A61BB70B881F991F5A95A9F780959095A3
:1012A000BC01CD01089597FB092E07260AD077FDD2
:1012B00004D0E5DF06D000201AF4709561957F4FC9
:1012C0000895F6F7909581959F4F0895A1E21A2E03
:1012D000AA1BBB1BFD010DC0AA1FBB1FEE1FFF1FDA
:1012E000A217B307E407F50720F0A21BB30BE40B2A
:1012F000F50B661F771F881F991F1A9469F7609571
:101300007095809590959B01AC01BD01CF0108952A
:10131000A0E0B0E0EEE8F9E00C94B30CEC01A8809A
:10132000B980CA80DB80A114B104C104D10441F4A6
:1013300084E2A82E89EDB82E8BE5C82E87E0D82E42
:10134000C601B5012DE133EF41E050E00E94900C61
:1013500027EA31E440E050E00E9420097B018C0143
:10136000C601B5012DE133EF41E050E00E94900C41
:10137000CA01B9012CEE34EF4FEF5FEF0E94200954
:101380006E0D7F1D801F911F97FF04C0615070403C
:1013900080409048688379838A839B839B013F7751
:1013A000C901CDB7DEB7EAE00C94CF0C0E948809E2
:1013B000089585EA90E00E9488090895A0E0B0E0D1
:1013C0008093A5009093A600A093A700B093A800D7
:1013D0000895A0E0B0E0EFEEF9E00C94BB0CFE0144
:1013E0003596619171918091BF009091C000AF01DD
:1013F0000E94FE092096E2E00C94D70CABE0B0E02E
:10140000E4E0FAE00C94AB0C3C012B015A01FC0126
:1014100017821682838181FD03C06FEF7FEFC6C103
:101420009AE0892E1E010894211C311CF3012381AE
:10143000F20123FD859123FF81912F01882309F477
:10144000B2C1853239F423FD859123FF81912F01AB
:10145000853229F490E0B3010E94060CE7CF982F63
:10146000FF24EE249924FFE1FF15D0F09B3269F0B0
:101470009C3228F4903259F0933291F40EC09D3290
:1014800049F0903369F441E024C052E0F52A84E049
:10149000F82A28C098E0F92A25C0E0E1FE2A22C0F7
:1014A000F7FC29C0892F80538A3070F4F6FE05C0FE
:1014B000989C902C1124980E15C0E89CE02C1124C7
:1014C000E80EF0E2FF2A0EC09E3229F4F6FC6BC152
:1014D00040E4F42A07C09C3619F450E8F52A02C00B
:1014E000983649F4F20123FD959123FF91912F0144
:1014F000992309F0B8CF892F8554833018F0805292
:10150000833038F444E050E0A40EB51E5FE3598305
:101510000FC0933631F0933779F0933509F056C008
:1015200020C0F5018081898342E050E0A40EB51E01
:10153000610101E010E012C0F501C080D180F6FC2D
:1015400003C06FEF7FEF02C0692D70E042E050E012
:10155000A40EB51EC6010E94FB0B8C015FE7F522AD
:1015600014C0F501C080D180F6FC03C06FEF7FEF9F
:1015700002C0692D70E042E050E0A40EB51EC60125
:101580000E94F00B8C0150E8F52AF3FE07C01AC048
:1015900080E290E0B3010E94060CEA948E2D90E068
:1015A00008171907A8F30EC0F601F7FC8591F7FE9E
:1015B00081916F0190E0B3010E94060CE110EA9462
:1015C000015010400115110579F7EAC0943611F069
:1015D000993669F5F7FE08C0F50120813181428115
:1015E000538184E090E00AC0F501808191819C01E3
:1015F000442737FD4095542F82E090E0A80EB91E95
:101600009FE6F92257FF09C05095409530952195E6
:101610003F4F4F4F5F4FE0E8FE2ACA01B901A101D9
:101620002AE030E00E94320CD82ED21840C0953704
:1016300029F41F2D1F7E2AE030E01DC01F2D197FC9
:101640009F3661F0903720F4983509F0ACC00FC098
:10165000903739F0983709F0A6C004C028E030E090
:101660000AC0106114FD146020E130E004C014FDD4
:10167000166020E132E017FF08C0F501608171813A
:101680008281938144E050E008C0F501808191811E
:10169000BC0180E090E042E050E0A40EB51EA10144
:1016A0000E94320CD82ED2188FE7F82EF122F6FEC7
:1016B0000BC05EEFF522D91438F4F4FE07C0F2FC3B
:1016C00005C08FEEF82202C01D2D01C0192DF4FEB9
:1016D0000DC0FE01ED0DF11D8081803319F499EEEE
:1016E000F92208C01F5FF2FE05C003C08F2D867867
:1016F00009F01F5F0F2DF3FC14C0F0FE0FC01E1584
:1017000010F09D2C0BC09D2C9E0C911A1E2D06C016
:1017100080E290E0B3010E94060C1F5F1E15C0F32B
:1017200004C01E1510F4E11A01C0EE2404FF0FC01E
:1017300080E390E0B3010E94060C02FF1DC001FD92
:1017400003C088E790E00EC088E590E00BC0802FD2
:10175000867891F001FF02C08BE201C080E2F7FCC5
:101760008DE290E0B3010E94060C06C080E390E099
:10177000B3010E94060C9A94D914C0F3DA94F101D3
:10178000ED0DF11D808190E0B3010E94060CDD207B
:10179000A9F706C080E290E0B3010E94060CEA942B
:1017A000EE20C1F743CEF30166817781CB012B9602
:1017B000E2E10C94C70CE199FECF9FBB8EBBE09A8F
:1017C00099278DB30895262FE199FECF9FBB8EBB3D
:1017D0002DBB0FB6F894E29AE19A0FBE01960895D8
:1017E000FC010590615070400110D8F780959095EC
:1017F0008E0F9F1F0895FC016150704001900110F1
:10180000D8F7809590958E0F9F1F08950F931F9383
:10181000CF93DF938C01EB018B8181FF1BC082FF93
:101820000DC02E813F818C819D812817390764F47A
:10183000E881F9810193F983E88306C0E885F98599
:10184000802F0995892B31F48E819F8101969F838A
:101850008E8302C00FEF1FEFC801DF91CF911F9160
:101860000F910895FA01AA27283051F1203181F112
:10187000E8946F936E7F6E5F7F4F8F4F9F4FAF4F98
:10188000B1E03ED0B4E03CD0670F781F891F9A1FAB
:10189000A11D680F791F8A1F911DA11D6A0F711D5F
:1018A000811D911DA11D20D009F468943F912AE06B
:1018B000269F11243019305D3193DEF6CF01089553
:1018C000462F4770405D4193B3E00FD0C9F7F6CF84
:1018D000462F4F70405D4A3318F0495D31FD40524C
:1018E000419302D0A9F7EACFB4E0A69597958795E2
:1018F00077956795BA95C9F70097610571050895C1
:101900009B01AC010A2E069457954795379527956C
:10191000BA95C9F7620F731F841F951FA01D089504
:1019200097FB092E05260ED057FD04D0CFDC0AD038
:10193000001C38F450954095309521953F4F4F4FFE
:101940005F4F0895F6F790958095709561957F4F5C
:101950008F4F9F4F08952F923F924F925F926F92B9
:101960007F928F929F92AF92BF92CF92DF92EF922F
:10197000FF920F931F93CF93DF93CDB7DEB7CA1BB0
:10198000DB0B0FB6F894DEBF0FBECDBF09942A88DB
:10199000398848885F846E847D848C849B84AA8483
:1019A000B984C884DF80EE80FD800C811B81AA8110
:1019B000B981CE0FD11D0FB6F894DEBF0FBECDBFDB
:0819C000ED010895F894FFCF3A
:1019C80020202020253575487A00202535754D487A
:1019D8007A0020253575487A005400660078008A18
:1019E800009C00AE00C000D200E400003A003B00BA
:1019F8003E003C003D003F00000002000000003DAA
:0A1A080001000000000100000000D2
:103A0000808386898C8F9295989C9FA2A5A8ABAE47
:103A1000B0B3B6B9BCBFC1C4C7C9CCCED1D3D5D859
:103A2000DADCDEE0E2E4E6E8EAECEDEFF0F2F3F512
:103A3000F6F7F8F9FAFBFCFCFDFEFEFFFFFFFFFFC7
:103A4000FFFFFFFFFFFFFEFEFDFCFCFBFAF9F8F7AE
:103A5000F6F5F3F2F0EFEDECEAE8E6E4E2E0DEDCC6
:103A6000DAD8D5D3D1CECCC9C7C4C1BFBCB9B6B3DF
:103A7000B0AEABA8A5A29F9C9895928F8C898683A7
:103A8000807C797673706D6A6763605D5A575451B4
:103A90004F4C494643403E3B383633312E2C2A2783
:103AA0002523211F1D1B1917151312100F0D0C0AAA
:103AB00009080706050403030201010000000000D5
:103AC00000000000000001010203030405060708CE
:103AD000090A0C0D0F1012131517191B1D1F212396
:103AE00025272A2C2E313336383B3E404346494C5D
:103AF0004F5154575A5D6063676A6D707376797C75
:103B000000000000000000000000000000000000B5
:103B100000000000000000000000000000000000A5
:103B20000000000000000000000000000000000095
:103B30000000000000000000000000000000000085
:103B40000000000000000000000000000000000075
:103B50000000000000000000000000000000000065
:103B60000000000000000000000000000000000055
:103B70000000000000000000000000000000000045
:103B8000FFFFFFFFFFFFFFFFFFFFFFFFFFFFFFFF45
:103B9000FFFFFFFFFFFFFFFFFFFFFFFFFFFFFFFF35
:103BA000FFFFFFFFFFFFFFFFFFFFFFFFFFFFFFFF25
:103BB000FFFFFFFFFFFFFFFFFFFFFFFFFFFFFFFF15
:103BC000FFFFFFFFFFFFFFFFFFFFFFFFFFFFFFFF05
:103BD000FFFFFFFFFFFFFFFFFFFFFFFFFFFFFFFFF5
:103BE000FFFFFFFFFFFFFFFFFFFFFFFFFFFFFFFFE5
:103BF000FFFFFFFFFFFFFFFFFFFFFFFFFFFFFFFFD5
:103C0000000102030405060708090A0B0C0D0E0F3C
:103C1000101112131415161718191A1B1C1D1E1F2C
:103C2000202122232425262728292A2B2C2D2E2F1C
:103C3000303132333435363738393A3B3C3D3E3F0C
:103C4000404142434445464748494A4B4C4D4E4FFC
:103C5000505152535455565758595A5B5C5D5E5FEC
:103C6000606162636465666768696A6B6C6D6E6FDC
:103C7000707172737475767778797A7B7C7D7E7FCC
:103C8000808182838485868788898A8B8C8D8E8FBC
:103C9000909192939495969798999A9B9C9D9E9FAC
:103CA000A0A1A2A3A4A5A6A7A8A9AAABACADAEAF9C
:103CB000B0B1B2B3B4B5B6B7B8B9BABBBCBDBEBF8C
:103CC000C0C1C2C3C4C5C6C7C8C9CACBCCCDCECF7C
:103CD000D0D1D2D3D4D5D6D7D8D9DADBDCDDDEDF6C
:103CE000E0E1E2E3E4E5E6E7E8E9EAEBECEDEEEF5C
:103CF000F0F1F2F3F4F5F6F7F8F9FAFBFCFDFEFF4C
:103D0000FFFEFDFCFBFAF9F8F7F6F5F4F3F2F1F03B
:103D1000EFEEEDECEBEAE9E8E7E6E5E4E3E2E1E02B
:103D2000DFDEDDDCDBDAD9D8D7D6D5D4D3D2D1D01B
:103D3000CFCECDCCCBCAC9C8C7C6C5C4C3C2C1C00B
:103D4000BFBEBDBCBBBAB9B8B7B6B5B4B3B2B1B0FB
:103D5000AFAEADACABAAA9A8A7A6A5A4A3A2A1A0EB
:103D60009F9E9D9C9B9A99989796959493929190DB
:103D70008F8E8D8C8B8A89888786858483828180CB
:103D80007F7E7D7C7B7A79787776757473727170BB
:103D90006F6E6D6C6B6A69686766656463626160AB
:103DA0005F5E5D5C5B5A595857565554535251509B
:103DB0004F4E4D4C4B4A494847464544434241408B
:103DC0003F3E3D3C3B3A393837363534333231307B
:103DD0002F2E2D2C2B2A292827262524232221206B
:103DE0001F1E1D1C1B1A191817161514131211105B
:103DF0000F0E0D0C0B0A090807060504030201004B
:103E000000020406080A0C0E10121416181A1C1EC2
:103E100020222426282A2C2E30323436383A3C3EB2
:103E200040424446484A4C4E50525456585A5C5EA2
:103E300060626466686A6C6E70727476787A7C7E92
:103E400080828486888A8C8E90929496989A9C9E82
:103E5000A0A2A4A6A8AAACAEB0B2B4B6B8BABCBE72
:103E6000C0C2C4C6C8CACCCED0D2D4D6D8DADCDE62
:103E7000E0E2E4E6E8EAECEEF0F2F4F6F8FAFCFE52
:103E8000FFFDFBF9F7F5F3F1EFEFEBE9E7E5E3E130
:103E9000DFDDDBD9D7D5D3D1CFCFCBC9C7C5C3C120
:103EA000BFBDBBB9B7B5B3B1AFAFABA9A7A5A3A110
:103EB0009F9D9B99979593918F8F8B898785838100
:103EC0007F7D7B79777573716F6F6B6967656361F0
:103ED0005F5D5B59575553514F4F4B4947454341E0
:103EE0003F3D3B39373533312F2F2B2927252321D0
:103EF0001F1D1B19171513110F0F0B0907050301C0
:103F0000494A4B4B4A494949494847454443434339
:103F1000444443413E3D3B393837373636363737F0
:103F200037373737363533323131343D4D6584A933
:103F3000CFEEFFFEEAC69A6D442511050001060D7D
:103F4000141C242D34393D404142434444454647E6
:103F50004747474747474748484849494A4B4B4CDA
:103F60004D4E4F505152535456585B5D60626466DB
:103F7000686B6D707376797B7D7E7F7F7F7F7F7EC0
:103F80007D7C797774716D6966625F5C59575451B5
:103F90004F4D4C4B4A4948464544434343444444AF
:103FA0004545454545454546474849494A4A4B4B9D
:103FB0004B4B4B4B4A4A4949494948484847474770
:103FC0004747474746464645454545454646464593
:103FD00044444343434342424241414141414141C0
:103FE0004140403F3F4040414141414141414040CB
:103FF0004040404040404141414243444547484998
:00000001FF
