:100000000C94D5000C9405010C94F2000C94F200B1
:100010000C9450030C94F2000C94F2000C94F20037
:100020000C94F2000C94F2000C94F2000C94F20088
:100030000C94F2000C94F2000C94F2000C94F20078
:100040000C94F2000C94F2000C94F2000C94F20068
:100050000C94F20020202020202053696E6520207F
:100060002020202000002020202020537175617264
:10007000652020202020000020202020547269616B
:100080006E676C6520202020000020202020536116
:1000900077546F6F74682020202000002020526564
:1000A0007620536177546F6F746820200000202001
:1000B0002020202045434720202020202020000011
:1000C0002020202046726571205374657020202006
:1000D000000020202020204E6F6973652020202002
:1000E0002020000020202048696768205370656543
:1000F0006420202000004F4E2000004F46460000A4
:10010000202020202020204E4120202020202020A0
:10011000000020202020202020202020202020201F
:10012000202000002020202020202020202020002F
:1001300000536176696E672053657474696E6773E6
:100140000000202020202020314D487A202020004F
:1001500000415652205349474E414C000020202078
:100160002052616E646F6D0000001F000000001FD0
:1001700000001F101010101F00001F181818181F63
:1001800000001F1C1C1C1C1F00001F1E1E1E1E1F0B
:1001900000001F1F1F1F1F1F0003070F1F0F070354
:1001A00000181C1E1F1E1C18000011241FBECFE5C6
:1001B000D4E0DEBFCDBF11E0A0E6B0E0E8ECFAE1AC
:1001C00002C005900D92AA3AB107D9F711E0AAEA48
:1001D000B1E001C01D92A33CB107E1F70E94F1021A
:1001E0000C94630D0C94000014BC7894089585B5AC
:1001F000866085BD89B7806489BF089583B7897F8C
:1002000083BF89B78F7B89BF08951F920F920FB666
:100210000F9211241092B2016A9A1092B701829B38
:10022000FECF0F900FBE0F901F901895823039F0BF
:10023000833070F0843031F0883051F406C083E0B0
:1002400090E008C081E090E005C01BBC1ABC04C06F
:1002500087E090E09BBD8ABD80E48FBD89E08EBDC4
:1002600008951EBC08950E94890580E090E00895DD
:100270008091AA018630F1F461E080E00E94DA0505
:100280008091B9019091BA01A091BB01B091BC01DC
:10029000BF93AF939F938F9380E690E09F938F934C
:1002A0000E9401098DB79EB706960FB6F8949EBFBF
:1002B0000FBE8DBF8091AA01883099F461E080E083
:1002C0000E94DA058091B80190E09F938F9387E6B2
:1002D00090E09F938F930E9401090F900F900F90D1
:1002E0000F908091AA018630F0F461E080E00E94D6
:1002F000DA058091AE019091AF01A091B001B0916B
:10030000B101BF93AF939F938F9380E690E09F934B
:100310008F930E9401098DB79EB706960FB6F89489
:100320009EBF0FBE8DBF08951F93182F0E94BD055D
:10033000E091AA01F0E0EE0FFF1FE758FF4F40E009
:1003400060E0808191810E94E90561E080E00E9487
:10035000DA058091AA01863021F541E060E082E172
:1003600091E00E94E90561E080E00E94DA05809159
:10037000B9019091BA01A091BB01B091BC01BF93AA
:10038000AF939F938F938FE690E09F938F930E94FC
:1003900001098DB79EB706960FB6F8949EBF0FBEA3
:1003A0008DBF8091AA01873061F441E060E082E175
:1003B00091E00E94E90541E060E08DE591E00E9456
:1003C000E9058091AA018830C9F441E060E082E14A
:1003D00091E00E94E90561E080E00E94DA058091E9
:1003E000B80190E09F938F9387E690E09F938F935F
:1003F0000E9401090F900F900F900F908091AA0119
:10040000863020F541E060E082E191E00E94E9055C
:1004100061E080E00E94DA058091AE019091AF0129
:10042000A091B001B091B101BF93AF939F938F930F
:1004300080E690E09F938F930E9401098DB79EB74D
:1004400006960FB6F8949EBF0FBE8DBF8091AA018D
:10045000863069F0113029F441E06DE086EF90E0DC
:1004600004C041E06DE08BEF90E00E94E9051F9130
:100470000895EF92FF920F931F9387E990E0909376
:10048000C0018093BF010E94B3060E94BD050E9477
:100490004B062FEF31E0D9010E94340D802D8435B9
:1004A000E1F090E0A0E0B0E0092E0E943C0D88EE63
:1004B000A1E0B0E0082E0E943C0D83E0A2E0B0E095
:1004C000082E0E943C0DA3E0B0E0092E0E943C0DD6
:1004D00084E5D901082E0E943C0DA0E0B0E00E9406
:1004E000340D802D8093AA01A1E0B0E00E94340D6C
:1004F000E02CE092AB01A2E0B0E00E94340D202D90
:100500002093AC01A3E0B0E00E94340D602D609315
:10051000AD0170E080E090E0CB017727662730E006
:1005200040E050E0542F432F322F2227622B732BB1
:10053000842B952BFF2400E010E06E297F29802B6F
:10054000912B6093AE017093AF018093B0019093B3
:10055000B1010E94FA0620E030E543EC5DE30E9421
:10056000B00B0E94180C6093B3017093B401809398
:10057000B5019093B6011092B20181E08093B80169
:1005800084E690E0A0E0B0E08093B9019093BA01D6
:10059000A093BB01B093BC011BBA8FEF8ABB81B3A0
:1005A000807E81BB82B38F6182BB8D9A1092B7012E
:1005B00080E00E94940114BC789485B5866085BD66
:1005C00089B7806489BF1F910F91FF90EF900895C4
:1005D00020E080E49CE90197F1F72F5F2436C9F70A
:1005E0000895EF92FF920F931F93CF93DF930E9492
:1005F0003902C6EFD0E08091B2018130E1F78BB7CC
:1006000080648BBFE091AA01E73041F40E94F108B9
:100610008BBB8091B2018130C9F333C0E83089F4DB
:100620008091B8010E94160105C041E06DE0CE0145
:100630000E94E9058091B2018130B9F31EBC959802
:1006400021C08091B3019091B401A091B501B09106
:10065000B601E92EFA2E0B2F1127AD016627772759
:10066000F0E0EE0FFF1FE557FF4F0190F081E02D06
:1006700022273327280F3E1DE41FC8950BBA6A9B1B
:10068000F9CF1BBA8091B7010E9494018BB78F7B81
:100690008BBF85B5866085BD89B7806489BFABCFC8
:1006A0001F920F920FB60F921124EF92FF920F93A9
:1006B0001F932F933F934F935F936F937F938F93EA
:1006C0009F93AF93BF93EF93FF9384990FC0809153
:1006D000AA01882311F488E001C081508093AA0107
:1006E0008091B7010E949401849BFECF809910C035
:1006F0008091AA01883020F48F5F8093AA0102C004
:100700001092AA018091B7010E949401809BFECFB4
:100710008399AEC08091AA01863079F56091B901C4
:100720007091BA018091BB019091BC01603127E2C8
:10073000720720E0820720E0920769F481E090E0F0
:10074000A0E0B0E08093B9019093BA01A093BB01FF
:10075000B093BC010EC02AE030E040E050E00E94BF
:10076000950C6093B9017093BA018093BB0190938B
:10077000BC010E943801839BFECF8091AA01883082
:1007800069F48091B801883011F481E001C0880FCC
:100790008093B8010E943801839BFECF8091AA010B
:1007A000863008F065C0E090AE01F090AF01009196
:1007B000B0011091B1012091B9013091BA0140917D
:1007C000BB015091BC018FEF9FEFA0E0B0E08E190C
:1007D0009F09A00BB10B82179307A407B50760F020
:1007E0002E0D3F1D401F511F2093AE013093AF01CE
:1007F0004093B0015093B1010E94380120E080E4A1
:100800009FE10197F1F72F5F839B03C02A3F80F19F
:1008100002C02B3FA1F7E090AE01F090AF01009134
:10082000B0011091B1012091B9013091BA0140910C
:10083000BB015091BC018FEF9FEFA0E0B0E08E199B
:100840009F09A00BB10B82179307A407B50760F0AF
:100850002E0D3F1D401F511F2093AE013093AF015D
:100860004093B0015093B1010E943801839BD3CFD4
:1008700081999CC08091AA01863061F56091B9018F
:100880007091BA018091BB019091BC0161307105FA
:100890008105910569F480E197E2A0E0B0E08093E2
:1008A000B9019093BA01A093BB01B093BC010EC0F3
:1008B0002AE030E040E050E00E94DB0C2093B901D8
:1008C0003093BA014093BB015093BC010E943801A0
:1008D000819BFECF9091AA01983071F48091B8016C
:1008E000813019F49093B80103C086958093B801C4
:1008F0000E943801819BFECF8091AA01863008F0CA
:1009000055C08091AE019091AF01A091B001B0911E
:10091000B1012091B9013091BA014091BB015091D0
:10092000BC0182179307A407B50760F0821B930BE5
:10093000A40BB50B8093AE019093AF01A093B001CF
:10094000B093B1010E94380120E080E49FE101975B
:10095000F1F72F5F819B03C02A3F40F102C02B3F7C
:10096000A1F78091AE019091AF01A091B001B0913B
:10097000B1012091B9013091BA014091BB01509170
:10098000BC0182179307A407B50760F0821B930B85
:10099000A40BB50B8093AE019093AF01A093B0016F
:1009A000B093B1010E943801819BDBCF80B390E00E
:1009B000BC016470707082FD97C0E091AA01E630BE
:1009C00009F490C08091AE019091AF01A091B00167
:1009D000B091B1018093AB01292F3A2F4B2F5527AE
:1009E0002093AC01CD01AA27BB278093AD01DB0189
:1009F0000E94340D802D8E1721F0DB010E2E0E94F7
:100A00003C0D21E030E0D9010E94340D802D909101
:100A1000AB01891721F0D901092E0E943C0D22E07B
:100A200030E0D9010E94340D802D9091AC018917DE
:100A300021F0D901092E0E943C0D23E030E0D901BC
:100A40000E94340D802D9091AD01891721F0D901BC
:100A5000092E0E943C0D6091AD0170E080E090E0B5
:100A6000CB01772766272091AC0130E040E050E0D1
:100A7000542F432F322F2227622B732B842B952B3D
:100A80002091AB0130E040E050E0622B732B842BCF
:100A9000952B6093AE017093AF018093B00190935A
:100AA000B1010E94FA0620E030E543EC5DE30E94CC
:100AB000B00B0E94180C6093B3017093B401809343
:100AC000B5019093B60181E08093B2018093B701A4
:100AD0006A9883B7897F83BF89B78F7B89BF81E09D
:100AE0000E949401829BFECFFF91EF91BF91AF9145
:100AF0009F918F917F916F915F914F913F912F9136
:100B00001F910F91FF90EF900F900FBE0F901F90CD
:100B10001895982F907F95BBA89AAA9AE0EAFFE0D3
:100B2000DF011197F1F7AA98A898DF011197F1F763
:100B30008295807F85BBA89AAA9ACF010197F1F789
:100B4000AA98A8983197F1F70895982F907F95BBB0
:100B5000AA9AE0EAFFE0DF011197F1F7AA98DF0116
:100B60001197F1F78295807F85BBAA9ACF010197F3
:100B7000F1F7AA983197F1F7089581E00E94A50551
:100B8000089582E00E94A50508950F931F93CF93C7
:100B9000DF93062F009749F0EC0110E004C0899123
:100BA0000E9489051F5F1017D1F7DF91CF911F9128
:100BB0000F910895623031F0633031F0613029F4E3
:100BC000805C03C08C5E01C08C5A80680E94A505C1
:100BD00008950F931F93CF93DF938C01862F642F7B
:100BE0000E94DA05C0E0D0E002C00E948905F80149
:100BF000EC0FF11D849121968823B9F7DF91CF91F5
:100C00001F910F910895EF92FF920F931F93CF932F
:100C1000DF937C01162F110F110F110F1064C0E02C
:100C2000D0E0FE01EE0DFF1D0491812F8C0F0E947C
:100C3000A505802F0E9489052196C830D10589F726
:100C4000DF91CF911F910F91FF90EF9008950F9337
:100C50001F93082F10E004C08EE10E94A5051F5FBE
:100C60001017D1F71F910F9108950F931F93082F1D
:100C700010E004C088E10E94A5051F5F1017D1F79E
:100C80001F910F9108958EE00E94A50508958FE0B1
:100C90000E94A50508958CE00E94A505089588E0AE
:100CA0000E94A50508958CE00E94A50508950F9364
:100CB0001F93082F10E004C080E10E94A5051F5F6C
:100CC0001017D1F71F910F9108950F931F93082FBD
:100CD00010E004C084E10E94A5051F5F1017D1F742
:100CE0001F910F910895DF92EF92FF920F931F9340
:100CF000CF93DF93D42E96E0899FC0011124242F37
:100D000030E070E0AC01429FC001439F900D529FC4
:100D1000900D11240E94C80CEB01CB0166E070E03D
:100D20000E94B40CE82EFF2400E010E012C0C801BD
:100D30000596C817D90710F085E006C0C017D1077F
:100D400010F08E2D01C080E00E948905F3940A5FA7
:100D50001F4FFD1461F7DF91CF911F910F91FF900D
:100D6000EF90DF9008950F931F93CF93DF9380E66A
:100D70009AEE0197F1F715BA15BA84B3806F84BB68
:100D800084B3876084BB20E325BBAA9A80EA9FE0F6
:100D9000FC013197F1F7AA98FC013197F1F725BBD7
:100DA000AA9AFC013197F1F7AA98FC013197F1F763
:100DB00020E225BBAA9AFC013197F1F7AA98019786
:100DC000F1F788E20E94A5058CE00E94A50509E6DE
:100DD00011E0C0E0D0E06C2FC8010E94030621960C
:100DE000085F1F4FC830D105B1F7DF91CF911F9138
:100DF0000F910895A8E0B0E0E0E0F7E00C94070D53
:100E00007B018C01611571058105910519F482E062
:100E100089835AC083E089838EE1C82ED12CDC827D
:100E2000CB82ED82FE820F831887C801B7010E9432
:100E30006D07BC016150704077FF33C0EE27FF277C
:100E4000E61BF70B20E030E040E050E081E090E06E
:100E5000A0E0B0E00E2E04C0880F991FAA1FBB1F90
:100E60000A94D2F70197A109B1098E219F21A023ED
:100E7000B1230097A105B10521F021E030E040E069
:100E800050E004C016950795F794E794EA95D2F7D9
:100E90002E293F29402B512B2D833E834F8358878A
:100EA0000FC06115710581F0062E04C0EE0CFF1C09
:100EB000001F111F0A94D2F7ED82FE820F8318875C
:100EC000C61AD70ADC82CB821A82CE0101960E9412
:100ED000BA07E8E028960C94230DEF92FF920F9347
:100EE0001F939B01AC01203080E0380781E0480768
:100EF00080E0580780F42F3F31054105510509F086
:100F000020F4EE24FF24870119C068E0E62EF12CBE
:100F1000012D112D13C0203080E0380780E04807F4
:100F200081E0580730F490E1E92EF12C012D112DCC
:100F300005C088E1E82EF12C012D112D80E290E012
:100F4000A0E0B0E08E199F09A00BB10B04C056952C
:100F5000479537952795EA94D2F7F901EB55FF4F5E
:100F60002081821B9109A109B1091F910F91FF9066
:100F7000EF9008959F92AF92BF92CF92DF92EF923F
:100F8000FF920F931F93EE24FF248701FC0124811D
:100F900035814681578191808081823010F4406193
:100FA000A2C0843009F49BC0823029F420E030E0F4
:100FB00040E050E005C0211531054105510519F407
:100FC000E0E0F0E092C0828193816FEF8238960773
:100FD0000CF05AC062E87FEF681B790B6A3171052B
:100FE0002CF020E030E040E050E02AC0AA24BB24EE
:100FF000650181E090E0A0E0B0E0062E04C0880F1B
:10100000991FAA1FBB1F0A94D2F70197A109B10922
:1010100082239323A423B5230097A105B10529F0CA
:1010200071E0A72EB12CC12CD12C04C05695479548
:10103000379527956A95D2F72A293B294C295D29AE
:10104000DA01C9018F779070A070B070803491057B
:10105000A105B10539F427FF09C0205C3F4F4F4F70
:101060005F4F04C0215C3F4F4F4F5F4F80E090E0E7
:10107000203060E0360760E0460760E4560710F075
:1010800081E090E0FC0123C08038910544F5FC012B
:10109000E158FF4FDA01C9018F779070A070B070EE
:1010A00080349105A105B10539F427FF09C0205C02
:1010B0003F4F4F4F5F4F04C0215C3F4F4F4F5F4F3B
:1010C00057FF05C05695479537952795319687E088
:1010D00056954795379527958A95D1F706C020E014
:1010E00030E040E050E0EFEFF0E0E22EF32E942FFE
:1010F0009F77802F8078892B9E2F9795992797959A
:101100008F77082F092B9E2F9695812F8078892B1A
:101110009794992497948F77182F1929C801B701AC
:101120001F910F91FF90EF90DF90CF90BF90AF9005
:101130009F900895A0E0B0E0E0EAF8E00C94050D7F
:10114000EC01688179818A819B8161157105810536
:10115000910549F484E2A82E89EDB82E8BE5C82EBE
:1011600087E0D82E02C05B016C01C601B5012DE1FC
:1011700033EF41E050E00E94480D27EA31E440E0BF
:1011800050E00E94950C7B018C01C601B5012DE158
:1011900033EF41E050E00E94480DCA01B90124E15B
:1011A0003BE040E050E00E94950CE61AF70A080B7D
:1011B000190B17FF08C08FEF9FEFAFEFBFE7E80EE7
:1011C000F91E0A1F1B1FE882F9820A831B83C701CD
:1011D0009F77EAE0CDB7DEB70C94210D0E949A0804
:1011E000089585EA91E00E949A080895A0E0B0E091
:1011F0008093A5019093A601A093A701B093A801A5
:101200000895A2E0B0E0E7E0F9E00C940D0DFE01D6
:10121000379661917191FA83E983AF018091BF01A3
:101220009091C0010E941809E2E022960C94290DC9
:101230002F923F925F926F927F928F929F92AF9286
:10124000BF92CF92DF92EF92FF920F931F93CF93B3
:10125000DF93CDB7DEB72B970FB6F894DEBF0FBE86
:10126000CDBF3C014B016A01FC01178216828381CC
:1012700081FD03C08FEF9FEFBBC11E010894211CAD
:10128000311CF3013381F40133FD859133FF8191EA
:101290004F01882309F4A9C1853239F433FD8591C2
:1012A00033FF81914F01853229F4B30190E00E9410
:1012B000260BE7CF982FAA2410E055241032B0F463
:1012C0009B3269F09C3228F4903251F0933271F4E1
:1012D0000BC09D3239F0903349F411602AC012607E
:1012E000146027C0186025C0106123C017FD2AC0F4
:1012F000292F20532A3088F416FF07C08AE0A89EC1
:10130000C0011124A22EA80E14C08AE0589EC0016C
:101310001124522E580E10620CC09E3221F416FD7C
:1013200064C1106406C09C3611F4106802C098367F
:1013300049F4F40133FD959133FF91914F019923C5
:1013400009F0BCCF892F8554833018F08052833048
:1013500038F424E030E0C20ED31E8FE389830FC03F
:10136000933631F0933781F0933509F056C020C0A1
:10137000F6018081898322E030E0C20ED31E710124
:1013800081E0A82EB12C12C0F601E080F18016FD9C
:1013900003C06FEF7FEF02C06A2D70E022E030E003
:1013A000C20ED31EC7010E941B0B5C011F7713C026
:1013B000F601E080F18016FD03C06FEF7FEF02C001
:1013C0006A2D70E022E030E0C20ED31EC7010E94F9
:1013D000100B5C01106813FF07C01BC0B30180E253
:1013E00090E00E94260B5A94852D90E0A816B9062D
:1013F000A8F30FC0F70117FD859117FF81917F01B9
:10140000B30190E00E94260B51105A940894A10851
:10141000B108A114B10471F7E5C0943611F0993602
:1014200069F517FF0AC0F60160817181828193819D
:1014300024E030E0C20ED31E0DC0F6018081918100
:101440009C01B901882777FD8095982F42E050E0F4
:10145000C40ED51E012F0F7697FF08C0909580957A
:10146000709561957F4F8F4F9F4F00682AE030E065
:10147000A1010E94520BB82EB2183DC0953721F43D
:101480001F7E2AE030E01CC0197F9F3661F0903744
:1014900020F4983509F0A9C00FC0903739F098377B
:1014A00009F0A3C004C028E030E00AC0106114FDB8
:1014B000146020E130E004C014FD166020E132E049
:1014C00017FF08C0F601608171818281938144E039
:1014D00050E008C0F60180819181BC0180E090E07D
:1014E00042E050E0C40ED51EA1010E94520BB82E5E
:1014F000B218012F0F7706FF09C00E7FBA1430F41F
:1015000004FF06C002FD04C00F7E02C01B2D01C0F7
:101510001A2D04FF0CC0FE01EB0DF11D80818033FC
:1015200011F4097E08C01F5F02FF05C003C0802FB1
:10153000867809F01F5FE02E03FD14C000FF0FC086
:10154000151510F0AB2C0BC0AB2CA50CA11A152D4A
:1015500006C0B30180E290E00E94260B1F5F1515C4
:10156000C0F304C0151510F4511A01C05524E4FE4F
:1015700010C0B30180E390E00E94260BE2FE1EC083
:10158000E1FE03C088E590E002C088E790E0B30187
:101590000CC08E2D867891F0E1FE02C08BE201C076
:1015A00080E207FD8DE2B30190E00E94260B06C0A9
:1015B000B30180E390E00E94260BAA94BA14C0F312
:1015C000BA94F101EB0DF11D8081B30190E00E940E
:1015D000260BBB2039F0F4CFB30180E290E00E94EB
:1015E000260B5A945520C1F74CCEF3018681978182
:1015F0002B960FB6F894DEBF0FBECDBFDF91CF9113
:101600001F910F91FF90EF90DF90CF90BF90AF9020
:101610009F908F907F906F905F903F902F90089554
:10162000FC010590615070400110D8F780959095AD
:101630008E0F9F1F0895FC016150704001900110B2
:10164000D8F7809590958E0F9F1F08950F931F9345
:10165000CF93DF938C01EB018B8181FF1BC082FF55
:101660000DC02E813F818C819D812817390764F43C
:10167000E881F9810193F983E88306C0E885F9855B
:10168000802F0995892B31F48E819F8101969F834C
:101690008E8302C00FEF1FEFC801DF91CF911F9122
:1016A0000F910895FA01AA27283051F1203181F1D4
:1016B000E8946F936E7F6E5F7F4F8F4F9F4FAF4F5A
:1016C000B1E03ED0B4E03CD0670F781F891F9A1F6D
:1016D000A11D680F791F8A1F911DA11D6A0F711D21
:1016E000811D911DA11D20D009F468943F912AE02D
:1016F000269F11243019305D3193DEF6CF01089515
:10170000462F4770405D4193B3E00FD0C9F7F6CF45
:10171000462F4F70405D4A3318F0495D31FD40520D
:10172000419302D0A9F7EACFB4E0A69597958795A3
:1017300077956795BA95C9F7009761057105089582
:101740009B01AC010A2E069457954795379527952E
:10175000BA95C9F7620F731F841F951FA01D0895C6
:101760000CD0A9C0A1D040F098D030F021F45F3F58
:1017700019F08AC05111D3C08DC0AED098F399230F
:10178000C9F35523B1F3951B550BBB27AA27621745
:101790007307840738F09F5F5F4F220F331F441F8A
:1017A000AA1FA9F333D00E2E3AF0E0E830D09150C2
:1017B0005040E695001CCAF729D0FE2F27D0660FAF
:1017C000771F881FBB1F261737074807AB07B0E8EE
:1017D00009F0BB0B802DBF01FF2793585F4F2AF004
:1017E0009E3F510568F050C09AC05F3FECF3983EB1
:1017F000DCF3869577956795B795F7959F5FC9F761
:10180000880F911D9695879597F90895E1E0660FE9
:10181000771F881FBB1F621773078407BA0720F062
:10182000621B730B840BBA0BEE1F88F7E0950895CB
:101830005BD088F09F5790F0B92F9927B751A0F04F
:10184000D1F0660F771F881F991F1AF0BA95C9F754
:1018500012C0B13081F062D0B1E008955FC0672F4F
:10186000782F8827B85F39F0B93FCCF38695779504
:101870006795B395D9F73EF49095809570956195ED
:101880007F4F8F4F9F4F089597F99F6780E870E0D3
:1018900060E008959FEF80EC089500240A941616E6
:1018A000170618060906089500240A94121613064E
:1018B000140605060895092E0394000C11F48823DC
:1018C00052F0BB0F40F4BF2B11F460FF04C06F5FF8
:1018D0007F4F8F4F9F4F089557FD9058440F551FCE
:1018E00059F05F3F71F04795880F97FB991F61F0A2
:1018F0009F3F79F087950895121613061406551F19
:10190000F2CF4695F1DF08C0161617061806991F84
:10191000F1CF86957105610508940895E894BB2779
:1019200066277727CB0197F90895629FD001739FAF
:10193000F001829FE00DF11D649FE00DF11D929F6B
:10194000F00D839FF00D749FF00D659FF00D9927AA
:10195000729FB00DE11DF91F639FB00DE11DF91FCE
:10196000BD01CF0111240895AA1BBB1B51E107C083
:10197000AA1FBB1FA617B70710F0A61BB70B881F1F
:10198000991F5A95A9F780959095BC01CD010895AE
:1019900097FB092E07260AD077FD04D0E5DF06D095
:1019A00000201AF4709561957F4F0895F6F7909591
:1019B00081959F4F0895A1E21A2EAA1BBB1BFD0122
:1019C0000DC0AA1FBB1FEE1FFF1FA217B307E4071E
:1019D000F50720F0A21BB30BE40BF50B661F771F76
:1019E000881F991F1A9469F7609570958095909556
:1019F0009B01AC01BD01CF0108952F923F924F9200
:101A00005F926F927F928F929F92AF92BF92CF928E
:101A1000DF92EF92FF920F931F93CF93DF93CDB797
:101A2000DEB7CA1BDB0B0FB6F894DEBF0FBECDBF0F
:101A300009942A88398848885F846E847D848C84E0
:101A40009B84AA84B984C884DF80EE80FD800C81E9
:101A50001B81AA81B981CE0FD11D0FB6F894DEBFCC
:101A60000FBECDBFED010895E199FECFBFBBAEBB68
:101A7000E09A11960DB20895E199FECFBFBBAEBBBF
:101A80000DBA11960FB6F894E29AE19A0FBE089536
:101A900097FB092E05260ED057FD04D08CDF0AD007
:101AA000001C38F450954095309521953F4F4F4F8D
:101AB0005F4F0895F6F790958095709561957F4FEB
:081AC0008F4F9F4F0895FFCFE7
:101AC80020253575487A00202535754D487A00203F
:101AD800202020253575487A005400660078008A51
:101AE800009C00AE00C000D200E400003A003B00B9
:101AF8003E003C003D003F000000020000000033B3
:101B080001000000000001020203030303040404AF
:101B18000404040404050505050505050505050572
:101B28000505050505060606060606060606060652
:101B3800060606060606060606060606060606063D
:101B48000606060606070707070707070707070722
:101B5800070707070707070707070707070707070D
:101B680007070707070707070707070707070707FD
:101B780007070707070707070707070707070707ED
:101B880007070707070808080808080808080808D2
:101B980008080808080808080808080808080808BD
:101BA80008080808080808080808080808080808AD
:101BB800080808080808080808080808080808089D
:101BC800080808080808080808080808080808088D
:101BD800080808080808080808080808080808087D
:101BE800080808080808080808080808080808086D
:101BF800080808080808080808080808080808085D
:0A1C080008080808080100000000A9
:103A0000808386898C8F9295989C9FA2A5A8ABAE47
:103A1000B0B3B6B9BCBFC1C4C7C9CCCED1D3D5D859
:103A2000DADCDEE0E2E4E6E8EAECEDEFF0F2F3F512
:103A3000F6F7F8F9FAFBFCFCFDFEFEFFFFFFFFFFC7
:103A4000FFFFFFFFFFFFFEFEFDFCFCFBFAF9F8F7AE
:103A5000F6F5F3F2F0EFEDECEAE8E6E4E2E0DEDCC6
:103A6000DAD8D5D3D1CECCC9C7C4C1BFBCB9B6B3DF
:103A7000B0AEABA8A5A29F9C9895928F8C898683A7
:103A8000807C797673706D6A6763605D5A575451B4
:103A90004F4C494643403E3B383633312E2C2A2783
:103AA0002523211F1D1B1917151312100F0D0C0AAA
:103AB00009080706050403030201010000000000D5
:103AC00000000000000001010203030405060708CE
:103AD000090A0C0D0F1012131517191B1D1F212396
:103AE00025272A2C2E313336383B3E404346494C5D
:103AF0004F5154575A5D6063676A6D707376797C75
:103B000000000000000000000000000000000000B5
:103B100000000000000000000000000000000000A5
:103B20000000000000000000000000000000000095
:103B30000000000000000000000000000000000085
:103B40000000000000000000000000000000000075
:103B50000000000000000000000000000000000065
:103B60000000000000000000000000000000000055
:103B70000000000000000000000000000000000045
:103B8000FFFFFFFFFFFFFFFFFFFFFFFFFFFFFFFF45
:103B9000FFFFFFFFFFFFFFFFFFFFFFFFFFFFFFFF35
:103BA000FFFFFFFFFFFFFFFFFFFFFFFFFFFFFFFF25
:103BB000FFFFFFFFFFFFFFFFFFFFFFFFFFFFFFFF15
:103BC000FFFFFFFFFFFFFFFFFFFFFFFFFFFFFFFF05
:103BD000FFFFFFFFFFFFFFFFFFFFFFFFFFFFFFFFF5
:103BE000FFFFFFFFFFFFFFFFFFFFFFFFFFFFFFFFE5
:103BF000FFFFFFFFFFFFFFFFFFFFFFFFFFFFFFFFD5
:103C0000000102030405060708090A0B0C0D0E0F3C
:103C1000101112131415161718191A1B1C1D1E1F2C
:103C2000202122232425262728292A2B2C2D2E2F1C
:103C3000303132333435363738393A3B3C3D3E3F0C
:103C4000404142434445464748494A4B4C4D4E4FFC
:103C5000505152535455565758595A5B5C5D5E5FEC
:103C6000606162636465666768696A6B6C6D6E6FDC
:103C7000707172737475767778797A7B7C7D7E7FCC
:103C8000808182838485868788898A8B8C8D8E8FBC
:103C9000909192939495969798999A9B9C9D9E9FAC
:103CA000A0A1A2A3A4A5A6A7A8A9AAABACADAEAF9C
:103CB000B0B1B2B3B4B5B6B7B8B9BABBBCBDBEBF8C
:103CC000C0C1C2C3C4C5C6C7C8C9CACBCCCDCECF7C
:103CD000D0D1D2D3D4D5D6D7D8D9DADBDCDDDEDF6C
:103CE000E0E1E2E3E4E5E6E7E8E9EAEBECEDEEEF5C
:103CF000F0F1F2F3F4F5F6F7F8F9FAFBFCFDFEFF4C
:103D0000FFFEFDFCFBFAF9F8F7F6F5F4F3F2F1F03B
:103D1000EFEEEDECEBEAE9E8E7E6E5E4E3E2E1E02B
:103D2000DFDEDDDCDBDAD9D8D7D6D5D4D3D2D1D01B
:103D3000CFCECDCCCBCAC9C8C7C6C5C4C3C2C1C00B
:103D4000BFBEBDBCBBBAB9B8B7B6B5B4B3B2B1B0FB
:103D5000AFAEADACABAAA9A8A7A6A5A4A3A2A1A0EB
:103D60009F9E9D9C9B9A99989796959493929190DB
:103D70008F8E8D8C8B8A89888786858483828180CB
:103D80007F7E7D7C7B7A79787776757473727170BB
:103D90006F6E6D6C6B6A69686766656463626160AB
:103DA0005F5E5D5C5B5A595857565554535251509B
:103DB0004F4E4D4C4B4A494847464544434241408B
:103DC0003F3E3D3C3B3A393837363534333231307B
:103DD0002F2E2D2C2B2A292827262524232221206B
:103DE0001F1E1D1C1B1A191817161514131211105B
:103DF0000F0E0D0C0B0A090807060504030201004B
:103E000000020406080A0C0E10121416181A1C1EC2
:103E100020222426282A2C2E30323436383A3C3EB2
:103E200040424446484A4C4E50525456585A5C5EA2
:103E300060626466686A6C6E70727476787A7C7E92
:103E400080828486888A8C8E90929496989A9C9E82
:103E5000A0A2A4A6A8AAACAEB0B2B4B6B8BABCBE72
:103E6000C0C2C4C6C8CACCCED0D2D4D6D8DADCDE62
:103E7000E0E2E4E6E8EAECEEF0F2F4F6F8FAFCFE52
:103E8000FFFDFBF9F7F5F3F1EFEFEBE9E7E5E3E130
:103E9000DFDDDBD9D7D5D3D1CFCFCBC9C7C5C3C120
:103EA000BFBDBBB9B7B5B3B1AFAFABA9A7A5A3A110
:103EB0009F9D9B99979593918F8F8B898785838100
:103EC0007F7D7B79777573716F6F6B6967656361F0
:103ED0005F5D5B59575553514F4F4B4947454341E0
:103EE0003F3D3B39373533312F2F2B2927252321D0
:103EF0001F1D1B19171513110F0F0B0907050301C0
:103F0000494A4B4B4A494949494847454443434339
:103F1000444443413E3D3B393837373636363737F0
:103F200037373737363533323131343D4D6584A933
:103F3000CFEEFFFEEAC69A6D442511050001060D7D
:103F4000141C242D34393D404142434444454647E6
:103F50004747474747474748484849494A4B4B4CDA
:103F60004D4E4F505152535456585B5D60626466DB
:103F7000686B6D707376797B7D7E7F7F7F7F7F7EC0
:103F80007D7C797774716D6966625F5C59575451B5
:103F90004F4D4C4B4A4948464544434343444444AF
:103FA0004545454545454546474849494A4A4B4B9D
:103FB0004B4B4B4B4A4A4949494948484847474770
:103FC0004747474746464645454545454646464593
:103FD00044444343434342424241414141414141C0
:103FE0004140403F3F4040414141414141414040CB
:103FF0004040404040404141414243444547484998
:00000001FF
