:1000000012C0A0C129C028C027C026C044C224C035
:1000100023C022C021C020C01FC01EC01DC01CC0E4
:100020001BC01AC019C011241FBECFEDCDBF10E0F8
:10003000A0E6B0E0EAECF5E002C005900D92AC3627
:10004000B107D9F710E0ACE6B0E001C01D92A138CD
:10005000B107E1F76BD1B7C2D3CFDF93CF93CDB761
:10006000DEB7CC50CDBFDE011196E0E6F0E09CE0BB
:1000700001900D929150E1F7FE01E80FF11D818191
:10008000C45FCDBFCF91DF91089520E03AEF90E2B9
:1000900011C0F89418BAF9013197F1F7F9013197C5
:1000A000F1F79ABF7894F9013197F1F7F901319797
:1000B000F1F78150882369F708951ABA1BBA8FE7C0
:1000C00087BB8FEF88BB80E781BB8CE482BB089540
:1000D00091E090BF82E083BF12BE16BE1CBE1FBC63
:1000E0009EBD12BC1DBC1CBC1BBC1ABC19BC18BCE0
:1000F00015BC14BC89BF089585B7807F8A6085BF11
:1001000010BC80E48BBF089580E888B911B881BD28
:10011000D4DFDEDFF1DF81E090E02AD28093760049
:10012000882321F4969A1092760008C0813011F449
:10013000969802C0969881E0809376008091760030
:10014000813049F480ED97E09093800080937F00A8
:100150001092750007C01092800010927F0083E01B
:100160008093750082E090E00BD2909378008093AA
:1001700077008091780087FD0CC0809178008A30EC
:1001800044F48091770087FD04C0809177008A3025
:1001900024F0109278001092770084E090E0F0D183
:1001A00090937A008093790086E090E0E9D1909373
:1001B0007C0080937B0088E090E0E2D190937E0009
:1001C00080937D0080917A0087FD2CC080917A0019
:1001D0008A3044F58091790087FD24C080917900B0
:1001E0008A3004F580917C0087FD1CC080917C00E2
:1001F0008A30C4F480917B0087FD14C080917B001D
:100200008A3084F480917E0087FD0CC080917E004E
:100210008A3044F480917D0087FD04C080917D0088
:100220008A306CF083E080937A00E9E7F0E0109286
:10023000790081E08383128284E08583148278943C
:10024000089580916D00813091F0813020F08230EE
:1002500009F06BC026C08091770090917800909350
:10026000700080936F0081E010DF81E017C0209163
:1002700077003091780080916F009091700028177E
:10028000390709F452C080917700909178009093DB
:1002900072008093710082E0F8DE82E080936D004E
:1002A00008952091770030917800809171009091AD
:1002B000720028173907C9F1809177009091780072
:1002C000909374008093730060916F007091700040
:1002D00084E090E066D1609171007091720086E0D8
:1002E00090E05FD1609173007091740088E090E0BD
:1002F00058D180916F009091700090937A00809314
:100300007900809171009091720090937C008093AD
:100310007B00809173009091740090937E00809395
:100320007D0083E0B2DE10926D000895EDDE85B7AA
:100330008F7A85BF85B7806285BF889585B78F7DA9
:1003400085BFF5CF78941F920F920FB60F921124AC
:100350002F933F934F935F936F937F938F939F93CD
:10036000AF93BF93EF93FF9380ED97E0909380005E
:1003700080937F00839917C0809178008F5F80936E
:100380007800809178008A3034F110927800809162
:1003900077008F5F80937700809177008A30DCF060
:1003A0001092770018C08091780081508093780077
:1003B0008091780087FF11C099E090937800809138
:1003C00077008150809377008091770087FF05C088
:1003D0009093770002C080E001C081E090917500A9
:1003E0009130B9F0913030F0923011F1933009F042
:1003F00041C036C08130E1F1209177003091780022
:100400008091790090917A002817390799F581E059
:1004100024C0882369F12091770030917800809181
:100420007B0090917C002817390721F582E015C0E8
:100430008130F1F0209177003091780080917D003B
:1004400090917E0028173907A9F4969A10927600A9
:1004500081E090E060E097D083E0809375000AC06F
:10046000969881E08093760081E090E061E08BD007
:1004700010927500FF91EF91BF91AF919F918F9175
:100480007F916F915F914F913F912F910F900FBE90
:100490000F901F9018951F920F920FB60F92112474
:1004A0002F933F934F935F936F937F938F939F937C
:1004B000AF93BF93EF93FF9380917F009091800063
:1004C000009799F1959A949A019790938000809360
:1004D0007F000097A9F481E090E06091760053D00E
:1004E000609177007091780082E090E05AD080911E
:1004F0007500833011F01092750010926D0027C0C6
:1005000080916E0091E0892780936E00882339F4F2
:1005100080917700A2DD806888BB959806C08091A5
:1005200078009BDD806888BB949880916C00B799B7
:1005300009C08F5F80936C00893C48F088EC809301
:100540006C0005C08B3018F010926C007ADEFF91C1
:10055000EF91BF91AF919F918F917F916F915F913B
:100560004F913F912F910F900FBE0F901F901895B4
:10057000E199FECF1FBA8EBBE09A99278DB30895FB
:10058000A8E142E013C0262FE199FECF1CBA1FBAA2
:100590008EBB2DBB0FB6F894E29AE19A0FBE01967E
:1005A0000895F1DF272FF0CFA82F862FE82FE199AC
:1005B000FECF1FBA05C0EEBBE09AE3950DB20D92D7
:0A05C0004150C8F70895F894FFCFEA
:0C05CA005F063B3766757D077F770040B9
:00000001FF
