:100000000C94F9000C9416010C9416010C94160132
:100010000C9416010C94B7210C9416010C94CA048C
:100020000C9416010C9416010C9479180C94A921C7
:100030000C949B210C9453180C9416010C941601EB
:100040000C9474210C9416010C9416010C94160156
:100050000C9416010C94CB040C9416010C9416010C
:100060000C9416010C9416010000140029003E00A7
:100070005300690080009700AE00C600DF00F80062
:1000800012012D01490165018201A001BE01DE01BD
:10009000FF012102440268028E02B502DE0209035A
:1000A000350364039403C803FE0337047304B404E4
:1000B000F90443059305EA054906B3062907AE0787
:1000C0004808FF08DE09BA03870358032E03070315
:1000D000E402C302A40288024E6F742063616C695B
:1000E0006272617465642120466F72FF63616C699E
:1000F00062726174696F6E20636C616D62207468F6
:10010000652033FF70696E7320746F67657468656E
:100110007220616E642073746172742077697468F0
:1001200020746865FF6B65792E2041636B6E6F7775
:100130006C65646765207468652073656C662D74F2
:10014000657374207769746820746865206B6579BD
:100150002077697468696EFF32732E204469736377
:100160006F6E6E6563742070696E7320616674656E
:100170007220746865FF6D6573736167652022691D
:10018000736F6C617465FF50726F62652122206924
:10019000732073686F776E2E20536F667477617269
:1001A0006520616E6420646F63756D656E74617443
:1001B000696F6E2069732061742073766E3A2F2FF9
:1001C000206D696B726F636F6E74726F6C6C6572A9
:1001D0002E206E65742F7472616E736973746F7202
:1001E00020746573746572200001041002082001F8
:1001F000020411241FBECFEFD8E0DEBFCDBF12E056
:10020000A0E0B2E001C01D92A23BB107E1F712E00D
:10021000A0E0B1E0EAEAF6E602C005900D92A03057
:10022000B107D9F70E949B090C9453330C9400003A
:1002300080FD5C9A80FF5C98549A00005D9A559A04
:10024000589859985A985B9864FD589A509A65FD49
:10025000599A519A66FD5A9A529A67FD5B9A539A37
:1002600000005D9845D287FD10C05D9A5898599856
:100270005A985B9860FD589A61FD599A62FD5A9AA6
:1002800063FD5B9A00005D9833D208958FEE8F5C1A
:100290001F93182F81E003C01F93182F80E0612F58
:1002A000C7DF1DD21F91089581E0F6DF82E023D2DF
:1002B00080E8F2DF089586E01ED280E860E3B8DFD0
:1002C00081E019D280E860E3B3DF03D280E860E325
:1002D000AFDFFFD180E860E2ABDF82E00CD280E2EA
:1002E000DBDF80E2D9DF8AE2D7DF88E0D5DFDCDF41
:1002F00086E0D2DF82E0D0DF81E0FDD18CE0CCDF90
:100300000895EF92FF92CF93DF93E82EE7017E01ED
:10031000F92EE70101C0BCDF89918823E1F7DF9165
:10032000CF91FF90EF900895CF93DF93EC01CE0132
:100330000E941233882329F0803819F0A9DF219612
:10034000F6CFDF91CF9108950F931F93CF93DF9353
:100350008C01C0E0D0E0C8018C0F9D1F0E941233B9
:1003600097DF2196C830D105B1F7DF91CF911F916A
:100370000F9108951F9314E189DF1150E9F71F9140
:10038000089580E889DF089580EC86DF089584E988
:1003900083DF089584ED80DF0895089597FF09C0F5
:1003A0008F939F938DE274DF9F918F9190958195AC
:1003B0009F4F6DE172E04AE050E00E94FC32A1DF05
:1003C0000895EF92FF920F931F93182F062FF42E8C
:1003D0008CE891E0A9DFEE24E0915802F0915902F7
:1003E0008485E81611F4812F09C08285E81611F47E
:1003F000802F04C08385E81611F48F2D49DFE39424
:100400008E2D833049F71F910F91FF90EF90089543
:100410000F93E7E2F2E0880F880F880FE80FF11DD5
:1004200060817181828193816436710581059105B6
:1004300070F420910002222351F4848165810E948E
:10044000E01EBC0180E090E04EEF03E002C04FEF01
:1004500004E024EF5BD01ADF0F9108950F938330EF
:1004600078F4E6EAF2E0E80FF11DE80FF11D608193
:100470007181812D912D4DEF26E503E047D006DFF8
:100480000F9108951F93182F80918002882319F0EF
:10049000FDDE80E0FDDE78DF82E991E045DF812F3F
:1004A00082958F70DBDF812F8F70D8DF1F910895C9
:1004B000DF92EF92FF920F931F93CF93DF93D09031
:1004C0000B028D2D82958F70CAE9D2E07E01E80E75
:1004D000F11CF7018081DBDE06EC11E0C80124DFAE
:1004E000F7018681D4DEC8011FDF8D2D8370C80F10
:1004F000D11D8E81CCDE80910B02C4DFDF91CF91C4
:100500001F910F91FF90EF90DF900895A0E0B0E071
:10051000ECE8F2E00C9485325B016C01942E822EA3
:10052000033009F4B5C0043039F450E1E52E57E248
:10053000F52E012D112D39C0053041F440EAE42E8D
:1005400046E8F42E41E0042F112D2FC0063041F46F
:1005500030E4E32E32E4F32E3FE0032F112D25C0CB
:10056000073041F420E8E22E26E9F22E28E9022F96
:10057000112D1BC094E6E92EF12C012D112D15C073
:1005800085E090E0A0E0B0E0A80EB91ECA1EDB1E18
:10059000C601B5012AE030E040E050E00E9442325E
:1005A000C901DA015C016D019394AE14BF04C00669
:1005B000D10630F7492D445F47FF02C040E003C039
:1005C000433108F042E1842F63E00E940F32E82EAD
:1005D000842F0E940F32F92E992321F0E39483E0B7
:1005E000891BF82E09E412E0C601B501A8012AE032
:1005F00030E00E94D732D8010D900020E9F78D013C
:100600000150104009541240202F30E08F2D90E00F
:100610000496821793071CF4E394B3E0FB0E8E2D2F
:1006200090E084589D4F0E941233D82E102F1F192E
:10063000111644F08EE20E944801112319F080E364
:100640000E944801FF2009F41FEFC1E0D0E0E12E35
:10065000FF24E7FCF0940DC0FE01E85BFD4F8081B4
:100660000E944801CE15DF0519F48EE20E94480170
:100670002196FE01E150E01778F3DD2019F08D2D71
:100680000E944801882059F0882D0E94480107C027
:1006900088EEE82E83E0F82E012D112D86CFCDB700
:1006A000DEB7ECE00C94A132089503D002D001D063
:1006B00000D000D003D002D001D000D0A89500D047
:1006C00003D002D001D000D000D003D002D001D09E
:1006D00000D000D003D002D001D000D000D003D091
:1006E00002D001D000D000D003D002D001D000D081
:1006F00000D00000089590E0893C28F0885C48EC28
:10070000849FC0011124009709F40895209181006D
:10071000277019F0DADF019716C08130910519F0C2
:1007200002973CE803C03EE380E090E02091B200F5
:10073000230F2093B30042E04093700027E023BFD3
:10074000889526E023BFA895DECF8F9384E0D3DF82
:1007500007C08F9382E0CFDF03C08F9381E0CBDFB0
:100760008F911F93182F106410937C00E12FE07875
:1007700080914002E81759F0E0934002AFDF8FE923
:1007800080937A0083E083BF889582E083BF20E076
:1007900030E0A901E0E01FC08FE980937A0083E098
:1007A00083BF889582E083BF609178007091790063
:1007B000260F371F411D511DE43061F48091420224
:1007C000803041F084E02030380720F417FD02C06B
:1007D0001068CACFEF5F80913F02E817E8F260919E
:1007E00043027091440217FF04C06091410270916E
:1007F000420280E090E00E94F0312FEF33E040E0D1
:1008000050E00E944232B901CA0120913F0230E01B
:1008100040E050E00E944232C9011F910895EF92DA
:10082000FF920F931F93CF93DF937C0114E64F99B0
:1008300024C081E00E947B031150C8F71EC082E0F3
:100840000E947B03802F880F4F9B8F5F082F0F73B1
:100850000F3341F4112311F4E70114E01F5F16393F
:1008600028F010C0002311F4112361F4A8951C1680
:100870001D0634F42A9721F405C0E70110E005E5D0
:10088000D7FFDDCF812FCDB7DEB7E6E00C94A732DE
:1008900088E893E10E940F040E94C4010E94BA01FB
:1008A0000E94C40108958AE992E00E941233382F11
:1008B0008BE992E00E94123320914702230F30917E
:1008C0004802381F209314023093150283E0283E1B
:1008D000380720F0C901885E934002C080E090E0B4
:1008E00062E370E00E941B32683008F067E0E6ECDB
:1008F000F0E0E60FF11DE60FF11D459155912591B0
:10090000359162E3681B421B530B649FC001659FD6
:10091000900D1124499662E370E00E941B32620F31
:10092000731F709383026093820289E992E00E94B0
:100930001233992787FD9095609147027091480284
:10094000860F971F909342028093410290937F02FB
:1009500080937E020895CF93DF9324E130E0B901C4
:100960000E941B32DC01E8E6F0E0E60FF71FE60F1D
:10097000F71FC591D591459155914C1B4A9FC001D8
:100980001124B9010E941B326C0F7D1FCB01DF9136
:10099000CF910895189518950F93CF93DF93E82F73
:1009A000F0E0E151FE4FE491E8B9E7B915B8E62F60
:1009B000F0E0E451FE4FE491E4B9862F0E94AD03CC
:1009C000EC010097F9F080EC91E00E949401BE01E7
:1009D00080E090E020EA36E841E050E00E94F0310B
:1009E00028E937EB40E050E00E94423240E050E01E
:1009F000CA01B90147EF21E402E00E94860217B85C
:100A000018B814B8DF91CF910F91089580915402D6
:100A1000882369F48CE992E00E941233682F6F5F9B
:100A20008FE992E00E94203381E080935402089580
:100A30001F93CF93DF93162F17B818B8E82FF0E065
:100A4000E751FE4F949195B9E62FF0E0E751FE4F44
:100A5000E491E92BE4B90E94B103EC01812F0E94DB
:100A6000B103209143023091440236952795B90194
:100A7000615270406C177D0778F4A901455E5F4FA5
:100A8000C417D50748F46817790730F420E08417B5
:100A9000950718F421E001C020E014B8822FDF91FF
:100AA000CF911F9108950F931F9380E061E00E9402
:100AB0001805082F80E062E00E941805182F81E0D9
:100AC00062E00E941805100F810F1F910F91089589
:100AD000AEE0B0E0EEE6F5E00C947F321092180242
:100AE000882E9924807FB9F40E945305833009F041
:100AF0001EC40E9454018CEB90E00E9494010E945D
:100B0000C4018FE30E94480180ED97E00E940F042A
:100B10008B3000F518C000E010E00E94540187E51A
:100B200091E00E9494010E945305833011F010E07F
:100B300003C01F5F143070F488E20E947B030F5FD4
:100B4000063959F77AC00E94540188ED91E00E945D
:100B50009401EDC30E94C4018EE192E00E949401D1
:100B600085EA92E060E00E94203386EA92E060E04D
:100B70000E94203384EA92E060E00E94203382E009
:100B800060E00E94E01E9A83898382E061E00E9417
:100B9000E01E9C838B8381E060E00E94E01E6C017C
:100BA0009E838D83A980BA80B501882777FD8095C3
:100BB000982F4EEF20E203E00E9486026B817C8139
:100BC000882777FD8095982F4EEF20E20E948602BD
:100BD000EE24D7FCE094FE2CC701B6014EEF24EFC3
:100BE0000E9486022AE5A216B10424F084E190E076
:100BF0009A83898385EA92E069810E9420338B8100
:100C00009C818A35910524F084E190E09C838B835C
:100C100086EA92E06B810E9420338D819E818A3525
:100C2000910524F084E190E09E838D8384EA92E034
:100C30006D810E9420330E9448044FE0442E512CC5
:100C40004820592081E04816510409F070C131E074
:100C5000A32EB12C22E0822E98E0992E80E2782EED
:100C60005DC10E94C4010E94BA010E94C1010E949C
:100C7000BA010E94C10184E50E944801C5010E9499
:100C8000D9010E94460191E0D91601F50E949C1BF2
:100C90008AEE91E00E9494016091470270914802AF
:100CA00080E090E04DEF26E504E00E9486020E947D
:100CB000C4018FEE91E00E94940180918202909194
:100CC00083020E94D90120923F020CC1E2E0DE16AD
:100CD000A1F5609143027091440280E090E028E524
:100CE0003BE140E050E00E94F03124EC36E340E08C
:100CF00050E00E94643279018A0181E085B9F5E013
:100D0000F4B980E00E94A5038E199F099A83898314
:100D100021E124B980E00E94A5038E199F099C83DC
:100D20008B8365B834B881E00E94A5038E199F09B2
:100D30009E838D838CEF91E0BDC083E0D81671F562
:100D400085B89AE094B980E00E94A50320914302FF
:100D5000309144023695279538872F83821B930B59
:100D60009A838983E2E2E4B980E00E94A5039C01B2
:100D70008F819885281B390B3C832B8395B8F8E22B
:100D8000F4B981E00E94A5039C018F819885281BFE
:100D9000390B3E832D838AE092E08CC024E0D2168A
:100DA00061F48CEC90E00E9494010E94530588232A
:100DB00009F486C012E0C12E83C085E0D816B1F4D4
:100DC00015B884B880E00E94A5039A83898394B8FB
:100DD00081E00E94A5039C838B8374B882E00E940B
:100DE000A5039E838D8384EF91E064C096E0D916BD
:100DF00051F584B885B880E00E94A5032091430294
:100E000030914402821B930B9A83898394B895B8DE
:100E100081E00E94A5032091430230914402821B8D
:100E2000930B9C838B8374B875B882E00E94A503F2
:100E30002091430230914402821B930B9E838D8349
:100E400088EF91E037C0E7E0DE16B9F56091430224
:100E50007091440280E090E028E53BE140E050E002
:100E60000E94F03128EB32ED47E450E00E9442321C
:100E700079018A0185B8F3E0F4B980E00E94A50306
:100E80008E199F099A83898395B82CE024B981E053
:100E90000E94A5038E199F099C838B8375B880E3FC
:100EA00084B982E00E94A5038E199F099E838D83D9
:100EB00088E192E00E94940103C091E0D91691F07C
:100EC0000E94C40189819A810E94CE010E9446013C
:100ED0008B819C810E94CE010E9446018D819E8162
:100EE0000E94CE0117B818B814B815B888EE93E070
:100EF0000E940F04E4E0DE1611F08B3028F4C39456
:100F0000F3E0FC1508F0ADCE88EC0E947B0308945A
:100F1000A11CB11C28E0A216B10449F0CC24DA2CA3
:100F2000B4E06B2EA4E13A2EFEEB2F2E9ACE10E009
:100F30000E945305882381F00E94C4010E94BA01D7
:100F40000E94C4018CEC90E00E94940184E60E940F
:100F50007B031F5F183761F70E94540182E292E021
:100F60000E949401609145027091460280E090E0F9
:100F70004FEF24EF03E00E9486020E94C40189E241
:100F800092E00E949401609155027091560280E0B7
:100F900090E04FEF24EF0E9486020E9448041092D6
:100FA00018020E94540180E392E00E94940182E0C2
:100FB00060E00E949B1880918C0290918D029C872A
:100FC0008B8782E061E00E949B1880918C02909157
:100FD0008D029E878D8781E060E00E949B18809142
:100FE0008C0290918D029E838D8380E062E00E944E
:100FF0009B1880918C0290918D029C838B8381E061
:1010000062E00E949B1880918C0290918D029A87D9
:10101000898780E061E00E949B1880918C0290910A
:101020008D029A83898398878F836B857C85882737
:1010300077FD8095982F40E020E20E9486026D8522
:101040007E85882777FD8095982F40E020E20E94DA
:1010500086026D817E81882777FD8095982F44EFE9
:1010600026E40E9486026E010894C11CD11C760100
:101070009E01215F3F4FF701808191810A97853B57
:101080009105F0F482E090E0E80EF91EE216F30616
:1010900091F70CE912E0F60160816E5EC8010E94D2
:1010A000203382E090E0C80ED91E0F5F1F4FCE1490
:1010B000DF0489F70E94C4018BE691E00E9494014D
:1010C0000E94480491E04916510429F0809154028D
:1010D000823009F0F4C0EE24FF24E4E8CE2EE2E0F2
:1010E000DE2E0E94540180E00E94470180EA91E0D8
:1010F0000E94940182E00E94470183E892E00E94EE
:1011000094011092180282E060E00E949B186091A6
:1011100084027091850280918602909187021091DD
:1011200096020BC02AE030E040E050E00E944232DC
:10113000C901DA01BC01CD011F5F173F9CF3609329
:101140008402F60171838283938310939602173F82
:1011500009F09CC0603671058105910508F496C0C0
:10116000605F75458040904008F090C060919802A3
:10117000709199022FEF6B3672070CF487C06639B5
:1011800071050CF083C0F39484E08F1508F07FC0E4
:101190008AE992E00E942E330E9454018BE892E08B
:1011A0000E94940180919802909199020E94CE0130
:1011B0000E94530418B881E087B980E284B982E0C4
:1011C0000E94B103855D9340D4F714B81092420297
:1011D0001092410282E00E94B1039A838983809138
:1011E0007E0290917F02909342028093410282E0BE
:1011F0000E94B1039C01220F331F3C832B8310926A
:1012000042021092410282E00E94B1039E838D83CC
:1012100020917E0230917F0230934202209341025E
:10122000EB80FC8069817A816E197F09680F791FD4
:10123000882777FD8095982F40E050E00E94F0319C
:101240000027F7FC0095102FA80197010E94643237
:10125000022F0E94C40182E992E00E94940189E970
:1012600092E00E941233182F1D5F100F89E992E05F
:10127000612F0E942033812F992787FD90950E942E
:10128000CE010E9453040E94480419C0FF240E940A
:10129000C4016091840270918502809186029091D0
:1012A00087024091960226E404E00E94860288E2CA
:1012B0000E947B03E394F0E4EF1609F012CF109242
:1012C00054028CE00E944C0189E180933F020E940D
:1012D000540188ED91E00E9494010E94C4018CEDBC
:1012E00090E00E94940184E392E00E94940118B877
:1012F00081E087B984E184B900E060E1E62E54E042
:10130000F52E0FC0F5B80E946403E5B80E9464038F
:10131000A8951F5F1436B1F74F9B05C00F5F0E31C4
:1013200011F010E0EFCF109218020E9448042E96A0
:10133000E2E10C949B326F927F928F929F92AF92D8
:10134000BF92DF92EF92FF920F931F93DF93CF93A1
:10135000CDB7DEB728970FB6F894DEBF0FBECDBF6E
:10136000FE01319688E0DF011D928A95E9F780E45D
:101370008AB98BB987E880937A001092C10014B7BC
:1013800084B7877F84BF88E10FB6F89480936000AC
:10139000109260000FBE86E88093640088E380931B
:1013A0007E001092B00087E08093B10078940E9494
:1013B0005B0113FF0BC00E94C10183EB90E00E9410
:1013C00094018BEC0E947B035E989FC588E40E9489
:1013D0004C018CE492E00E94A40180E50E944C0143
:1013E00084E592E00E94A40188E50E944C018CE50E
:1013F00092E00E94A40188E70E944C0184E692E0FA
:101400000E94A40180E70E944C018CE692E00E94B9
:10141000A40180E40E944C0184E792E00E94A401B0
:1014200080E185BF10E04F9906C082E00E947B03F7
:101430001F5F1C33C1F78FE59DE6909311028093E7
:1014400010021F3130F080E69DE6909311028093E8
:101450001002109240020E949C1B1C3310F00E944C
:101460009B265E010894A11CB11C8AE5682E82E0CF
:10147000782E0CE6802E02E0902E10921802109228
:1014800016021092790210926702109217021092BF
:1014900057020E94540117B81092800210929402D1
:1014A00010929502109200020E949C1B0E94C101A2
:1014B00085E00E94B10385E00E94AD039093710224
:1014C0008093700288ED91E00E9494010E94460191
:1014D00080E190E0B5014AE050E00E94B632C501DB
:1014E0000E9481018DE40E9448010E9446016091A2
:1014F000700270917102675E7F4F660F771F660FF3
:10150000771F80E090E0609384027093850280935F
:101510008602909387024DEF26E502E00E94860244
:101520000E9446018091700290917102B6E08A3F5C
:101530009B0778F48353964048F48AE690E00E9433
:1015400094018AEC0E947B031BB8DFC485E690E01F
:1015500002C08BE691E00E9494018FE028E130E028
:101560000FB6F894A895209360000FBE809360009A
:10157000809157028823A1F00E94C4018AEA91E079
:101580000E949401609143027091440280E090E0D7
:101590004DEF26E503E00E94860288EC0E947B0363
:1015A0000E94C4010E94841780911802883091F52E
:1015B0000E94540184EA91E00E9494010E94C401B7
:1015C000609101027091020280E090E04DEF26E50B
:1015D00003E00E9486020E9446016091030270911E
:1015E000040280E090E04DEF26E50E9486020E9412
:1015F0004601609105027091060280E090E04DEF97
:1016000026E50E9486028AEC0E947B0381E10E940B
:10161000680546C48CE00E944C018FE992E00E946C
:101620001233182F8CE992E00E941233181B10938A
:101630005402112319F08EE00E944C0180E00E94B8
:1016400068050E94C4018AE590E00E94940180E050
:1016500061E042E00E949B0F81E060E042E00E9476
:101660009B0F80E062E041E00E949B0F82E060E01F
:1016700041E00E949B0F81E062E040E00E949B0FEE
:1016800082E061E040E00E949B0F909180029923EC
:1016900079F0E92FF0E0B3E0EE0FFF1FBA95E1F724
:1016A000E15EFD4F8781882319F491509093800269
:1016B000809118028823E1F483E40E9448010E948B
:1016C0008417109288021092890210928A02109256
:1016D0008B0284EF8093970282E060E00E949B1867
:1016E00082E061E00E949B1881E060E00E949B180C
:1016F0000E9454017092590260925802809118021F
:10170000853041F485E890E00E94940183E467E429
:1017100041E409C08630A1F48FE790E00E94940173
:1017200081E367E442E30E94E1010E94C40182E98F
:1017300091E00E94940160915E0270915F02A9C3E2
:10174000873009F04EC0809194020E94470180EAE0
:1017500091E00E949401809195020E9447010E94AD
:10176000C3208091920290919302892B79F085EBAE
:1017700091E00E949401609192027091930280E046
:1017800090E04FEF25E202E00E9486020E94C40131
:10179000609188027091890280918A0290918B02F7
:1017A0004091970226E404E00E948602809195020F
:1017B000609194020E94E01E9093910280939002A7
:1017C0008A5F9F4F08F06CC38FEA91E00E949401FA
:1017D000609190027091910280E090E04EEF24EFD2
:1017E0005CC3823009F0EAC0809116028130E1F5D5
:1017F00090919A028091A002981750F4892F0E942C
:10180000470186EC91E00E9494018091A00208C0FB
:101810000E9447018AEC91E00E94940180919A0213
:101820000E9447018091A00260919A020E94CC041C
:1018300080E70E9442028EE791E00E94940180912D
:10184000A00260919A020E949B186091840270919C
:10185000850280918602909187024091960226E44B
:1018600003E00E94860238C3823009F047C082E359
:101870000E9448018EEC91E00E94940180919A02AE
:1018800030919B02831799F48091A0020E94470136
:101890008AEC91E00E94940180919A020E94470193
:1018A00086EC91E00E9494018091A10216C0909173
:1018B000A0022091A1029217B1F40E94470186EC88
:1018C00091E00E9494018091A0020E9447018AEC5D
:1018D00091E00E94940180919B020E94470181E067
:1018E0000E944202F9C2931711F481E004C0281744
:1018F00009F04EC080E180930B0247C0833009F0AD
:1019000047C083E380930B029091A00280919B02D9
:10191000981719F481E080930B0290919A028091BC
:10192000A102981719F480E180930B029091A00214
:1019300080919C02981719F482E080930B02909199
:101940009A028091A202981719F480E280930B0208
:101950009091A10280919C02981719F482E18093E2
:101960000B0290919B028091A202981719F481E2D8
:1019700080930B0280910B02823250F483E30E9429
:1019800048018EEC91E00E9494010E945802A4C28A
:101990008AE790E00E9494018EE890E00E94940112
:1019A0000E94C40187EA90E00E949401809116028F
:1019B000805D0E94480186EC91E066C2833009F0A8
:1019C000F9C080917902882399F180916702882378
:1019D00079F180916602609164020E949B18E09008
:1019E0008402F09085020091860210918702D090C7
:1019F000960280917602609178020E949B188091F5
:101A00009602D81671F48091840290918502A0917B
:101A10008602B0918702E816F9060A071B0718F03C
:101A200004C0D81614F48DE001C08CE08093170236
:101A300080917902882379F080916702882359F098
:101A40004F9909C0809117028C3011F48DE001C0CC
:101A50008CE080931702809117028C3061F484E847
:101A600091E00E94940180917902882399F080E7A7
:101A70000E9448010FC088E891E00E949401809183
:101A80006702882319F08EE60E944801909259025D
:101A9000809258020E94460110E029C0A12FB0E0B8
:101AA000E0915802F09159029285A656BD4F8C9153
:101AB0008917E1F016968C918917C1F08091170271
:101AC0008C3039F49091650280916602891738F064
:101AD00009C09091770280917802981718F486ECEB
:101AE00091E002C08AEC91E00E9494011F5F809116
:101AF0001602181798F285E462E443E40E94E101BB
:101B00000E94C401E0915802F091590286819781A8
:101B1000892B99F08EED91E00E949401E09158029A
:101B2000F09159026681778180E090E04BEF21E4EB
:101B300003E00E9486020E944804E0915802F0915E
:101B4000590280859185892B99F084EE91E00E945D
:101B50009401E0915802F09159026085718580E00E
:101B600090E04BEF21E403E00E9486020E944804CB
:101B700081E891E00E949401E0915802F0915902AD
:101B8000608171818281938140E020E003E00E94C6
:101B900086020E94460182E991E00E949401E09150
:101BA0005802F09159026481758180E090E04DEF18
:101BB00026E574C1843009F0C0C08091170284FF0B
:101BC00008C080E50E944801909259028092580214
:101BD00003C08EE40E9448018DE20E94480180917A
:101BE0001702182F1F70143019F483E791E013C007
:101BF00085FF02C084E401C085E40E9448011330DF
:101C000041F488E791E00E94940185E467E443E4AD
:101C100007C08EE691E00E94940183E567E444E406
:101C20000E94E10180911602813009F045C0809147
:101C3000170284FF09C020E030E090917702809184
:101C40007802981758F408C020E030E090916502BF
:101C500080916602891710F421E030E0122F2223D0
:101C600011F081E001C082E00E9448010E94C4019D
:101C7000112359F080919A020E94470186EC91E06D
:101C80000E9494018091A0020AC08091A0020E944B
:101C900047018AEC91E00E94940180919A020E948F
:101CA00047010E94460182E991E00E94940180E090
:101CB0000E942E020E9448040E94C40180911702D3
:101CC00085FD1DC08EE791E00E949401E0915802CD
:101CD000F0915902828564850E949B18609184026C
:101CE00070918502809186029091870240919602C0
:101CF00026E403E00E94860286E991E015C089E4AB
:101D00000E9448018DE30E944801E0915802F09141
:101D100059026681778180E090E04BEF21E402E098
:101D20000E9486028BE991E00E949401E0915802A2
:101D3000F091590260857185ACC060918002662384
:101D400009F496C0613071F480912C020E94470121
:101D500083ED91E00E94940180912B020E94470143
:101D600010E054C020912F02309130024091310296
:101D7000509132028091270290912802A09129026D
:101D8000B0912A02623069F110E082179307A4072C
:101D9000B50708F411E0E12FF0E0A3E0EE0FFF1F1C
:101DA000AA95E1F7E95DFD4F2091370230913802A5
:101DB0004091390250913A0280819181A281B38190
:101DC00082179307A407B50760F0113029F081E36B
:101DD00003E372E3F72E0AC081E302E363E3F62E26
:101DE00005C082E301E353E3F52E12E00E944801AF
:101DF00083ED91E00E949401802F0E94480183EDC1
:101E000091E00E9494018F2D0E9448010E94C4011C
:101E1000809180028130D1F40E94861C80E00E9473
:101E20000802809100028823D9F18DEB91E00E9495
:101E300094016091070270910802809109029091CB
:101E40000A024091000228E403E028C0112311F4A3
:101E500081E003C0113039F480E00E94080282E082
:101E60000E9408021DC080E00E94080281E0F8CFB5
:101E700087E990E00E9494010E94C40181E790E00C
:101E80000E9494018AE790E00E94940128E833E1DF
:101E90000BC080E090E04DEF26E502E00E94860254
:101EA000209110023091110280E187B94F9BFECF43
:101EB000C9010E940F04823318F00E949B26DDCADC
:101EC000882309F0DACA8CE00E944C015E9880E019
:101ED00090E00E940F0419C080918002882301F3D2
:101EE00080E187B980911002909111020E940F0445
:101EF00017B80E94540180911602805D0E9448012B
:101F00008EEC91E00E94940118CF80E090E028963A
:101F10000FB6F894DEBF0FBECDBFCF91DF911F91FA
:101F20000F91FF90EF90DF90BF90AF909F908F90B8
:101F30007F906F900895A5E1B0E0E1EAFFE00C9496
:101F40007F32898B6A8B4B8BA895262F30E0F90165
:101F5000E751FE4F54915F87F901E451FE4F8491A0
:101F60008E879B89692F70E0CB0187519E4FFC01C2
:101F7000F491FD8764517E4FFB01F491FC87498900
:101F8000642F70E0CB0187519E4FFC01F491FB87D9
:101F9000CB0184519E4FFC01F491FA8761517E4F31
:101FA000FB01F491F98721513E4FF901F491F88733
:101FB0002D8525B9252B288B24B9398537B938B912
:101FC0008A890E94AD039F838E834F8544B98A8995
:101FD0000E94AD032C0114B80E94650315B85889FE
:101FE00054B98A890E94AD039C018E819F81281774
:101FF000390750F5205E3E4F8217930708F472C4EC
:10200000988597B918B8AB85A5B98A2FBD858B2B54
:1020100084B9E0914302F0914402FF83EE83898901
:102020000E94AD032E813F81281B390B3F832E83F5
:102030003B8534B9409043025090440289890E9404
:10204000AD03481A590A08C08E819F81805E9E4F59
:102050002817390708F446C43091670220917902A5
:10206000832F90E0820F911D029754F0313009F0D8
:1020700039C49091640280917602981709F032C4B5
:102080004E815F814437510508F4BAC0CA01880FF8
:10209000991F44964816590608F0B2C0598557B999
:1020A00058B98C859F85892B84B98A890E94A90398
:1020B0007C018B890E94B1038C01AC85A5B98A890A
:1020C0000E94A9039701295A3D4F4B85BC854B2B94
:1020D0002817390708F03FC018B8E885E7B944B9B0
:1020E00045B98B890E94A90388549F4028F084E059
:1020F0008093180282E204C084E08093180284E294
:1021000080931702F0925F02E0925E020E151F05A7
:1021100040F4C701801B910B90936302809362028D
:1021200004C01092630210926202B70180E090E056
:1021300028EE33E040E050E00E94F031209112029E
:102140003091130240E050E00E944232309361022D
:1021500020936002BFC318B8288527B944B945B990
:1021600089890E94A9038C018B890E94B1037C019B
:102170003B8535B989890E94A903895A9D4F8017EB
:10218000910708F0AFC3498548B947B98B890E94C8
:10219000A903815D934028F484E08093180282E3D0
:1021A00004C084E08093180284E3809317020E1524
:1021B0001F0538F4E01AF10AF0927502E0927402F9
:1021C00004C01092750210927402609143027091E3
:1021D0004402601B710B80E090E028EE33E040E0A9
:1021E00050E00E94F0312091190230911A0240E033
:1021F00050E00E944232309373022093720272C107
:1022000018B8888587B99B8595B9AD859A2B9D832C
:1022100094B989890E94AD031C0100914302109179
:1022200044028B890E94B1033C018A30910590F5EC
:1022300014B881E00E947B038B85EC858E2B84B9DA
:1022400089890E94AD031C01E0904302F090440292
:10225000E81AF90A8B890E94B1033C0100E010E002
:102260002091190230911A0240E050E060E677EBCD
:1022700087E490E00E944232C801B7010E94F03129
:10228000930140E050E00E944232C901DA015C0152
:102290006D010BC002191309C80186199709B30112
:1022A0000E941B325B01CC24DD2414B815B8F985DB
:1022B000F8B9F7B981E00E947B0329EB421627E0C9
:1022C000520608F00FC3388934B98A890E94AD03D9
:1022D0008F559D4008F40CC114B881E00E947B0327
:1022E0005C858F85582B5C8354B98A890E94AD0325
:1022F0008C018B890E94B1034C0189890E94B10332
:102300009D8B8C8B91ED891697E0990608F494C00B
:1023100083E0809318028DE08093170240165106E7
:1023200010F404191509780100E010E02091120260
:102330003091130240E050E060E677EB87E490E0F4
:102340000E944232C801B7010E94F031940140E07E
:1023500050E00E94423279018A01809179028823FB
:1023600079F080916C0290916D02A0916E02B09113
:102370006F028E159F05A007B10710F020E011C075
:10238000E0926C02F0926D0200936E0210936F0265
:10239000AC89BD89A819B909B0937102A0937002E4
:1023A00021E080916C0290916D02A0916E02B0913B
:1023B0006F028A159B05AC05BD0578F4A0926C02EE
:1023C000B0926D02C0926E02D0926F02261837084A
:1023D000309271022092700203C0222309F456C584
:1023E000B20180E090E028EE33E040E050E00E944F
:1023F000F031E0901202F090130200E010E0A8012A
:1024000097010E9442323093730220937202EE8150
:10241000FF81BF0180E090E028EE33E040E050E033
:102420000E94F031A80197010E9442323093750258
:102430002093740221E02AC5F1E64F16510408F0FA
:1024400057C027E0013D120708F452C084E0809392
:10245000180282E18093170206501F4F4C895D8954
:102460000417150718F483E1809317020885077095
:102470008B89806480937C0010E081E0C82ED12C91
:10248000BFEFEB2EB3E0FB2EA8958D8561E00E9497
:1024900069175C8154B986B18023E9F38F8584B9CB
:1024A00080917A00806480937A0080917A0086FD22
:1024B000FCCF8091780090917900D701A81BB90BCF
:1024C000CA0EDB1E1F5F1B30F9F6C601880F991F6D
:1024D000880F991F69E070E00E941B3270937502AB
:1024E00060937402809179028F5F80937902A2CF0A
:1024F000B889B4B9ED85E5B98A890E94AD039B839B
:102500008A838B890E94B1031C0160914302709100
:102510004402681B790B6A307105B8F514B881E084
:102520000E947B038C85FF858F2B84B92C8525B970
:102530008A890E94AD039B838A838B890E94B103A1
:102540001C014A815B817A0100E010E020911202B7
:102550003091130240E050E060E677EB87E490E0D2
:102560000E944232C801B7010E94F031209143021B
:10257000309144022219330940E050E00E94423277
:10258000C901DA013C014D0109C08A819B81861B8A
:10259000970B0E941B323B0188249924588557B918
:1025A00018B88D8184B985B989890E94AD039D8B46
:1025B0008C8B8B890E94B1037C018A890E94B103B4
:1025C0005C01AC89BD89A054B64008F089C1FB8587
:1025D000F5B989890E94AD036C012B8524B98989DD
:1025E0000E94AD038C0115B881E00E947B033B85FE
:1025F00035B989890E94AD0346E00034140708F01C
:102600005CC08153914108F458C08C899D898A56D9
:102610009F4FC816D90608F050C085E08093180275
:10262000809167028F5F80936702EA18FB08F0923F
:102630005F02E0925E028C899D898A199B099093C2
:1026400063028093620214B815B8988598B981E046
:102650000E947B03AB85A4B989890E94AD03853FA5
:10266000910508F024C4BD81B4B98B890E94AD03E3
:10267000815D934008F41BC489890E94B1038D5D7C
:10268000924008F414C42B8524B989890E94AD03B3
:102690008D5D924008F40BC44B8545B981E00E94E2
:1026A0007B0315B889890E94AD03853F910508F029
:1026B000FEC386E080931802FAC35B858C85582B95
:1026C000598354B955B989890E94A5038C01E090BA
:1026D0004302F0904402E81AF90A8B890E94B10380
:1026E0006C01A0914302B0914402A81BB90BBD8BB1
:1026F000AC8B8A890E94B1035C01EC89FD89EE5F95
:10270000F94008F496C083E0809318028CE080932F
:1027100017024E145F0410F4E418F50800E010E00E
:102720002091190230911A0240E050E060E677EB08
:1027300087E490E00E944232C801B7010E94F03164
:10274000AC89BD899D0140E050E00E944232790190
:102750008A0180916702882379F080915A029091D2
:102760005B02A0915C02B0915D028E159F05A007EF
:10277000B10710F020E00FC0E0925A02F0925B0225
:1027800000935C0210935D02CA18DB08D0925F02CE
:10279000C0925E0221E080915A0290915B02A0916A
:1027A0005C02B0915D0286159705A805B90588F40D
:1027B00060925A0270925B0280925C0290925D027B
:1027C000EA81FB812E1A3F0A30925F0220925E025C
:1027D00003C0222309F46CC3B20180E090E028EE2C
:1027E00033E040E050E00E94F0312091120230913D
:1027F000130240E050E00E94423230936102209385
:1028000060022E813F81B90180E090E028EE33E044
:1028100040E050E00E94F0312091190230911A02FC
:1028200040E050E00E944232309363022093620203
:102830003EC331E64316510408F052C049E4E416A1
:102840004DE0F40608F44CC084E08093180282E066
:10285000809317028AEF90E0A80EB91EA016B10669
:1028600018F483E080931702098507708B898064D0
:1028700080937C0010E0F1E0EF2EF12CA8958D857F
:1028800060E00E946917998194B995B986B1802357
:10289000E9F7AB85A4B980917A00806480937A00CF
:1028A00080917A0086FDFCCF80917800909179002C
:1028B000E80EF91E1F5F1B3009F7C701880F991F2B
:1028C000880F991F69E070E00E941B3270936302C9
:1028D00060936202809167028F5F80936702E7C214
:1028E00017B818B814B815B817B8B7EC4B16B1E04C
:1028F0005B0608F4AFC018B810E00885E9850E2B18
:1029000007B981E00E947B03F885F7B989890E94A5
:10291000B103429718F01F5F183C91F72A8524B93C
:1029200025B98D8561E00E94691789890E94AD03F0
:102930006C013E8534B915B8498547B948B98D85CC
:1029400060E00E946917A0904302B09044028A8917
:102950000E94AD038C015F8554B989890E94AD0343
:102960004C018A890E94B103881A990A18B888858F
:1029700087B99B8594B995B98D8561E00E946917E7
:1029800089890E94AD037C018A890E94B103E81AFB
:10299000F90A8E149F0448F4AA85A4B9A5B98989B7
:1029A0000E94AD038C01470116C06501C01AD10A0F
:1029B000BE85B4B915B8E985E7B9E8B98D8560E099
:1029C0000E94691700914302109144028A890E9473
:1029D000AD03081B190BC4018759904089589141D8
:1029E000C8F508151905B0F5C60173E096958795E9
:1029F0007A95E1F7893C910510F088EC90E08C0D18
:102A00009D1D8815990530F5C40164E0969587955C
:102A10006A95E1F78C159D05E8F4809118028230E3
:102A200018F482E08093180280911602E82FF0E0FB
:102A30009F0126563D4F4989D9014C935A891696D4
:102A40005C93EE0FFF1FEA55FD4F918280828F5FEE
:102A500080931602209167028091790290E0820FA4
:102A6000911D892B09F00AC2A8958091430290918B
:102A70004402880F991F880F991F909344028093F6
:102A800043028091410290914202880F991F880F62
:102A9000991F90934202809341028EEB80933F02F4
:102AA00018B8888587B99B8594B995B9FF24F394A4
:102AB00000E010E08A890E94AD036C0189890E94C0
:102AC000B1031C01801B910B97FF03C0909581956A
:102AD0009F4F03975CF415B8AA85A4B989890E9411
:102AE000AD038135910508F0B2C107C0A895F394F4
:102AF0008101B9E1FB16F1F6AAC1EA85E5B9898938
:102B00000E94AD033C01F985F7B9F8B915B82F85D6
:102B100024B9FF24F39400E010E089890E94AD03FA
:102B2000E82E592E8A890E94B1035C01801B910B0B
:102B300097FF03C0909581959F4F039764F43E855E
:102B400034B98A890E94AD034C0140EC241644E458
:102B5000340648F00FC0A895F39459E1F51609F42E
:102B600076C18501DACF85E8681681E0780608F03D
:102B70006EC106C090EB69169DE4790608F067C146
:102B8000A4EAAA16A2E0BA0608F06FC0B8E98B164C
:102B9000910408F45CC1E0904302F0904402B30158
:102BA00080E090E028E937EB40E050E00E94F0310F
:102BB00097012619370940E050E00E94423259013E
:102BC0006A01E818F90800E010E0C801B70128E937
:102BD00037EB40E050E00E94F031940140E050E0DB
:102BE0000E944232B901CA01E8E76E16EFE07E06A4
:102BF00040F422E0AA0CBB1CCC1CDD1C2A95D1F7AA
:102C00000CC0F8E78F16FFE09F06B0F4B2E0660F45
:102C1000771F881F991FBA95D1F76A0D7B1D8C1DF0
:102C20009D1D25E030E040E050E00E944232C901A5
:102C3000DA01BC01CD0108C06A0D7B1D8C1D9D1DF4
:102C4000969587957795679524E630E040E050E0CB
:102C50000E94F0315B016C012CEA3DE040E050E065
:102C6000A20EB31EC41ED51E76C0A101C214D30489
:102C700008F4A6018E2D952D9C0169012A153B05AE
:102C800008F465014A014215530508F44101B401F5
:102C9000641B750B80E090E02091190230911A02BC
:102CA00040E050E00E94F031209143023091440214
:102CB0002819390940E050E00E94423279018A0126
:102CC0003601AC14BD0408F43501C618D708B601A6
:102CD00080E090E0209112023091130240E050E039
:102CE0000E94F031930140E050E00E944232B9016D
:102CF000CA0138E783163FE0930640F4F2E0EE0C99
:102D0000FF1C001F111FFA95D1F70CC048E764168D
:102D10004FE07406B0F4E2E0660F771F881F991F3A
:102D2000EA95D1F76E0D7F1D801F911F25E030E0E1
:102D300040E050E00E944232C901DA015C016D01BD
:102D40000AC05B016C01AE0CBF1CC01ED11ED69424
:102D5000C794B794A7949090180252E0591508F4BC
:102D600076C020918002222309F458C081E090E0CF
:102D7000821B910943E0880F991F4A95E1F7662469
:102D80007724681A790A87E292E0680E791ED301E7
:102D900016968C91BB898B17D1F5F301E080F180F9
:102DA00002811381C601B5016E197F09800B910B59
:102DB00097FF07C090958095709561957F4F8F4FD5
:102DC0009F4F2AE030E040E050E00E94F03124E6DE
:102DD00030E040E050E0E20EF31E041F151FEA0C45
:102DE000FB1C0C1D1D1DA80197010E9442322115DC
:102DF00031054105510559F532E0931619F081E08E
:102E00008093180281E0D30117968C9320C0F301C0
:102E10008781882319F421502093800280918002B9
:102E2000E82FF0E033E0EE0FFF1F3A95E1F7E95DA0
:102E3000FD4FA082B182C282D3822A89248339893C
:102E400035834B89468317828F5F80938002809100
:102E50004302909144029695879596958795909315
:102E600044028093430280917E0290917F0290936E
:102E700042028093410289E180933F0217B818B85B
:102E800014B815B86596E2E10C949B3280917902F2
:102E90008F5F80937902222389F35B8950937602B6
:102EA0008A8980937702998990937802E7CF21E00D
:102EB000809167028F5F809367022223F9F2AB89CA
:102EC000A0936402B989B0936502EA89E09366022F
:102ED000D5CF1F93182F60FF03C085B1812B03C08E
:102EE00095B18095892385B984B1812B84B982E01D
:102EF0000E947B0384B1912F9095892384B985B179
:102F0000982395B91F910895A0E0B0E0EAE8F7E1B1
:102F10000C948832DD249FE3B92E88E0C82E17B8C0
:102F200018B815B8B4B880E00E94AD03EC0181E098
:102F30000E94B1038C0182E00E94B103BC01809128
:102F400018028830C1F080E0C430D10508F481E077
:102F500020E00430110508F421E08223282F30E01E
:102F600040E050E06430710510F441E050E024236B
:102F70003523232B79F017B814B8D0930202C093ED
:102F800001021093040200930302709306026093FF
:102F900005024AC080E0C85ED34008F481E0085EC4
:102FA000134008F48260685E734008F4846087B957
:102FB00000E010E0A89580E00E94A5037C0181E07C
:102FC0000E94B103EC0182E00E94B10324E1E21609
:102FD00025E0F20608F4389A25E0C431D20708F457
:102FE000399A25E08431920708F43A9A26E0E216ED
:102FF000F10420F4269710F4069740F00F5F1F4F5E
:1030000081E0043F1807B1F6C0921802C0E0D0E09A
:1030100003C00E9469032196C017D107D0F3D3944F
:103020009AE0D91609F07BCFCDB7DEB7E9E00C9472
:10303000A4321F9360918402709185028091860270
:1030400090918702109196020AC02AE030E040E099
:1030500050E00E944232C901DA01BC01CD01212FAA
:103060001F5F613A36E8730731E0830730E093076A
:1030700060F720939602209143023091440240E091
:1030800050E00E94F03128E833E140E050E00E9437
:1030900042322093840230938502409386025093FB
:1030A00087021F9108951F920F920FB60F9211245D
:1030B0008F939F93B59904C080918102882349F42E
:1030C000B59B10C080918600909187008A3F910542
:1030D00048F480916A0290916B02019690936B0282
:1030E00080936A029F918F910F900FBE0F901F9057
:1030F00018951F920F920FB60F9211248F939F93E2
:1031000010928102B09B10C0809186009091870040
:103110008A3F910548F480916A0290916B02019672
:1031200090936B0280936A029F918F910F900FBED4
:103130000F901F901895A0E0B0E0E1EAF8E10C9440
:103140008532982E862EC82EDD24262F2150C601CA
:10315000880F991F8C0D9D1D280F20936902E62F63
:10316000F0E0E151FE4F0491F601E751FE4FB490BB
:1031700080911802813009F49BC230911602EAE96D
:10318000F2E0DF011C9620E010C08681881551F422
:103190008081891539F48D919C9111978C5D9540B2
:1031A00008F486C22F5F31961296231770F310929F
:1031B0009102109290021092840210928502109255
:1031C00086021092870284EF809396020E948417F1
:1031D00018B815B807B914B8892D0E94B1037C013D
:1031E00010926B0210926A02EC012DC0B5B8B4B80F
:1031F0000E94640314B815B80E946A03A895892D2B
:103200000E94B103E816F90618F0C0E0D0E003C050
:10321000EC01CE19DF0980916A0290916B028E3722
:10322000910520F0CB34D10508F43EC281E0CD32C7
:10323000D807A8F480916A0290916B02019690934E
:103240006B0280936A0280916A0290916B02845FA4
:10325000914060F241E0CD32D40708F425C280915C
:103260006A0290916B02892B79F485E0C531D80709
:1032700058F090C00E946503892D0E94B1039C0103
:10328000A8950F5F1F4F03C09E0100E010E08091E2
:103290006A0290916B028017910760F7E216F306BD
:1032A00018F060E070E00BC0B9016E197F096C176F
:1032B0007D0728F0AA24BB24CC24DD241BC06E018A
:1032C000C61AD70A19F4AA24BB2414C029ECC216C2
:1032D000D10408F0E9C1B60180E090E028EE33E0C7
:1032E00040E050E00E94F0319E0140E050E00E943A
:1032F00042325901E0906A02F0906B020894E11C9E
:10330000F11C00E010E0E0928C02F0928D0200933C
:103310008E0210938F02C6018C0F9D1F0E945D1BB1
:10332000A0E0B0E0BC01CD01A80197010E94F031FE
:1033300060938C0270938D0280938E0290938F0223
:103340006093840270938502809386029093870233
:1033500087EF809396020E94191860918402709101
:103360008502809186029091870228EE33E040E04A
:1033700050E00E94F03124E630E040E050E00E944E
:103380004232209384023093850240938602509308
:10339000870248C11B2D110F0E94841715B887E0C2
:1033A00087B918B814B980E480937B0084E580BFA6
:1033B000892D806480937C0087E180937A000E944D
:1033C0006D0310926B0210926A02109280001092AC
:1033D00085001092840087E286BB81E280936F00B3
:1033E00091E09093810215B980911802843071F4B4
:1033F0009093810081E090E00C2C02C0880F991F0F
:103400000A94E2F78095877087B903C09093810092
:1034100007B9F89483B7817F83BF11C083B78160F8
:1034200083BF7894889583B78E7F83BFF894A895DF
:1034300080916A0290916B0280589C4021F08091AB
:103440008102882359F7789410928100C0918600F8
:10345000D091870010926F0087E980937A0014B8AA
:1034600015B8892D0E94B10320914702309148027E
:10347000821B930B0C9690939902809398028091F3
:103480006A0290916B028054964008F00DC18091C1
:103490006A0290916B0290938F0280938E02D09378
:1034A0008D02C0938C0284EF8093960280916A0211
:1034B00090916B0282349105C8F060918C027091FA
:1034C0008D0280918E0290918F0224E630E040E0E0
:1034D00050E00E94423220938C0230938D02409340
:1034E0008E0250938F0286EF809396026091820243
:1034F0007091830280E090E020918C0230918D02E7
:1035000040918E0250918F020E94F03120E436E00B
:1035100040E050E00E94423220938C0230938D02B2
:1035200040938E0250938F02E4E8F2E020938402ED
:103530003183428353830E94191880919602843FFD
:1035400009F060C0E0908402F0908502009186024C
:103550001091870240EAE4164FE0F40640E00407C9
:1035600040E01407C0F4A80197012C543F4F4F4F7F
:103570005F4F60EA7FE080E090E00E944232E20E1E
:10358000F31E041F151FE0928402F092850200933F
:103590008602109387028091690290E084569D4FC5
:1035A0000E9412332091840230918502409186025C
:1035B0005091870290E0A0E0B0E082179307A40743
:1035C000B50768F4281B390B4A0B5B0B2093840268
:1035D00030938502409386025093870213C02C5E7D
:1035E0003F4F4F4F5F4F281739074A075B0710F4CB
:1035F0000E940605109284021092850210928602A3
:1036000010928702B4B88091840290918502A091B3
:103610008602B09187024997A105B10508F444C01C
:10362000AA24BB2480911602882321F080911802DD
:103630008430D1F587E080931802609196028091E2
:1036400097028617BCF0681779F5209184023091B3
:103650008502409186025091870280918802909164
:103660008902A0918A02B0918B0282179307A40766
:10367000B507D0F48091840290918502A0918602D2
:10368000B09187028093880290938902A0938A0266
:10369000B0938B0260939702B0929302A092920231
:1036A000809294029092950217B818B814B815B881
:1036B000CDB7DEB7ECE00C94A1320F9221E08C3252
:1036C000920710F48CE291E08C52914069E170E035
:1036D0000E941B3299E16B3210F0982F6BE2981B1D
:1036E000E0E0F0E0E60FF11DE60FF11D9F93CF0142
:1036F0000E941233482F3196CF010E941233582F67
:103700003196CF010E941233282F3196CF010E94AB
:103710001233382F6F91421B530B649FC001659F7A
:10372000900D11240C9669E170E00E941B32620F2B
:10373000731FCB010F9008952F923F925F926F926B
:103740007F928F929F92AF92BF92CF92DF92EF9231
:10375000FF920F931F93CF93DF9388E893E19093A9
:103760004402809343028EEB80933F0218B880E1BD
:1037700087B90E94720317B884E00E94AD038C01E0
:103780008B5C9840835F9140C0F481E08093570246
:10379000609143027091440280E090E02FEB39E0A9
:1037A00040E050E00E94F031980140E050E00E947B
:1037B000423230934402209343028EE294E090938D
:1037C0004802809347020E94530411E017B915B9CB
:1037D00014B980E00E94AD036C0142E0F42EF7B80A
:1037E00004E005B904B981E00E94AD033C0107B9CA
:1037F00030E1532E55B854B882E00E94AD036C0CF2
:103800007D1C680E791E15B818B917B914B9209027
:1038100043023090440280E00E94AD03EC01F8B80E
:10382000F7B804B9A0904302B090440281E00E942E
:10383000AD037C0108B907B954B800914302109157
:10384000440282E00E94AD03A20CB31CA00EB11E84
:10385000A81AB90AAE18BF08AC1ABD0A8091430273
:10386000909144027C01EE0CFF1CE80EF91EE61854
:10387000F708EA18FB0800E010E088249924C40146
:10388000B30120E93AE140E050E00E94F031A801A4
:1038900097010E944232490130935602209355020B
:1038A000CC24DD24C601B50120E93AE140E050E036
:1038B0000E94F031A80197010E944232C901309361
:1038C0004602209345028057954E90931A028093AA
:1038D000190280E99AE1880E991E90921302809253
:1038E000120289E180933F02DF91CF911F910F91E6
:1038F000FF90EF90DF90CF90BF90AF909F908F9010
:103900007F906F905F903F902F900895A3E1B0E07B
:10391000ECE8FCE10C947F321092000280911802D6
:10392000813009F049C280918002813009F044C29F
:103930008091270290912802A0912902B0912A0239
:1039400089509245A040B04008F036C21B8A8B894E
:10395000823028F4F0902B02D0902C0204C0F0901A
:103960002C02D0902B02ED2DF0E0E151FE4FA490FF
:10397000EF2DF0E0E751FE4F249115B818B8809173
:10398000270290912802A0912902B0912A02803F3B
:103990009105A105B105B0F49B8990FD13C040903D
:1039A000120250901302A0E7B5EE4A0E5B1E81E0B2
:1039B00090E00F2C02C0880F991F0A94E2F78A2921
:1039C00087B906C024B9A7B84090120250901302DC
:1039D000EE248F2D0E94A9038C018D2D0E94B1032E
:1039E0000230110510F4029720F0E394B4E1EB16D5
:1039F00081F720E420937B0084E580BF8F2D8064D5
:103A000080937C0097E190937A001092800010924E
:103A1000850010928400A7E2A6BB0E946D03BB89BB
:103A20002B2E3324C101817090709A8B898BB0FD4D
:103A300005C091E890938100A8B808C0A8B80E947A
:103A40007603A0E2A6BBB1E8B093810020E030E0AD
:103A500086B3482F85FF02C049010DC080FFF8CF13
:103A600081E086BBA8952F5F3F4F203A310581F753
:103A7000F0EA8F2E912C1092810090E296BB20915B
:103A800086003091870039018091840090918500F3
:103A90002817390738F440FF05C0A1E0A6BB0894F9
:103AA000811C911C18B8B7E9B0937A00EE248F2DD1
:103AB0000E94A9038C018D2D0E94B10302301105D3
:103AC00010F4029720F0E39424E1E21681F72091AC
:103AD0002702309128028091550290915602280FBA
:103AE000391F240D351DE0911402F091150280E973
:103AF00048168AE15806C8F491EE691671048104EB
:103B0000910410F089E107C0C30165E070E00E94F4
:103B10001B32862F8451BF0168527040992787FD60
:103B20009095681B790B86E00AC0C90168E57BE1C6
:103B30000E941B32862F895FBF01685D7F4F90E036
:103B4000A0E0B0E086159705A805B90528F4681A25
:103B5000790A8A0A9B0A03C0662477244301A9894B
:103B6000BA89AB2B41F08AE390E0A0E0B0E0680EA8
:103B7000791E8A1E9B1E90EA8916910418F066240D
:103B800077244301ABE06A1671048104910428F0A4
:103B9000089461087108810891085901CC24DD243A
:103BA00080E090E028EE33E040E050E00E94F03109
:103BB0007B018C01B20180E090E0209143023091C2
:103BC000440240E050E00E94F031A60195010E94BD
:103BD000423240E050E0C801B7010E944232DA01AF
:103BE000C9010E94AB047C01C601B501A401930187
:103BF0000E94F0315B016C0100E010E0E4E0EE0CAB
:103C0000FF1C001F111FEA95D1F785E090E0A0E0AE
:103C1000B0E0E80EF91E0A1F1B1FC801B7012AE019
:103C200030E040E050E00E94423240E050E0C60107
:103C3000B5010E944232F101EE0FFF1FEE0FFF1F90
:103C4000A1E0B0E0AC0FBD1FEA0FFB1F2083318362
:103C50004283538389899A89892BA9F494E169164F
:103C600071048104910478F0F1013196EE0FFF1F89
:103C7000EE0FFF1FEA0FFB1F208331834283538324
:103C8000AB89AF5FAB8BA895BB89BF5FBB8BB430F3
:103C900008F45DCE18B884E00E947B0370E02D81AB
:103CA0003E814F81588589819A81AB81BC81821781
:103CB0009307A407B50708F471E02D853E854F856D
:103CC000588989859A85AB85BC8582179307A40797
:103CD000B50710F463E001C062E0E62FF0E0EE0FFC
:103CE000FF1FEE0FFF1FDE011196EA0FFB1F872F4C
:103CF00090E0880F991F880F991FA80FB91F208186
:103D00003181428153818D919D910D90BC91A02D67
:103D1000281739074A075B0708F4762F872F90E0AA
:103D2000FC01EE0FFF1FEE0FFF1FEC0FFD1F418187
:103D3000528163817481409307025093080260931B
:103D4000090270930A022BEF2093000280FD0DC040
:103D50008091270290912802A0912902B0912A0215
:103D6000803F9105A105B105B8F08CEF809300026A
:103D70004B5F5F4F6F4F7F4FCB01BA012AE030E0BE
:103D800040E050E00E944232209307023093080244
:103D90004093090250930A02809107029091080211
:103DA000A0910902B0910A020097A105B10511F492
:103DB0001092000217B814B86396E2E10C949B329B
:103DC0002F923F924F925F926F927F928F929F922B
:103DD000AF92BF92CF92DF92EF92FF920F931F9319
:103DE000DF93CF93CDB7DEB76E970FB6F894DEBFF3
:103DF0000FBECDBF662EB82E860F89832091180284
:103E0000273041F5209188023091890240918A0241
:103E100050918B021091970209C0CA01B9012AE0A2
:103E2000312D412D512D0E9442321F5F173FACF3BF
:103E3000243B60E036074105510518F48FEF9FEFF2
:103E400089C1173F39F480E028178DE7380741050D
:103E5000410510F020E03DE72C8B3D8B27EDA22E95
:103E600002C095EDA92EEFEEF1E0E60DF11D859172
:103E700080608E87EFEEF1E0EB0DF11D85918060A3
:103E80008F87E9EEF1E0E60DF11D7590E9EEF1E0C6
:103E9000EB0DF11DC59090EC692AB92A81E0E82E5E
:103EA000F12C012D112D8E831F82188619861A86FA
:103EB0001B861C861D86188E198E0E94841780E032
:103EC00088B960927C000E946E033F8537B975B84F
:103ED00074B80E9473030E94770315B814B8DD24E8
:103EE000B5ED9B2EA7ED8A2E3E8537B975B874B80F
:103EF00060927C00A895A0927A0080917A0086FD5D
:103F0000FCCFA0927A0080917A0086FDFCCF2090B1
:103F1000780030907900B0927C00A0927A00809175
:103F20007A0086FDFCCF80927A000E947403C5B8A7
:103F3000C4B80E9472030E9474030E9476038F9398
:103F40008F91A89514B815B880917A0086FDFCCFA2
:103F50002091780030917900288B398B3F8537B9D3
:103F6000C5B8C4B8A895B0927C00A0927A008091A0
:103F70007A0086FDFCCFA0927A0080917A0086FDBF
:103F8000FCCF609178007091790060927C00A092E3
:103F90007A0080917A0086FDFCCF80927A000E94A0
:103FA000740375B874B80E9472030E9474030E946F
:103FB00076038F938F91A89514B815B880917A00E5
:103FC00086FDFCCF409178005091790014B8CB0168
:103FD000820D931DE80EF91E011D111DEA82FB8260
:103FE0000C831D8388899989840F951F2E813F81B9
:103FF00068857985280F391F611D711D2E833F83C8
:104000006887798724E62417150650F075B874B8C8
:104010000E94770314B815B8888D8395888F07C0E0
:10402000483E73E0570718F08A8D83958A8F8889F8
:10403000998928171906A8F03E8537B9C5B8C4B8BC
:104040000E9477030E9472030E9474030E94760309
:104050008F938F91A89514B815B8898D8395898F02
:1040600007C0883E73E0970718F08B8D83958B8F80
:10407000D3945D2D5F3F09F037CF409055025090AB
:104080005602440C551C9201E4E0240D351DEA95BE
:10409000E1F72901570168016E807F808884998447
:1040A000209118022730C1F46C897D89812D912DD2
:1040B0009B01AC016D5E7F4F8F4F9F4F0E94F0318F
:1040C0009B01AC016FE87DE48EE095E10E944232F5
:1040D000621A730A840A950AA614B704C804D9049C
:1040E00028F46A187B088C089D0803C0662477248E
:1040F0004301B20180E090E09301A4010E94F031FD
:104100009501A6010E94423283EA92E07981870FED
:10411000911D0E94123390E0682EC90160E170E0A9
:104120000E941B32260F371FC9016816190618F4A2
:10413000861991090FC08C5E9F4F8615910540F43A
:104140008C899D89843981E1980710F00E940605C9
:10415000812D912D6E960FB6F894DEBF0FBECDBFA8
:10416000CF91DF911F910F91FF90EF90DF90CF9053
:10417000BF90AF909F908F907F906F905F904F9087
:104180003F902F900895A0E0B0E0E9ECF0E20C94AD
:1041900089328091920290919302892B09F09FC0FD
:1041A00080919402E82FF0E0E151FE4F1491E091EC
:1041B0009502F0E0E751FE4F04910E94841718B871
:1041C00015B817B904B9809195020E94B1036C012A
:1041D00080919702883F0CF082C020918802309134
:1041E000890240918A0250918B02182F145F11C0EE
:1041F0002B5F3F4F4F4F5F4FCA01B9012AE030E0BC
:1042000040E050E00E944232C901DA019C01AD0158
:104210001F5F143068F3DA01C9010197A109B109E0
:1042200088589341A040B04008F059C005B904B97E
:104230008901C0E0D0E003C00E9474032296C01739
:10424000D107D0F314B815B8A89585E080933F0244
:10425000809195020E94B103C816D90618F0EE2489
:10426000FF2403C07C01EC18FD08C0E0D0E003C0CF
:104270000E9474032196C017D107D0F38091950254
:104280000E94B1039C0189E180933F02A895C21668
:10429000D30618F060E070E003C0B9016C197D0925
:1042A0006E157F05B0F4C701861B970BBC0189F022
:1042B00080E090E024EF31E040E050E00E94F031F7
:1042C000970140E050E00E944232309393022093E5
:1042D00092020E94841717B818B814B815B8CDB751
:1042E000DEB7E8E00C94A5321F920F920FB60F9242
:1042F00011248F939F93AF93BF93789480910C0276
:1043000090910D02A0910E02B0910F0280509F4F2C
:10431000AF4FBF4F80930C0290930D02A0930E02FB
:10432000B0930F02BF91AF919F918F910F900FBEED
:104330000F901F9018951F920F920FB60F92112495
:104340008F9386E085BD8F910F900FBE0F901F90C9
:1043500018951F920F920FB60F921124A8951092E4
:10436000810015BC0F900FBE0F901F9018951F92E3
:104370000F920FB60F9211242F933F938F939F9319
:1043800020917C0230917D022115310511F481E0EC
:1043900085BD80917A0290917B022817390730F011
:1043A00015BC80916D008F7E80936D002F5F3F4F15
:1043B00030937D0220937C029F918F913F912F91AA
:1043C0000F900FBE0F901F901895A5E0B0E0EBEE98
:1043D000F1E20C947F328BEF90E00E94F0261B827A
:1043E00054980E94690314BC16BC10920C021092DF
:1043F0000D0210920E0210920F0261E065BB6093F5
:104400006E001092800085E294EF90938900809373
:104410008800E1E0F0E0F0938B00E0938A001092D6
:1044200085001092840083B5816083BDF6E0F6BB01
:10443000F0936F00789464E060938100198210E03B
:104440000E946303A8954F9902C081E0898385B5D6
:10445000882319F01F5F123399F715BC86B5809336
:104460000C020E94540186E60E9448018DE30E94DE
:10447000480160910C0270910D0280910E029091A2
:104480000F0240E028E407E00E9486028AE70E94CB
:104490004801549880918100882319F08FE30E948D
:1044A00048011092810010926F0020910C0230910F
:1044B0000D0240910E0250910F02DA01C9010197DD
:1044C000A109B109895D9146A040B04008F028C11A
:1044D000CA01B9012AE030E040E050E00E94F0312A
:1044E000605F7F4F8F4F9F4F14E09695879577952C
:1044F00067951A95D1F7660F771F70937B026093CB
:104500007A0254980E94690316BC10920C02109211
:104510000D0210920E0210920F02F1E0F5BBF09323
:104520006E0010927D0210927C0264E06BBB809161
:104530006800846080936800789480916D00806149
:1045400080936D001A820E946303A8954F9902C060
:1045500081E0898380916D0084FF05C09A819F5F0F
:104560009A839A3F81F715BC80916D008F7E80936E
:104570006D00809168008B7F8093680086B5809382
:104580000C020E94C40184E50E9448018DE30E9450
:104590004801E0917A02F0917B02FD83EC83A090C8
:1045A0000C02B0900D02C0900E02D0900F02950147
:1045B000A60160E070E080E090E0A8EAAA2EF1E6B3
:1045C000BF2ECC24DD24EE24FF2400E010E00E9466
:1045D000802AEC81FD815F010E947B2B722E232EAD
:1045E000942E852E662E572E482E392E8C819D8135
:1045F0008038910530F0672D722D892D982D45EF6B
:1046000016C0272D322D492D582D662D752D842D40
:10461000932DE4E6AE2EBB24CC24DD24EE24FF242F
:1046200000E010E00E947B2BB901CA0147EF23E7AD
:1046300007E00E9486029A819A3F21F48FE30E944C
:1046400048016EC03320C1F44420B1F45520A1F4D8
:10465000662091F4882081F4E3E0E91568F09E1665
:1046600009F05EC0FEECF21538F02F1609F058C0C4
:104670006CE9671508F054C00E94C10186E60E94EB
:1046800048018DE30E9448013320B9F44420A9F485
:10469000552099F4662089F48BE3881570F088160C
:1046A00011F59AE9991548F09916E9F4EAECE21542
:1046B00020F02E16C1F47720B1F020E030E04AE877
:1046C0005DE568E775E483E691E0A72CB22CC92C80
:1046D000D82CE62CF52C042D132D0E947B2BB90130
:1046E000CA014AEF15C020E030E846EC54EA6EE714
:1046F0007DE883E090E0A72CB22CC92CD82CEE24C6
:10470000FF2400E010E00E947B2BB901CA014CEFAE
:1047100028E407E00E9486028AE70E944801549834
:1047200010926E0080ED97E00E940F04F981F80F5F
:1047300031F46B816F5F6B83603F09F051CE25963A
:10474000E2E10C949B320895A4E0B0E0EAEAF3E2DF
:104750000C9489328EE291E00E94F02683E28093ED
:10476000800010926F0081E090E090938900809328
:1047700088008FEF90E090938B0080938A0083E015
:1047800086BB1092820015B881E184B918B881E027
:1047900087B9229A89E080938100DD241AE000E045
:1047A000CC24101709F449C0143608F01456612FB0
:1047B00070E080E090E02FEF33E040E050E00E94B6
:1047C000F0316E5C7F4F8F4F9F4F24E630E040E02A
:1047D00050E00E944232790130938B0020938A008E
:1047E0000E94C4010E94BA010E94C401C701A0E056
:1047F000B0E089839A83AB83BC83BC01CD0128EEF2
:1048000033E040E050E00E94F03161507E4F8F4F26
:104810009F4F2FEF33E040E050E00E944232CA0148
:10482000B9014FEF25E205E00E94860298E29D154E
:1048300018F48CE30E947B03012F80E496E00E9431
:104840000F04D82EA2E8A81770F0B2E3B81710F43E
:10485000165F03C0882311F01F5FCC24C394EFEED2
:10486000EC1508F09ECF17B81092810010928000CE
:1048700014B822982496E8E00C94A5320F93843162
:1048800008F08451833171F489E08093810083E0E2
:1048900090E0909389008093880060E074E985E35C
:1048A00097E74FC0823171F489E08093810087E0FF
:1048B00090E0909389008093880060E07AEC8AE928
:1048C0009BE33FC0813171F489E0809381008FE0E8
:1048D00090E0909389008093880060E075E68DEC0D
:1048E0009DE12FC0803171F489E0809381008FE1D8
:1048F00090E0909389008093880060E872EB86EEE8
:104900009EE01FC08F3071F489E08093810083E3C3
:1049100090E090938900809388006AE871E88BE2C8
:1049200099E00FC08E3079F489E0809381008FE4A4
:1049300090E0909389008093880060E071EE85EFAD
:1049400095E04DEFDEC08D3071F489E080938100F9
:104950008FE990E0909389008093880060E075E68D
:104960008DEC9DE11FC08C3071F489E08093810053
:104970008FE391E0909389008093880060E872EB68
:1049800086EE9EE00FC08B3079F489E08093810041
:104990008FE193E0909389008093880060E071EE4E
:1049A00085EF95E04CEFADC08A3071F489E08093DB
:1049B00081008FE396E0909389008093880060E007
:1049C00075E68DEC9DE13EC0893069F480938100ED
:1049D0008FE79CE0909389008093880060E872EBF9
:1049E00086EE9EE02FC0883071F489E080938100CC
:1049F0008FE39FE1909389008093880060E071EEDF
:104A000085EF95E01FC0873071F489E080938100C5
:104A10008AE896E4909389008093880069EE73EFAA
:104A200083EA92E00FC0863079F489E080938100B8
:104A300083EB96E490938900809388006FEE7BE689
:104A400082EA92E04BEF5DC0853071F489E080939B
:104A5000810085E097E4909389008093880068E462
:104A600071E68FE992E0EECF843071F489E08093B3
:104A700081008FEF9CE7909389008093880060E429
:104A800078E78DE791E0DECF833071F48BE080939F
:104A9000810081EE94E0909389008093880060E02B
:104AA00071EE85EF95E02CC0823059F483EC99E0EB
:104AB000909389008093880060E870EF8AEF92E01D
:104AC0001FC0813071F48BE08093810083ED90E30F
:104AD000909389008093880060E876E988E990E007
:104AE0000FC0882391F48CE08093810081E19AE7E4
:104AF000909389008093880060E472E48FE090E0F6
:104B00004AEF28E407E00E9486028AE70E944801F3
:104B10000F910895DF92EF92FF920F931F9382E21D
:104B200091E00E94F02680E18093800010926F0057
:104B300081E090E0909389008093880010928B0030
:104B400010928A0083E086BB1092820088E08093F6
:104B5000810015B881E184B918B881E087B9229A3B
:104B600089E08093810002E1DD2410E0EE248E2DA7
:104B700090E00A966EE170E00E942F32F62E6117E7
:104B800099F00E94C1010E94BA010E94C10182E213
:104B900091E00E94940110E004C08EE20E9448015E
:104BA0001F5F1F15D0F31F2DD01669F0043108F0D8
:104BB00004510E94C4010E94BA010E94C401802FC6
:104BC0000E943E24D02E88EE93E00E940F0488239A
:104BD00031F0853118F0803530F40F5FEE24E39426
:104BE0008FEE8E1520F6109281001092800017B87B
:104BF00014B822981F910F91FF90EF90DF900895C5
:104C0000893008F08950882319F480EF90E022C0A1
:104C1000813019F48BEF90E01DC0823019F482E2EC
:104C200091E018C0833019F48EE291E013C0843013
:104C300019F480E492E00EC0853019F489E391E024
:104C400009C0863019F48EE491E004C0873029F45D
:104C50008DE091E00E9494010895883021F487E16D
:104C600091E00E94940108950F931F9380E492E0D5
:104C70000E94F02610E01092180282E060E00E948C
:104C8000062780911802873009F042C00E94C101B6
:104C90000E94BA010E94C10183E40E9448018DE391
:104CA0000E944801609188027091890280918A0275
:104CB00090918B024091970226E403E00E948602C5
:104CC00080919502609194020E94E01E909391025F
:104CD000809390020E94C4010E94BA010E94C40104
:104CE00080EB91E00E94940160919002709191029A
:104CF0008FEF6A3F780740F480E090E04EEF24EFBA
:104D000002E00E9486020AC08FE30E94480106C0AA
:104D10000E94540180E492E00E94940188EE93E0A6
:104D20000E940F04882321F41F5F1A3F09F0A3CFCC
:104D30001F910F9108950F931F9300E010E003C09F
:104D4000093008F0095085EE90E00E94F0260E949C
:104D5000C4010E94BA010E94C401802F0E94002653
:104D600088E893E10E940F04882399F1823378F157
:104D7000002399F1013021F480E00E94E52128C050
:104D8000023019F40E948A2523C0033019F40E94CE
:104D9000A4231EC0043019F40E94342619C0053023
:104DA00019F40E94362814C0063021F481E10E94D3
:104DB00068050EC0073019F40E94972909C0083011
:104DC00039F45E9880E090E00E940F0401C00F5F0C
:104DD00010E01F5F1A3508F4B3CF1F910F910895AB
:104DE0000F931F938C010E945401C8010E949401EB
:104DF00000E082E00E947B034F9903C00F5F0436FE
:104E0000C1F70E94C4011F910F910895A0E0B0E086
:104E1000ECE0F7E20C948532D82EC62E262F2150D6
:104E200083E0D89EC0011124280F20936902E62F49
:104E3000F0E0E151FE4F1491ED2DF0E0E751FE4F0F
:104E4000E4901092910210929002109284021092BB
:104E50008502109286021092870287EF8093960255
:104E60000E94841718B815B817B914B88D2D0E9470
:104E7000B1038C0110926B0210926A02FC017CE279
:104E8000872E71E0972E64E6A62EB12C75C0E5B88A
:104E900080916A0290916B02892BB9F0E401CE1BDC
:104EA000DF0B60916A0270916B02CF01880F991F2E
:104EB0009F0143E0220F331F4A95E1F7820F931FB2
:104EC0000E941B32C617D70750F4E4B80E946D0346
:104ED00014B880916A0290916B0201962AC0809169
:104EE0006A0290916B020B97D8F060916A02709100
:104EF0006B02EA9DC001EB9D900DFA9D900D11246F
:104F00000E941B326C177D0758F4E4B80E946303BB
:104F100014B880916A0290916B028C599F4F09C01E
:104F2000E4B80E94680314B880916A0290916B0201
:104F30000A9690936B0280936A0215B80E946F03E1
:104F4000A8958D2D0E94B1030817190718F0E0E00D
:104F5000F0E003C0FC01E01BF10B80916A0290912C
:104F60006B028B51964020F0E532F10508F475C0D4
:104F700081E0ED32F80768F480916A0290916B024B
:104F8000845D904308F483CF81E0ED32F80708F4A4
:104F900064C080916A0290916B02019729F425E028
:104FA000E531F20708F059C0E0906A02F0906B0218
:104FB000EE0CFF1C00E010E0E0928C02F0928D02FB
:104FC00000938E0210938F02CF010E945D1BA0E020
:104FD000B0E0BC01CD01A80197010E94F0316093BF
:104FE0008C0270938D0280938E0290938F02609357
:104FF00084027093850280938602909387020E94B8
:1050000019186091840270918502809186029091B6
:1050100087022AE030E040E050E00E9442322093D4
:10502000840230938502409386025093870287E082
:1050300080931802E8E8F2E02093880231834283EB
:10504000538380919602809397021092930210925C
:105050009202C0929402D092950217B818B814B870
:1050600015B8CDB7DEB7ECE00C94A132A8E1B0E002
:10507000ECE3F8E20C94873289E391E00E94F02699
:105080000E94C40188E491E00E9494011A8219826E
:105090001A8619861A8A198A1C821B821C861B860C
:1050A0001C8A1B8A1E821D821E861D861E8A1D8AE0
:1050B00018861F82188A1F86188E1F8A85E185B977
:1050C00084B9FF2400E010E0AA24A3946E010894A0
:1050D000C11CD11CF4E0BF2EE2E0EE2E18B8A7B838
:1050E0000E94770386B190E09C0136952795217048
:1050F00082FD2E5F0115110511F4F22E10C02F153F
:1051000019F464E0F62E0BC0E22FF0E0EE0FFF1F63
:10511000EC0DFD1D80859185019691878087E7B80C
:105120000E94770386B1E82FE17082FDEE5F84E094
:10513000F81651F4F0E0EE0FFF1FEC0DFD1D80811D
:105140009181019691838083B7B80E94770386B1DD
:10515000E82FE17081FDEE5F84E0F81651F4F0E095
:10516000EE0FFF1FEC0DFD1D808991890196918B3B
:10517000808BA8950E9469034F9BD2C069817A8178
:1051800065317105F0F04B815C8145315105C8F006
:105190008D819E8185319105A0F02F813885253143
:1051A000310578F0840F951FBB248617970710F4FC
:1051B000BB24B3948217930708F05DC0CC24C3943A
:1051C0005BC069857A856531710520F14B855C8509
:1051D00045315105F8F08D859E8585319105D0F0DA
:1051E0002F85388925313105A8F0840F951FBB2400
:1051F0008617970710F4BB24B3948217930718F40B
:10520000CC24C39401C0CC24DD24D39422E0E22E2C
:10521000FF2437C069897A896531710520F14B898E
:105220005C8945315105F8F08D899E89853191055C
:10523000D0F02F89388D25313105A8F0840F951FC6
:10524000BB248617970710F4BB24B39482179307E7
:1052500018F4CC24C39401C0CC24DD24EE24E394C0
:1052600092E0F92E0EC00F5F1F4F86EF093118072D
:1052700009F034CF58C0CC24DD2482E0E82EFF248E
:10528000F3940E94C4010E94BA0100E010E0A02E35
:105290000E94C4018D2D0E9447018DE20E944801A9
:1052A00000FD02C08DE201C08FE20E9448018DE244
:1052B0000E9448018F2D0E9447018DE20E94480103
:1052C00001FD02C08DE201C08FE20E9448018DE223
:1052D0000E9448018E2D0E9447010E9446018A2D9E
:1052E000837019F4BB2031F40DC0833059F4CC2005
:1052F00019F408C083E401C08FE60E94480180E2EF
:1053000093E004C00E94460188EC90E00E940F04E4
:10531000882331F40F5F1F4F0837110509F0B7CF0D
:1053200015B814B817B86896EAE00C94A332EF9257
:10533000FF920F930E94540188ED91E00E94940126
:105340000E94C4018EE192E00E94940195EAE92E48
:1053500092E0F92EC7010E94123390E0A0E0B0E085
:10536000BC01CD014EEF20E203E00E948602C7019E
:1053700001960E94123390E0A0E0B0E0BC01CD01A4
:105380004EEF20E20E948602C70101970E9412336D
:1053900090E0A0E0B0E0BC01CD014EEF24EF0E9410
:1053A000860288E99AE30E940F040E94540182E277
:1053B00092E00E949401609145027091460280E063
:1053C00090E04FEF24EF0E9486020E94C40189E220
:1053D00092E00E949401609155027091560280E023
:1053E00090E04FEF24EF0E94860288E99AE30E9442
:1053F0000F040E94540180E392E00E94940181EA2C
:10540000E82E82E0F82EC7010E94123390E0A0E05F
:10541000B0E0BC01CD0140E020E20E948602C7015D
:1054200001960E94123390E0A0E0B0E0BC01CD01F3
:1054300040E020E20E948602C70103970E941233D7
:1054400090E0A0E0B0E0BC01CD0144EF26E40E9472
:1054500086020E94C4010E9446010E9446010E94E9
:105460004601C70104970E94123390E0A0E0B0E02B
:10547000BC01CD0140E020E20E948602C7010197F5
:105480000E94123390E0A0E0B0E0BC01CD0140E00A
:1054900020E20E948602C70105970E94123390E025
:1054A000A0E0B0E0BC01CD0144EF26E40E948602FA
:1054B00088E99AE30E940F040E9454018BE892E06D
:1054C0000E9494018AE992E00E941A330E94CE0160
:1054D0000E94C40182E992E00E94940189E992E06D
:1054E0000E941233992787FD90950E94CE0188E98A
:1054F0009AE30E940F040F91FF90EF900895089592
:10550000A0E3B0E0E6E8FAE20C947F32A8E04E01B6
:105510000894811C911CF401BA2F1192BA95E9F7F5
:1055200029833A834B835C836D837E838F83988743
:10553000CE010996FC011192AA95E9F7A986BA86CF
:10554000CB86DC86ED86FE860F87188B29813A8113
:105550004B815C812DA73EA74FA758AB79018A01EB
:105560008FEF9FEFA0E0B0E0E822F9220A231B238F
:105570001A014424552429853A854B855C8529A741
:105580003AA74BA75CA759016A01A822B922CA22EF
:10559000DB223A0188249924C601B501A8019701AC
:1055A0000E94F0316DA37EA38FA398A7C401B3011D
:1055B0000E94F03169A37AA38BA39CA3C601B50115
:1055C000A20191010E94F0317B018C01C401B30161
:1055D0000E94F0315B016C0189A19AA1ABA1BCA131
:1055E0008E0D9F1DA01FB11F89A39AA3ABA3BCA3BF
:1055F0002DA13EA14FA158A5CA01AA27BB2729A1C9
:105600003AA14BA15CA1280F391F4A1F5B1F29A398
:105610003AA34BA35CA32E153F054007510740F466
:1056200080E090E0A1E0B0E0A80EB91ECA1EDB1E2B
:1056300089A19AA1ABA1BCA19D01442755272A0DA0
:105640003B1D4C1D5D1D2D8F3E8F4F8F58A36C0150
:10565000BB24AA248DA19EA1AFA1B8A5A070B07053
:10566000A80EB91ECA1EDB1EA98EBA8ECB8EDC8E8A
:105670009A8C8B8C7C8C9E8D6F8D78A1FE0171969F
:1056800088E0DF011D928A95E9F72D8B9E8B6F8B49
:10569000788F2D853E854F8558896DA57EA58FA570
:1056A00098A90E94F0317B018C012D813E814F81B0
:1056B000588569A57AA58BA59CA50E94F031E60EB8
:1056C000F71E081F191F6D897E898F89988D6E0DB1
:1056D0007F1D801F911F6D8B7E8B8F8B988FEE8926
:1056E0002A2D392D482D572D7E2F8F89988DE096A4
:1056F000E2E10C949B32AEE5B0E0E1E8FBE20C9411
:105700007F32A8E04E010894811C911CF4016A2E9E
:1057100011926A94E9F729833A834B835C836D8302
:105720007E838F839887CE010996FC011192AA95FA
:10573000E9F7A986BA86CB86DC86ED86FE860F87DA
:10574000188B29843A844B845C84ED84FE840F8515
:10575000188969807A808B809C806DA67EA68FA632
:1057600098AA6D807E808F809884E114F1040105F1
:10577000110509F0B3C3621473048404950408F09E
:105780003DC100E0201600E0300601E0400600E0E8
:10579000500688F41FEF211631044104510439F0FA
:1057A00030F048E0E42EF12C012D112D18C0EE242C
:1057B000FF24870114C020E0221620E0320620E0FA
:1057C000420621E0520630F038E1E32EF12C012DA3
:1057D000112D05C020E1E22EF12C012D112DD20159
:1057E000C1010E2C04C0B695A795979587950A948C
:1057F000D2F780509F4FDC012C9180E290E0A0E036
:10580000B0E08E199F09A00BB10B7C018D01E21A4B
:10581000F10801091109E114F10401051105A1F1D3
:105820000E2C04C0220C331C441C551C0A94D2F7C5
:10583000A40193010E2C04C0220F331F441F551FD7
:105840000A94D2F780E290E08E199F096DA47EA49D
:105850008FA498A804C096948794779467948A95A7
:10586000D2F7622A732A842A952AADA4BEA4CFA4B3
:10587000D8A804C0AA0CBB1CCC1CDD1CEA94D2F72F
:10588000ADA6BEA6CFA6D8AA6201EE24FF24CDAA5B
:10589000DEAAEFAAF8AE920181012070307009AF44
:1058A0001AAF2BAF3CAFC401B301A70196010E9410
:1058B00042327B018C01C401B3012DA93EA94FA93D
:1058C00058AD0E944232C901DA013C014D01C401C8
:1058D000B30129AD3AAD4BAD5CAD0E94F0319B01F7
:1058E000AC018701FF24EE24ADA4BEA4CFA4D8A8A8
:1058F000C601AA27BB2757016801A82AB92ACA2AC4
:10590000DB2AA216B306C406D506E0F408946108A3
:10591000710881089108A20CB31CC41CD51CA214E8
:10592000B304C404D50470F0A216B306C406D506A9
:1059300048F408946108710881089108A20CB31C0E
:10594000C41CD51CA21AB30AC40AD50AC601B501E3
:105950002DA93EA94FA958AD0E9442327B018C016E
:10596000C601B5012DA93EA94FA958AD0E944232EA
:10597000C901DA015C016D01C601B50129AD3AAD7D
:105980004BAD5CAD0E94F0319B01AC018701FF245F
:10599000EE248DA59EA5AFA5B8A9A070B070E82A89
:1059A000F92A0A2B1B2BE216F30604071507C0F48D
:1059B0000894A108B108C108D108E20CF31C041D29
:1059C000151DE214F3040405150550F0E216F30664
:1059D0000407150728F40894A108B108C108D108E4
:1059E000D3019927882786017501E82AF92A0A2B0D
:1059F0001B2BE9AAFAAA0BAB1CABCFC421143104B0
:105A00004104510471F461E070E080E090E020E036
:105A100030E040E050E00E944232C901DA011C014E
:105A20002D0100E0201600E0300601E0400600E015
:105A3000500688F41FEF211631044104510431F05F
:105A400028F048E050E060E070E017C040E050E02F
:105A500060E070E012C020E0221620E0320620E074
:105A6000420621E0520628F048E150E060E070E094
:105A700004C040E150E060E070E0D201C101042EBA
:105A800004C0B695A795979587950A94D2F780504C
:105A90009F4FDC012C91E0E2EE2EF12C012D112D17
:105AA000D801C701841B950BA60BB70B821B91096C
:105AB000A109B1090097A105B10561F46401530181
:105AC000A218B308C408D50831E0632E712C812CCC
:105AD000912C1EC16F968FAF6F97082E04C0220CB9
