:100000000C9435000C945D000C945D000C945D0024
:100010000C945D000C945D000C945D000C945D00EC
:100020000C945D000C945D000C945D000C945D00DC
:100030000C945D000C945D000C945D000C945D00CC
:100040000C9418040C945D000C94B3000C940501FE
:100050000C945D000C945D000C945D000C945D00AC
:100060000C945D000C945D00740211241FBECFEF50
:10007000D8E0DEBFCDBF11E0A0E0B1E0E6E1FAE0FC
:1000800002C005900D92A032B107D9F711E0A0E2AD
:10009000B1E001C01D92A33DB107E1F710E0CAE64F
:1000A000D0E004C02297FE010E940505C836D107A2
:1000B000C9F70E94CB020C9409050C940000CF9361
:1000C000DF9382E00E94900062E370E00E94BA0435
:1000D000EB0180910D0190910E018617970751F069
:1000E00088EA91E04AE050E00E94E603D0930E01D6
:1000F000C0930D01DF91CF9108950F931F9308EAEC
:1001000011E0C80140E855E260E070E00E94400163
:10011000C80160E071E00E9405041F910F910895ED
:10012000982F8E3008F09E50977080910F01829525
:10013000880F880F807C892B80937C0080917A00C7
:10014000806480937A0080917A0086FDFCCF2091B4
:10015000780040917900942F80E030E0282B392BF3
:10016000C901089508951F920F920FB60F9211249E
:100170002F933F934F938F939F93EF93FF93809190
:10018000C00082FD1DC04091C600209160013091E9
:1001900061012F5F3F4F2F7330708091620190910A
:1001A00063012817390771F0E0916001F091610156
:1001B000E05EFE4F4083309361012093600102C0F6
:1001C0008091C600FF91EF919F918F914F913F9148
:1001D0002F910F900FBE0F901F901895E091B401D2
:1001E000F091B501E05CFF4F8191919120813181C7
:1001F000805C9F4F821B930B60E470E00E94BA0406
:10020000892B11F00E94B20008951F920F920FB631
:100210000F9211242F933F938F939F93EF93FF930C
:100220002091A4013091A5018091A6019091A70190
:100230002817390731F48091C1008F7D8093C10068
:1002400014C0E091A601F091A701EC59FE4F208166
:100250008091A6019091A70101968F739070909361
:10026000A7018093A6012093C600FF91EF919F9173
:100270008F913F912F910F900FBE0F901F90189567
:10028000AF92BF92DF92EF92FF920F931F93CF93A3
:10029000DF93EC017A018B01DD24403081EE5807B9
:1002A00080E0680780E0780711F0DD24D39491E0C6
:1002B000A92EB12CEC89FD89DD2069F0C50108A0CB
:1002C00002C0880F991F0A94E2F7808360E079E00A
:1002D0008DE390E005C0108260E874E88EE190E064
:1002E000A80197010E94CD04215030404040504069
:1002F000569547953795279580E12030380720F0AF
:10030000DD2011F0DD24D6CFE889F9893083EA8930
:10031000FB89208319A2EE89FF89408121E030E02A
:10032000C9010C8C02C0880F991F0A94E2F7482B70
:100330004083EE89FF894081C9010D8C02C0880F7E
:10034000991F0A94E2F7482B4083EE89FF89408188
:10035000C9010E8C02C0880F991F0A94E2F7482B3E
:100360004083EE89FF8980810F8C02C0220F331FEA
:100370000A94E2F7209528232083DF91CF911F91E3
:100380000F91FF90EF90DF90BF90AF900895DC0148
:100390001C96ED91FC911D97E05CFF4F819191912E
:1003A00020813181805C9F4F821B930B60E470E061
:1003B0000E94BA040895DC011C96ED91FC911D97F2
:1003C000E05CFF4F20813181E054F040DF01AE5B03
:1003D000BF4F8D919C9111972817390719F42FEF72
:1003E0003FEF07C08D919C91E80FF91F8081282F66
:1003F00030E0C9010895DC011C96ED91FC911D9738
:10040000E05CFF4F20813181E054F040DF01AE5BC2
:10041000BF4F8D919C9111972817390719F42FEF31
:100420003FEF10C08D919C911197E80FF91F20812B
:100430008D919C91119701968F73907011969C935A
:100440008E9330E0C9010895DC0191968C919197CB
:10045000882339F05496ED91FC915597808186FF61
:10046000F9CF91961C920895CF93DF93EC01EE851E
:10047000FF85E05CFF4F20813181E054F0402F5F29
:100480003F4F2F733070DF01AE5BBF4F8D919C915A
:10049000119728173907D1F3E05CFF4F80819181D4
:1004A000E054F040E80FF91F6083EE85FF85E05CC3
:1004B000FF4F31832083EE89FF89208181E090E026
:1004C0000F8C02C0880F991F0A94E2F7282B208313
:1004D00081E089A3EC89FD8980818064808381E04B
:1004E00090E0DF91CF9108951092AB011092AA0194
:1004F00088EE93E0A0E0B0E08093AC019093AD0172
:10050000A093AE01B093AF0184E191E09093A90173
:100510008093A80180E291E09093B5018093B401AB
:1005200084E691E09093B7018093B60185EC90E06A
:100530009093B9018093B80184EC90E09093BB0153
:100540008093BA0180EC90E09093BD018093BC0150
:1005500081EC90E09093BF018093BE0182EC90E02B
:100560009093C1018093C00186EC90E09093C30109
:100570008093C20184E08093C40183E08093C5012D
:1005800087E08093C60185E08093C70181E0809376
:10059000C80108950895CF93DF930E9460040E94DC
:1005A000CA020E947D00CEEED0E00E945F0020973C
:1005B000E1F30E94EE00F9CFCF92DF92EF92FF922B
:1005C0000F931F93CF93DF937C016B018A01C0E0EF
:1005D000D0E00FC0D6016D916D01D701ED91FC9176
:1005E0000190F081E02DC7010995C80FD91F015076
:1005F00010400115110571F7CE01DF91CF911F91C8
:100600000F91FF90EF90DF90CF900895EF92FF92BF
:100610000F931F938C01DC01ED91FC910190F0810F
:10062000E02D6DE009957C01D801ED91FC910190E0
:10063000F081E02DC8016AE009959C012E0D3F1D57
:10064000C9011F910F91FF90EF900895CF93DF9311
:10065000EC016115710519F420E030E00FC0DB01F9
:100660000D900020E9F71197A61BB70BE881F981DF
:100670000280F381E02DAD0109959C01C901DF9154
:10068000CF9108954F925F927F928F929F92AF92F7
:10069000BF92CF92DF92EF92FF920F931F93DF935F
:1006A000CF93CDB7DEB7A1970FB6F894DEBF0FBEDC
:1006B000CDBF2C01742ECB01223008F42AE019A200
:1006C00031E2C32ED12CCC0EDD1E822E9924AA2419
:1006D000BB24672D752FA50194010E94CD047901DB
:1006E0008A01C801B701A50194010E949B04472D0E
:1006F000461B0894C108D1084A3014F4405D01C07B
:10070000495CF6014083E114F1040105110521F073
:100710007E2C5F2DC801DDCFC201B6010E942603E9
:10072000A1960FB6F894DEBF0FBECDBFCF91DF917B
:100730001F910F91FF90EF90DF90CF90BF90AF90FF
:100740009F908F907F905F904F900895CF92DF920F
:10075000EF92FF920F931F93CF93DF93EC016A0107
:100760007B012115310541F4E881F9810190F08187
:10077000E02D642F09951FC02A303105D1F477FF91
:1007800017C0E881F9810190F081E02D6DE20995B3
:100790008C0144275527BA014C195D096E097F0960
:1007A000CE012AE00E9442039801280F391F04C09D
:1007B0002AE00E9442039C01C901DF91CF911F9161
:1007C0000F91FF90EF90DF90CF900895CF92DF923E
:1007D000EF92FF920F931F936C017B019A01002708
:1007E000F7FC0095102FB801A7010E94A6038C0109
:1007F000C6010E940603080F191FC8011F910F911F
:10080000FF90EF90DF90CF900895EF92FF920F93BB
:100810001F937C010E9426038C01C7010E940603DE
:10082000080F191FC8011F910F91FF90EF900895B5
:100830001F920F920FB60F9211242F933F938F9315
:100840009F93AF93BF938091CE019091CF01A091E0
:10085000D001B091D1013091D2010196A11DB11DFD
:10086000232F2D5F2D3720F02D570196A11DB11D8F
:100870002093D2018093CE019093CF01A093D00119
:10088000B093D1018091CA019091CB01A091CC018C
:10089000B091CD010196A11DB11D8093CA01909325
:1008A000CB01A093CC01B093CD01BF91AF919F91AB
:1008B0008F913F912F910F900FBE0F901F90189521
:1008C000789484B5826084BD84B5816084BD85B52B
:1008D000826085BD85B5816085BDEEE6F0E08081F2
:1008E00081608083E1E8F0E0108280818260808313
:1008F000808181608083E0E8F0E080818160808396
:10090000E1EBF0E0808184608083E0EBF0E08081C7
:1009100081608083EAE7F0E0808184608083808169
:100920008260808380818160808380818068808311
:100930001092C1000895629FD001739FF001829FC1
:10094000E00DF11D649FE00DF11D929FF00D839F5E
:10095000F00D749FF00D659FF00D9927729FB00DFB
:10096000E11DF91F639FB00DE11DF91FBD01CF010E
:100970001124089597FB092E07260AD077FD04D08D
:100980002ED006D000201AF4709561957F4F0895FF
:10099000F6F7909581959F4F0895A1E21A2EAA1B14
:1009A000BB1BFD010DC0AA1FBB1FEE1FFF1FA2171F
:1009B000B307E407F50720F0A21BB30BE40BF50B1C
:1009C000661F771F881F991F1A9469F760957095A5
:1009D000809590959B01AC01BD01CF010895AA1BA4
:1009E000BB1B51E107C0AA1FBB1FA617B70710F01A
:1009F000A61BB70B881F991F5A95A9F7809590954C
:100A0000BC01CD010895EE0FFF1F0590F491E02D7C
:060A10000994F894FFCFE9
:100A160048656C6C6F204D6F746F210A00FFFF01F3
:100A2600000000003402DC02C701FB01DB012402E6
:00000001FF
