:100000000C94B9010C94CB010C94CB010C94CB0152
:100010000C94CB010C94CB010C94CB010C945605A1
:100020000C94CB010C94CB010C94B9100C94CB0123
:100030000C94CB010C9493100C94CB010C94CB0139
:100040000C94CB010C94CB010C94CB010C94CB0100
:100050000C94CB010C9457050C94CB010C94CB0160
:100060000C94CB010C94CB01706EE46D006B4D01D0
:100070000204020820010410041F111111111F04B1
:10008000001E0203021E0000000F0818080F0000E7
:100090001B1B1B1B1B1B1B001113171F171311000E
:1000A00011191D1F1D191100494345733D00494396
:1000B00045303D0056657273696F6E20312E3131C7
:1000C0006B002D07062D002A012020002D022D0097
:1000D0002D012D004E6F742063616C696272617432
:1000E00065642120466F72FF63616C69627261749E
:1000F000696F6E20636C616D62207468652033FFE8
:1001000070696E7320746F67657468657220616EC4
:1001100064207374617274207769746820746865F0
:10012000FF6B65792E2041636B6E6F776C6564673A
:1001300065207468652073656C662D746573742022
:100140007769746820746865206B657920776974B5
:1001500068696EFF32732E20446973636F6E6E653B
:1001600063742070696E73206166746572207468B0
:1001700065FF6D657373616765202269736F6C61DC
:100180007465FF50726F6265212220697320736865
:100190006F776E2E20536F66747761726520616E83
:1001A0006420646F63756D656E746174696F6E2031
:1001B00069732061742073766E3A2F2F206D696BFE
:1001C000726F636F6E74726F6C6C65722E206E65E9
:1001D000742F7472616E736973746F7220746573B7
:1001E0007465722000202049723D004C3D0020566D
:1001F0006C6F73733D00204553523D005643433DA1
:100200000043656C6C21002D032D004056673D00B6
:100210002056743D0055663D00203132333D00507C
:100220004E50004E504E00423D00433D002D494788
:100230004254004A464554002D4D4F53004F4B0049
:100240004261742E200054696D656F757421006FD2
:10025000722064616D6167656420004E6F2C2075AB
:100260006E6B6E6F776E2C206F720020756E6B6EEA
:100270006F776E00546879726973742E00547269D6
:10028000616300706172740064616D616765642010
:1002900000656D70747921007765616B005465733A
:1002A00074696E672E2E2E00BA03870358032E033F
:1002B0000703E402C302A40288020000140029001C
:1002C0003E005300690080009700AE00C600DF00CA
:1002D000F80012012D01490165018201A001BE0152
:1002E000DE01FF012102440268028E02B502DE0235
:1002F0000903350364039403C803FE03370473043E
:10030000B404F90443059305EA054906B306290731
:10031000AE074808FF08DE09AF57B950C24A9745F3
:100320001141133D87395A367E33E8308E2E692CC1
:10033000712AA128F5266925F923A22262213720F6
:100340001E1F161E1E1D341C571B851ABF190319AC
:100350005018A61704176A16D6154915C214411469
:10036000C5134E13DC126E1205129F113D11DF10E2
:10037000841011241FBECFEFD8E0DEBFCDBF11E047
:10038000A0E0B1E001C01D92A03AB107E1F70E94E0
:1003900037160C94A31C0C94000080FD5C9A80FF1F
:1003A0005C98549A00005D9A559A589859985A98B2
:1003B0005B9864FD589A509A65FD599A519A66FD6A
:1003C0005A9A529A67FD5B9A539A00005D9824D21C
:1003D00087FD10C05D9A589859985A985B9860FDAF
:1003E000589A61FD599A62FD5A9A63FD5B9A000022
:1003F0005D9812D208958FEE8F5C1F93182F81E0C5
:1004000003C01F93182F80E0612FC7DFFCD11F911D
:10041000089581E0F6DF82E001D280E8F2DF0895FE
:1004200086E0FCD180E860E3B8DF81E0F7D180E8C6
:1004300060E3B3DFE2D180E860E3AFDFDED180E8E4
:1004400060E2ABDF82E0EAD180E2DBDF80E2D9DF8D
:100450008AE2D7DF88E0D5DFDCDF86E0D2DF82E02A
:10046000D0DF81E0DBD18CE0CCDF0895EF92FF920A
:10047000CF93DF93E82EE7017E01F92EE70101C05B
:10048000BCDF89918823E1F7DF91CF91FF90EF9056
:100490000895CF93DF93EC01FE018591882329F025
:1004A000803819F0AADF2196F7CFDF91CF91089518
:1004B0000F931F93CF93DF938C01C0E0D0E0F8013E
:1004C000EC0FFD1F859199DF2196C830D105B9F752
:1004D000DF91CF911F910F9108951F9314E18BDF4E
:1004E0001150E9F71F91089580E88BDF089580ECA3
:1004F00088DF089584E985DF089584ED82DF08951B
:10050000089597FF09C08F939F938DE276DF9F91A7
:100510008F91909581959F4F65E171E04AE050E0A1
:100520000E94621CA3DF0895EF92FF920F931F9326
:10053000182F062FF42E89E192E0ABDFEE24E09134
:100540004B01F0914C018485E81611F4812F09C00C
:100550008285E81611F4802F04C08385E81611F413
:100560008F2D4BDFE3948E2D833049F71F910F9130
:10057000FF90EF9008950F93EFE1F1E0880F880F5F
:10058000880FE80FF11D608171818281938164364B
:1005900071058105910570F420910001222351F429
:1005A000848165810E949A13BC0180E090E04EEF47
:1005B00003E002C04FEF04E024EF5BD01CDF0F919B
:1005C00008950F93833078F4E4E9F1E0E80FF11D2A
:1005D000E80FF11D60817181812D912D4DEF26E590
:1005E00003E047D008DF0F9108951F93182F8091E3
:1005F0006E01882319F0FFDE80E0FFDE78DF85E101
:1006000092E047DF812F82958F70DBDF812F8F7023
:10061000D8DF1F910895DF92EF92FF920F931F93FF
:10062000CF93DF93D0900B018D2D82958F70C8E80A
:10063000D1E07E01E80EF11CF7018081DDDE00EDE6
:1006400010E0C80126DFF7018681D6DEC80121DF70
:100650008D2D8370C80FD11D8E81CEDE80910B0150
:10066000C4DFDF91CF911F910F91FF90EF90DF904A
:1006700008958F929F92AF92BF92CF92DF92EF92A6
:10068000FF920F931F93CF93DF93DC01CB01142FC5
:10069000C22F033029F0043031F024E630E005C0E9
:1006A00028EE33E002C020E137E26901E12CF12CB1
:1006B0002AE0822E912CA12CB12C8C159D05AE0523
:1006C000BF0570F0BC01CD016B5F7F4F8F4F9F4F17
:1006D000A50194010E94401CDA01C9011F5FEDCF02
:1006E000145F17FD04C0133118F012E101C010E0CF
:1006F0000BEA109F012D11240695202F220F200FA9
:10070000121B21F00F5F23E0211B122F4AE050E063
:100710006FE371E00E94621CAFE3B1E00D90002036
:10072000E9F71197AF53B140AA2EE02FF0E0E85956
:10073000FF4FB490DA2FD11B1D1644F08EE20E94B9
:10074000FD01DD2319F080E30E94FD01111101C0BC
:10075000DFEF8FE3E82E81E0F82E8701CD2EDD2438
:10076000C7FCD094802F8E198A1578F4F8018191F6
:100770008F010E94FD0198012F5331402C153D053A
:1007800089F78EE20E94FD01EDCFBB2019F08B2D81
:100790000E94FD01CC2379F08C2FDF91CF911F9126
:1007A0000F91FF90EF90DF90CF90BF90AF909F9010
:1007B0008F900C94FD01DF91CF911F910F91FF90CD
:1007C000EF90DF90CF90BF90AF909F908F90089563
:1007D000089503D002D001D000D000D003D002D0C1
:1007E00001D000D0A89500D003D002D001D000D015
:1007F00000D003D002D001D000D000D003D002D06E
:1008000001D000D000D003D002D001D000D000D061
:1008100003D002D001D000D00000089590E0893CC0
:1008200028F0885C48EC849FC0011124009709F4EB
:10083000089520918100277019F0DBDF019716C021
:100840008130910519F002973EE303C037E180E063
:1008500090E02091B200230F2093B30042E0409338
:10086000700027E023BF889526E023BFA895DECF40
:100870008F9384E0D3DF07C08F9382E0CFDF03C084
:100880008F9381E0CBDF8F911F93182F106410930B
:100890007C00E12FE07880913801E81759F0E0936F
:1008A0003801B0DF8EE980937A0083E083BF8895BA
:1008B00082E083BF20E030E0A901E0E01FC08EE9C4
:1008C00080937A0083E083BF889582E083BF609144
:1008D000780070917900260F371F411D511DE430BB
:1008E00061F480913A01803041F084E02030380793
:1008F00020F417FD02C01068CACFEF5F8091370166
:10090000E817E8F260913B0170913C0117FF04C0C9
:100910006091390170913A0180E090E00E941C1CC6
:100920002FEF33E040E050E00E94401CB901CA01C3
:100930002091370130E040E050E00E94401CC901A6
:100940001F910895EF92FF920F931F93CF93DF9320
:10095000F82EE92EC5E64F9B05C0CF2DDE2D05E50F
:1009600010E01BC081E00E940E04C150A1F7F5CF3A
:1009700082E00E940E04000F4F9B0F5F0F730F3336
:1009800079F4111103C0CF2DDE2D14E01F5F16394D
:1009900090F4A8951C161D0644F0D7FFE9CF0BC0B4
:1009A0000111F7CF1123A9F306C02A972097A9F7C1
:1009B000CFEFDFEFF2CF812FDF91CF911F910F911A
:1009C000FF90EF90089588E893E10E94A2040E94AE
:1009D00077020E946D020C94770220913D013091C4
:1009E0003E01245F311D20930E0130930F0183E0FF
:1009F000283E380720F0C901885E934002C080E09D
:100A000090E062E370E00E942C1C683008F067E020
:100A1000E8EAF2E0E60FF11DE60FF11D4591559170
:100A20002591359162E3681B421B530B649FC00103
:100A3000659F900D1124499662E370E00E942C1C82
:100A4000620F731F709371016093700163E070E037
:100A500080913D0190913E01860F971F90933A013E
:100A60008093390190936D0180936C010895CF9329
:100A7000DF9324E130E0B9010E942C1CDC01EAEB99
:100A8000F2E0E60FF71FE60FF71FC591D5914591EC
:100A900055914C1B4A9FC0011124B9010E942C1C86
:100AA0006C0F7D1FCB01DF91CF910895189518959C
:100AB0000F93CF93DF93E82FF0E0E159FF4FE491DC
:100AC000E8B9E7B915B8E62FF0E0EE58FF4FE4912A
:100AD000E4B9862F0E944004EC010097E9F085EE0E
:100AE00091E00E944902DE0120EA36E841E050E050
:100AF0000E94111C28E937EB40E050E00E94401CA6
:100B0000CA01B9018827992702E021E447EF0E9432
:100B1000390317B818B814B8DF91CF910F91089521
:100B20002F923F924F925F926F927F928F929F92FD
:100B3000AF92BF92CF92DF92EF92FF920F931F93EB
:100B4000CF93DF93CDB7DEB767970FB6F894DEBFCC
:100B50000FBECDBF982E862E342EA895862F90E0FE
:100B6000FC01EB58FF4F24912A87FC01EE58FF4F00
:100B700034913F87242F30E0F901EB58FF4F649008
:100B8000F901EE58FF4F44914A83292D30E0F901D5
:100B9000EB58FF4F7490F901EE58FF4F54915B876B
:100BA000F901E159FF4F2490FC01E159FF4F849175
:100BB000898365B89A8596299E8394B927B828B801
:100BC000862F0E9440049D838C83AA85A4B9882D1A
:100BD0000E9440042C0114B80E94F90315B8BE818C
:100BE000B4B9882D0E944004EC81FD818E179F07C7
:100BF00038F5805E9E4FE817F90708F415C4F981AF
:100C0000F7B918B875B8872D862984B920913B01AA
:100C100030913C013D832C83892D0E9440044C81FE
:100C20005D81481B590B5D834C8374B840903B0138
:100C300050903C01892D0E944004481A590A08C06E
:100C40002C813D81205E3E4F8217930708F4ECC350
:100C500020915A0180916B0190E0820F911D0297C3
:100C60004CF0213009F0E0C3909157018091680168
:100C70009813DAC38C819D818437910508F4A7C04D
:100C8000880F991F44964816590608F0A0C027B847
:100C900028B88A859A81892B84B9882D0E943C04C2
:100CA0008C01832D0E9444047C01AA81A5B9882D62
:100CB0000E943C049801295A3D4F4A81472918B89F
:100CC00028173907C0F5B981B7B944B945B9832D9B
:100CD0000E943C0488349F4028F084E080931201F5
:100CE00082E204C084E08093120184E280931101C7
:100CF0001093520100935101E016F10640F4C8012F
:100D00008E199F09909356018093550104C010924B
:100D10005601109255019801A8EEB3E00E94021C02
:100D200028E53BE140E050E00E94401C3093540134
:100D30002093530171C3F981F7B944B945B9892D9D
:100D40000E943C048C01832D0E9444047C0175B8F0
:100D5000892D0E943C04895A9D4F8017910708F005
:100D600063C328B827B8832D0E943C04813D93407B
:100D700028F484E08093120182E304C084E080932D
:100D8000120184E3809311010E151F0538F4E01A57
:100D9000F10AF0926701E092660104C010926701C7
:100DA0001092660120913B0130913C01201B310BD8
:100DB000A8EEB3E00E94021C2CE63BE140E050E0CC
:100DC0000E94401C309365012093640154C118B8FF
:100DD000398137B975B8472D46294C8744B9892DD3
:100DE0000E9440049987888700913B0110913C0143
:100DF000832D0E9444049E8B8D8B0A9730F514B886
:100E000081E00E940E048A81872984B9892D0E947D
:100E100040049987888700913B0110913C01081B91
:100E2000190B832D0E9444049E8B8D8B9801ADE994
:100E3000B2E00E94021CAD89BE899D0140E050E0F5
:100E40000E94401C59016A010FC0C801E885F9855C
:100E50008E1B9F0B2D893E89821B930BB9010E942B
:100E60002C1C5B01C12CD12C14B815B828B827B89C
:100E700081E00E940E0439EB431637E0530608F078
:100E8000D3C24E8144B9882D0E9440048F359D40C5
:100E900008F4F7C014B881E00E940E048A859A8194
:100EA000892B8D8784B9882D0E9440048C01832D65
:100EB0000E9444047C01892D0E944404998B888BF4
:100EC000A1EDEA16A7E0FA0608F481C083E080935A
:100ED00012018DE0809311014016510610F404199F
:100EE00015099801AFE9B2E00E94021C870120E0D9
:100EF00030E0A90198010E94401C80916B01882379
:100F000069F080915E0190915F01A0916001B091C4
:100F1000610182179307A407B50790F420935E013F
:100F200030935F014093600150936101E889F98932
:100F3000EE19FF09F0936301E093620121E001C023
:100F400020E080915E0190915F01A0916001B091DD
:100F500061018A159B05AC05BD0598F4A0925E0160
:100F6000B0925F01C0926001D0926101888599853D
:100F70002D893E89821B930B9093630180936201BC
:100F800003C0222309F4B8C39201A8EEB3E00E9483
:100F9000021C18E5C12E1BE1D12EE12CF12CA7017A
:100FA00096010E94401C30936501209364012C81BE
:100FB0003D81A8EEB3E00E94021CA70196010E94A9
:100FC000401C309367012093660121E095C331E610
:100FD0004316510408F055C0013D47E0140708F4DA
:100FE00050C084E08093120106501F4F8889998970
:100FF0000817190710F082E101C083E18093110105
:1010000099819770E92E832D806480937C00ABE0FA
:10101000FA2ECC24C394D12C0FEF13E0A89561E0F5
:10102000862D0E94E50C2D8524B986B18E21E9F329
:101030003A8534B980917A00806480937A008091F7
:101040007A0086FDFCCF8091780090917900A8010C
:10105000481B590BC40ED51EFA9401F7C601880F20
:10106000991F880F991F69E070E00E942C1C7093F3
:1010700067016093660180916B018F5F80936B01C4
:10108000A4CF5E8154B965B8882D0E9440049F8327
:101090008E83832D0E9444049987888760913B0149
:1010A00070913C01681B790B6A30710540F514B8EA
:1010B00081E00E940E048A859A81892B84B995B9B2
:1010C000882D0E9440049F838E83832D0E944404B8
:1010D000998788872E813F81AFE9B2E00E94021C88
:1010E00020913B0130913C01A885B9852A1B3B0B1F
:1010F00040E050E00E94401C69017A0109C08E81E5
:101100009F81861B970B0E942C1C6B01E12CF12CFC
:10111000B981B7B918B8EC85E4B9E5B9892D0E9451
:1011200040048C01832D0E9444049E878D87882D66
:101130000E9444045C010034F6E01F0708F072C10D
:1011400075B8892D0E9440049C0174B8892D2F8B9D
:101150003C8B0E944004BC0115B881E06A8B7B8BFC
:101160000E940E0475B8892D0E9440046A897B890B
:101170002F893C896034764008F058C08133914112
:1011800008F454C0C8018A569F4F2817390708F041
:101190004DC085E08093120180915A018F5F80934A
:1011A0005A018D859E858A199B09909352018093DF
:1011B00051010A191B09109356010093550114B8E7
:1011C00015B8898188B981E00E940E0474B8892D10
:1011D0000E944004853F910508F09CC29C8594B90B
:1011E000832D0E944004813D934008F493C2892DD1
:1011F0000E9444048D3D924008F48CC274B8892D3D
:101200000E9440048D3D924008F484C275B881E08C
:101210000E940E0415B8892D0E944004853F910557
:1012200008F078C286E08093120174C22A812729CF
:1012300024B925B9892D2F8B0E943804AC01009167
:101240003B0110913C01081B190B832D4A8B5B8BD2
:101250000E9444049B838A83A0903B01B0903C0190
:10126000A81AB90A882D0E9444049E878D872F8969
:101270004A895B89FEEFAF16F9E0BF0608F47EC02D
:1012800083E0809312018CE0809311014016510697
:1012900010F4041915099801ADE9B2E00E94021C8E
:1012A000950140E050E00E94401C80915A01882343
:1012B00069F080914D0190914E01A0914F01B09144
:1012C000500182179307A407B507A0F420934D019E
:1012D00030934E0140934F01509350018A819B817E
:1012E0002D853E85821B930B909352018093510173
:1012F00021E001C020E080914D0190914E01A0912C
:101300004F01B09150018C159D05AE05BF0598F4B5
:10131000C0924D01D0924E01E0924F01F0925001E7
:10132000888599854E815F81841B950B909352012E
:101330008093510103C0222309F4EDC19201A8EE6C
:10134000B3E00E94021C28E53BE140E050E00E942F
:10135000401C30935401209353012C813D81A8EE11
:10136000B3E00E94021C2CE63BE140E050E00E940A
:10137000401C3093560120935501CCC181E648169C
:10138000510408F04FC009341D4008F44BC084E0FC
:101390008093120182E0809311018D859E85865095
:1013A0009F4F8417950718F483E080931101022D55
:1013B0000770832D806480937C001BE0EE24E3940F
:1013C000F12CA89560E0862D2F8B0E94E50C2F89CB
:1013D00024B925B986B18023E9F774B880917A00E1
:1013E000806480937A0080917A0086FDFCCF8091A2
:1013F000780090917900E80EF91E115011F7C7019D
:10140000880F991F880F991F69E070E00E942C1CBB
:10141000709356016093550180915A018F5F8093BC
:101420005A0178C117B818B814B815B817B8A7EC8E
:101430004A16A1E05A0608F4A8C018B818EC0981A9
:10144000022907B981E00E940E04B981B7B9892D3C
:101450000E944404429710F0115099F7EB85E4B9CB
:10146000E5B961E0862D0E94E50C892D0E944004BB
:101470008C01FF85F4B915B827B828B860E0862D2F
:101480000E94E50CA0903B01B0903C01882D0E9489
:1014900040046C012A8524B9892D0E9440042C0146
:1014A000882D0E944404481A590A18B8398137B95E
:1014B00074B875B861E0862D0E94E50C892D0E94F4
:1014C00040047C01882D0E944404E81AF90A4E1455
:1014D0005F0440F44B8544B945B9892D0E9440040E
:1014E000270117C085010C191D095F8554B915B86E
:1014F00027B828B860E0862D0E94E50CE0903B01FB
:10150000F0903C01882D0E944004D701A81BB90B24
:10151000CD0192012759310929383141B0F584159F
:10152000950598F5C80163E0969587956A95E1F76A
:10153000893C910510F088EC90E0800F911F841594
:10154000950518F5C20154E0969587955A95E1F7EF
:1015500080179107D0F480911201823018F482E054
:101560008093120180911001E82FF0E0DF01A8576D
:10157000BE4F9C9216968C92EE0FFF1FEC56FE4FBC
:10158000518240828F5F8093100120916B01809186
:101590005A0190E0820F911D892B09F090C0A89507
:1015A00080913B0190913C01880F991F880F991FF2
:1015B00090933C0180933B018091390190913A01D5
:1015C000880F991F880F991F90933A0180933901D2
:1015D0008EEB8093370118B8E981E7B974B875B814
:1015E00018E1C12CD12C882D0E944004582E492E80
:1015F000892D0E9444047C018C199D0997FF03C02A
:10160000919581959109039734F0A895115009F4AB
:101610003FC06701E8CF15B8EB85E4B9892D0E947A
:10162000400481359105A0F5FB85F5B9892D0E940F
:1016300040048C0127B828B815B82A8524B988E158
:10164000B82EC12CD12C892D0E944004782E692EF1
:10165000882D0E9444049B838A838C199D0997FFDF
:1016600003C091958195910903970CF062C0FF85A5
:10167000F4B9882D0E9440045C0120ECE21624E4B9
:10168000F20608F05DC0053831E0130708F45DC0CC
:1016900080913B0190913C01969587959695879511
:1016A00090933C0180933B0180916C0190916D017E
:1016B00090933A018093390185E08093370117B800
:1016C00018B814B815B867960FB6F894DEBF0FBEF9
:1016D000CDBFDF91CF911F910F91FF90EF90DF90E1
:1016E000CF90BF90AF909F908F907F906F905F90C2
:1016F0004F903F902F90089580916B018F5F809362
:101700006B012223E1F2309268018092690190928C
:101710006A01D5CF21E080915A018F5F80935A01F1
:10172000222369F230925701909258018092590118
:10173000C6CFA895BA9409F4ABCFCA80DB8083CF1B
:10174000003B4DE4140708F0A3CFC0903B01D090BC
:101750003C018A819B81843A924008F060C0B8E9DC
:10176000AB16B10408F494CF9801A8E9B7EB0E9436
:10177000021C9601201B310B40E050E00E94401CEF
:1017800029013A0196012A193B09A8E9B7EB0E9401
:10179000021C6501E12CF12CA70196010E94401C5E
:1017A00008371F4070F4C301B201B2E0660F771F23
:1017B000881F991FBA95D1F7620F731F841F951F59
:1017C00012C0F8E7AF16FFE0BF06A0F4CA01B901E6
:1017D000A2E0660F771F881F991FAA95D1F7640DA5
:1017E000751D861D971D25E030E040E050E00E9409
:1017F000401C08C0240D351D461D571D56954795A4
:1018000037952795A4E6B0E00E94111C6B017C017E
:101810002CEAC20E2DE0D21EE11CF11C71C0252D58
:10182000342DE216F30608F49701072D162D4A8190
:101830005B810417150708F48A0159012E153F052D
:1018400008F45701C501821B930B9C01ACE6BBE178
:101850000E94021C96012A193B0940E050E00E94B8
:10186000401C29013A017801AA81BB81A017B10768
:1018700008F47D0198012E193F09A8E5BBE10E94FB
:10188000021C870120E030E0A90198010E94401C61
:10189000B8E7AB16BFE0BB0670F4C301B201E2E0EB
:1018A000660F771F881F991FEA95D1F7620F731F84
:1018B000841F951F12C0E8E7EE16EFE0FE06B0F4B5
:1018C000CA01B90142E0660F771F881F991F4A9528
:1018D000D1F7640D751D861D971D25E030E040E0B1
:1018E00050E00E94401C69017A010AC069017A0136
:1018F000C40CD51CE61CF71CF694E794D794C79447
:1019000010911201133008F0C3CE80916E0188232C
:1019100009F447C0F8E08F9F300111249301295E3C
:101920003E4F3901D90116969C911697931131C0FB
:101930008D909D90AD90BC90A70196012819390912
:101940004A095B0957FF07C050954095309521958E
:101950003F4F4F4F5F4FAAE0B0E00E94111CA5011E
:1019600094012C593F4F4F4F5F4F2C0D3D1D4E1D85
:101970005F1D0E94401C232B242B252B09F088CEB1
:10198000123019F081E08093120181E0F301878326
:101990007FCED90117969C91911103C081508093FD
:1019A0006E0180916E01B8E08B9FF0011124E15E21
:1019B000FE4FC082D182E282F38284829582368297
:1019C00017828F5F80936E0163CECF93C82FC0952F
:1019D00095B160FF02C0982B01C09C2395B994B1CA
:1019E000982B94B982E00E940E0484B18C2384B9B0
:1019F00085B18C2385B9CF910895BF92CF92DF92A4
:101A0000EF92FF920F931F93CF93DF938AE0D82E2C
:101A10009FE3B92E28E0C22E17B818B815B8B4B88D
:101A200080E00E9440048C0181E00E944404EC01AB
:101A300082E00E94440420911201283079F417B802
:101A400014B81093020100930101D0930401C093D4
:101A50000301909306018093050158C031E0C43022
:101A6000D10508F030E021E00430110508F020E055
:101A7000232319F08430910510F321E0083E134030
:101A800008F020E0C83ED34008F42260883E93402E
:101A900008F4246027B9C0E0D0E0A89580E00E9457
:101AA00038047C0181E00E9444048C0182E00E94A1
:101AB000440424E1E21625E0F20608F4389A0431E1
:101AC00035E0130708F4399A843125E0920708F4C9
:101AD0003A9A36E0E316F10428F40630110510F4C2
:101AE000069738F02196C43F81E0D807B1F6C0923E
:101AF000120100E010E00C171D0729F00E94FD0301
:101B00000F5F1F4FF8CFDA9409F086CFDF91CF91A6
:101B10001F910F91FF90EF90DF90CF90BF900895AD
:101B2000CF92DF92EF92FF92CF932091720130918A
:101B300073014091740150917501C09184018AE054
:101B4000C82ED12CE12CF12C8C2FCF5F213A96E8B6
:101B5000390791E04907510538F0CA01B901A701D9
:101B600096010E94401CF0CF80938401A0913B011C
:101B7000B0913C010E94111C28E833E140E050E0A4
:101B80000E94401C209372013093730140937401B2
:101B900050937501CF91FF90EF90DF90CF90089513
:101BA0004F925F926F927F928F929F92AF92BF926D
:101BB000CF92DF92EF92FF921F93CF93DF93C82FC4
:101BC000162FE62FF0E0E159FF4FB490E82FF0E038
:101BD000EB58FF4FD49180911201813009F493C2E8
:101BE000409110018EE891E064E971E0DC012A2F58
:101BF000281B2417A0F42D9121130EC09D012750FE
:101C00003109F90120812C1307C0FB0120813181AA
:101C10002C3D354008F477C26E5F7F4FE8CF1092BD
:101C20007F0110927E011092720110927301109246
:101C300074011092750184EF809384010E94FD0C61
:101C400018B815B8B7B814B88C2F0E9444046C01AA
:101C500010925D0110925C017C0180915C01909179
:101C60005D01843F914080F5D5B9D4B90E94F80355
:101C700014B815B80E94FE03A8958C2F0E94440446
:101C8000C816D90620F47C01EC18FD0802C0E12C2E
:101C9000F12C80915C0190915D018E37910528F0C7
:101CA0002BE4E216F10408F42AC25DE2E51651E0E5
:101CB000F50680F480915C0190915D01019690930E
:101CC0005D0180935C01C9CFFDE2EF16F1E0FF06F4
:101CD00008F415C280915C0190915D01892B21F07F
:101CE000C701A12CB12C06C025E1E21625E0F206C1
:101CF000B8F382C020915C0130915D012A153B054B
:101D000050F00E94F9038C2F0E944404A8955FEFC5
:101D1000A51AB50AEFCFC816D90630F48C199D095B
:101D20008E159F05D0F402C080E090E05701A81AFC
:101D3000B90AA9F089ECA816B10408F0E0C1950130
:101D4000A8EEB3E00E94021C2701612C712CA301B4
:101D500092010E94401C690104C0A12CB12CC12C2D
:101D6000D12C80905C0190905D01EFEF8E1A9E0A5D
:101D7000C401A0E0B0E080937A0190937B01A0932E
:101D80007C01B0937D01C5018E0D9F1D0E94DB106B
:101D90009C01D4010E94021C60937A0170937B0124
:101DA00080937C0190937D01609372017093730125
:101DB000809374019093750187EF809384010E9452
:101DC000900D2091720130917301409174015091F6
:101DD0007501A8EEB3E00E94111C24E630E040E05B
:101DE00050E00E94401C2093720130937301409395
:101DF00074015093750141C10E94FD0C15B887E034
:101E000087B918B8FD2EFF0CF4B880E480937B00EE
:101E100084E580BF8C2F806480937C0086E1809372
:101E20007A000E94010410925D0110925C011092F0
:101E30008000109285001092840087E286BB81E2C8
:101E400080936F0081E080936F01F5B8909112014B
:101E500080938100943059F481E090E00C2E01C011
:101E6000880F0A94EAF78095877087B901C0B7B8E0
:101E7000F89483B7817F83BF80916F01882389F0B5
:101E800083B7816083BF7894889583B78E7F83BF43
:101E9000F894A89580915C0190915D018034964002
:101EA00059F7789410928100E0908600F0908700B6
:101EB00010926F0086E980937A0014B815B88C2FC1
:101EC0000E94440420913D0130913E01821B930BFE
:101ED0000C96909387018093860180915C0190918C
:101EE0005D018032934008F00AC180915C019091BD
:101EF0005D0190937D0180937C01F0927B01E092E3
:101F00007A0184EF8093840180915C0190915D015E
:101F100082349105C8F060917A0170917B018091C3
:101F20007C0190917D0124E630E040E050E00E9489
:101F3000401C20937A0130937B0140937C015093A5
:101F40007D0186EF80938401A0917001B0917101B1
:101F500020917A0130917B0140917C0150917D016B
:101F60000E94111C20E233E040E050E00E94401C3F
:101F700020937A0130937B0140937C0150937D0143
:101F80002093720130937301409374015093750153
:101F90000E94900D80918401843F09F05EC0C09042
:101FA0007201D0907301E0907401F090750150EAD5
:101FB000C5165FE0D506E104F104C0F4A70196015F
:101FC0002C543F4F4F4F5F4F60EA7FE080E090E03E
:101FD0000E94401C2C0D3D1D4E1D5F1D2093720163
:101FE000309373014093740150937501C130A1F493
:101FF000409172015091730160917401709175016B
:102000004E5F5F4F6F4F7F4F40937201509373014C
:1020100060937401709375018091720190917301C6
:10202000A0917401B09175018A339105A105B105A4
:1020300060F0C997A109B10980937201909373016F
:10204000A0937401B093750108C0109272011092B0
:1020500073011092740110927501D4B980917201CC
:1020600090917301A0917401B09175014997A105F8
:10207000B10508F444C0C12CD12C809110018823F3
:1020800021F0809112018430D1F587E08093120114
:1020900020918401809185018217BCF028132FC004
:1020A00040917201509173016091740170917501BA
:1020B0008091760190917701A0917801B09179019A
:1020C00084179507A607B707D0F480917201909105
:1020D0007301A0917401B091750180937601909382
:1020E0007701A0937801B093790120938501D09274
:1020F0008101C092800110938201C093830117B8BF
:1021000018B814B815B8DF91CF911F91FF90EF90D8
:10211000DF90CF90BF90AF909F908F907F906F9007
:102120005F904F9008951F920F920FB60F92112457
:102130008F939F93B59904C080916F01811109C05D
:10214000B59B10C080918600909187008A3F9105D1
:1021500048F480915C0190915D01019690935D013E
:1021600080935C019F918F910F900FBE0F901F90F5
:1021700018951F920F920FB60F9211248F939F9371
:1021800010926F01B09B10C08091860090918700E3
:102190008A3F910548F480915C0190915D01019620
:1021A00090935D0180935C019F918F910F900FBE82
:1021B0000F901F9018950F9221E08C32920710F427
:1021C0008CE291E08C52914069E170E00E942C1CFD
:1021D00099E16B3210F0982F6BE2981BE8E1F3E085
:1021E000E60FF11DE60FF11D4591559125913591B1
:1021F000692F421B530B649FC001659F900D1124F2
:102200000C9669E170E00E942C1C620F731FCB01D9
:102210000F90089588E893E190933C0180933B01EF
:102220008EEB8093370118B880E187B90E940604CD
:1022300017B884E00E944004AC018B5C9840833F57
:102240009140A0F481E080934A0120913B013091BC
:102250003C01AFEBB9E00E94021C9A0140E050E063
:102260000E94401C30933C0120933B018EE00E9471
:1022700044048EE00E94400490933E0180933D010F
:102280000E94ED0485E08093370108952F923F92DC
:102290004F925F926F927F928F929F92AF92BF9276
:1022A000CF92DF92EF92FF920F931F93CF93DF9322
:1022B000CDB7DEB760970FB6F894DEBF0FBECDBFC7
:1022C0001092000180911201813009F01AC28091B0
:1022D0006E01813009F015C280911F01909120019B
:1022E000A0912101B091220189309245A105B1054B
:1022F00008F007C2312C80912301A090240131E025
:10230000331510F0B82E02C0BA2CA82EEA2DF0E03A
:10231000E159FF4F74908B2D90E0FC01EB58FF4F7B
:10232000E49115B818B840911F01509120016091B7
:10233000210170912201403F51056105710580F432
:1023400030FC0EC021E030E00B2C02C0220F331F06
:102350000A94E2F7C901872987B908EC10E004C0A4
:10236000E4B977B808E51BE144E1642E8B2D0E94A7
:102370003C044C018A2D0E94440432E083169104EF
:1023800010F4029710F06A9489F760E460937B0080
:1023900084E580BF8B2D806480937C0086E18093F0
:1023A0007A00E12CF12C109280001092850010929E
:1023B000840087E286BB0E940104832D8170282E51
:1023C00030FC05C081E88093810078B808C078B8F7
:1023D0000E940A0480E286BB81E88093810046B3B4
:1023E00045FF11C01092810080E286BB809186007B
:1023F000909187006C0120918400309185008217B4
:10240000930768F013C040FFEACF91E096BBA89510
:10241000C70101967C018035910509F7E3CF40FFA4
:1024200005C021E026BB3FEFE31AF30A18B886E99E
:1024300080937A0034E1732E8B2D0E943C044C0172
:102440008A2D0E94440462E08616910410F40297DB
:1024500010F07A9489F780901F019090200188EC09
:10246000880E911C800E911E20910E0130910F015B
:1024700000399AE11907B0F461EEC616D104E104FF
:10248000F10438F4C60165E070E00E942C1C645130
:1024900001C069E128523109261B310967FD3395D6
:1024A00086E009C0C40160EB76E30E942C1C87E043
:1024B000860F285D3F4F90E0A0E0B0E08C159D05B1
:1024C000AE05BF0528F4C81AD90AEA0AFB0A03C0F8
:1024D000C12CD12C7601222029F082E2C80ED11C19
:1024E000E11CF11C90E5E916F10418F0C12CD12C87
:1024F00076016BE0C616D104E104F10428F081E016
:10250000C81AD108E108F10840913B0150913C0103
:10251000A12CB12CA8EEB3E00E94021C2B013C01BF
:102520009801DA010E94021CA50194010E94401C3E
:1025300044275527C301B2010E94401CC9010E94D3
:102540003705FC01A5019401C701B6010E941C1CBE
:102550004B015C01BF0180E090E023E0660F771F34
:10256000881F991F2A95D1F76B5F7F4F8F4F9F4F21
:102570002AE030E040E050E00E94401CC501B40178
:102580000E94401C832D90E0E1E0F0E0EC0FFD1F85
:1025900064E0369EE00DF11D1124208331834283D7
:1025A0005383211017C06CE0C616D104E104F10476
:1025B00088F0FC013196EE0FFF1FEE0FFF1F81E048
:1025C00090E08C0F9D1FE80FF91F20833183428319
:1025D00053833394A895339493E0931508F08BCEEE
:1025E00018B884E00E940E0421E04D815E816F8165
:1025F000788589819A81AB81BC8184179507A6076C
:10260000B70708F020E04D855E856F85788989855C
:102610009A85AB85BC8584179507A607B70710F088
:1026200032E001C033E0E22FF0E0EE0FFF1FEE0FCB
:10263000FF1F81E090E08C0F9D1FE80FF91FDC0168
:1026400094E0399FA00DB11D11244D915D916D91C4
:102650007C9180819181A281B381481759076A07D3
:102660007B0708F0322FE1E0F0E0EC0FFD1F24E0E3
:10267000329FE00DF11D112480819181A281B381EF
:102680008093070190930801A0930901B0930A0178
:102690002BEF2093000130FD0DC040911F015091A0
:1026A00020016091210170912201403F5105610597
:1026B0007105B8F02CEF20930001BC01CD016B5FD8
:1026C0007F4F8F4F9F4F2AE030E040E050E00E9464
:1026D000401C209307013093080140930901509357
:1026E0000A018091070190910801A0910901B09120
:1026F0000A01892B8A2B8B2B11F41092000117B839
:1027000014B860960FB6F894DEBF0FBECDBFDF9150
:10271000CF911F910F91FF90EF90DF90CF90BF90DE
:10272000AF909F908F907F906F905F904F903F9071
:102730002F9008952F923F924F925F926F927F92C7
:102740008F929F92AF92BF92CF92DF92EF92FF92C1
:102750000F931F93DF93CF93CDB7DEB76E970FB66E
:10276000F894DEBF0FBECDBF662EB82E860F8983CC
:1027700020911201273019F52091760130917701CF
:1027800040917801509179011091850109C0CA01E9
:10279000B9012AE0312D412D512D0E94401C1F5FAF
:1027A000173FACF32C8B3D8B4E8B5F8B243B60E053
:1027B00036074105510518F48FEF9FEF67C126EDED
:1027C000A22E02C094EDA92EEFE6F0E0E60DF11D79
:1027D000859180608E87EFE6F0E0EB0DF11D85912D
:1027E00080608F87E5E7F0E0E60DF11D7590E5E785
:1027F000F0E0EB0DF11DC59090EC692AB92A81E05B
:10280000E82EF12C012D112D8E831F82188619863A
:102810001A861B861C861D86188E198E0E94FD0C3A
:1028200080E088B960927C000E9402043F8537B93D
:1028300075B874B80E9407040E940B0415B814B848
:10284000DD24B4ED9B2EA6ED8A2E3E8537B975B8F2
:1028500074B860927C00A895A0927A0080917A006A
:1028600086FDFCCFA0927A0080917A0086FDFCCF95
:102870002090780030907900B0927C00A0927A008D
:1028800080917A0086FDFCCF80927A000E94080435
:10289000C5B8C4B80E9406040E9408040E940C0433
:1028A0008F938F91A895A89514B815B880917A0048
:1028B00086FDFCCF2091780030917900288B398BF0
:1028C0003F8537B9C5B8C4B8A895B0927C00A0922E
:1028D0007A0080917A0086FDFCCFA0927A008091E8
:1028E0007A0086FDFCCF609178007091790060924B
:1028F0007C00A0927A0080917A0086FDFCCF8092C5
:102900007A000E94080475B874B80E9406040E94F8
:1029100008040E940C048F938F91A895A89514B871
:1029200015B880917A0086FDFCCF409178005091D7
:10293000790014B8CB01820D931DE80EF91E011D1C
:10294000111DEA82FB820C831D8388899989840F7B
:10295000951F2E813F8168857985280F391F611D5C
:10296000711D2E833F836887798724E62417150617
:1029700050F075B874B80E940B0414B815B8888D5F
:102980008395888F07C0483E73E0570718F08A8DFB
:1029900083958A8F8889998928171906B0F03E8512
:1029A00037B9C5B8C4B80E940B040E9406040E943F
:1029B00008040E940C048F938F91A895A89514B8D1
:1029C00015B8898D8395898F07C0883E73E0970776
:1029D00018F08B8D83958B8FD3945D2D5F3F09F01D
:1029E00034CF20ED37E02901570168016E807F80E8
:1029F00088849984209112012730C1F46C897D89E3
:102A00008E899F899B01AC016D5E7F4F8F4F9F4FD9
:102A10000E941C1C9B01AC016FE670EF85E89AE1F7
:102A20000E94401C621A730A840A950AA614B7040D
:102A3000C804D90428F46A187B088C089D0803C0D0
:102A4000662477244301B20180E090E09301A40161
:102A50000E941C1C9501A6010E94401C80E090E091
:102A60007981870F911D0E94781C682EC90160E151
:102A700070E00E942C1C260F371FC901681619062A
:102A800018F48619910902C0812D912D6E960FB60A
:102A9000F894DEBF0FBECDBFCF91DF911F910F9194
:102AA000FF90EF90DF90CF90BF90AF909F908F906E
:102AB0007F906F905F904F903F902F9008958F92EE
:102AC0009F92AF92BF92CF92DF92EF92FF920F93BD
:102AD0001F93CF93DF938091800190918101892B87
:102AE00009F09AC0E0918201F0E0E159FF4FC491F2
:102AF000E0918301F0E0EB58FF4F14910E94FD0C30
:102B000018B815B8C7B914B9809183010E9444045C
:102B1000EC0100918501083F0CF07EC0045FC0907D
:102B20007601D0907701E0907801F09079018AE009
:102B3000882E912CA12CB12C043070F4C701B60161
:102B40006B5F7F4F8F4F9F4FA50194010E94401CE8
:102B50000F5F69017A01F0CFD701C6010197A10982
:102B6000B10988389341A105B10508F055C015B9E0
:102B700014B9A12CB12CAC14BD0430F40E9408048B
:102B800082E0A80EB11CF7CF14B815B8A89585E05F
:102B900080933701809183010E944404C817D907AC
:102BA00020F45C01AC1ABD0A02C0A12CB12C812C0E
:102BB000912C8C149D0430F40E9408042FEF821A8B
:102BC000920AF7CF809183010E94440425E020936C
:102BD0003701A895C817D90718F48C1B9D0B02C0A4
:102BE00080E090E08A159B0588F49501281B390B3D
:102BF00069F0A4EFB1E00E94021C950140E050E0B2
:102C00000E94401C30938101209380010E94FD0CA2
:102C100017B818B814B815B8DF91CF911F910F915C
:102C2000FF90EF90DF90CF90BF90AF909F908F90EC
:102C3000089580E090E00E94781C8D31B9F00E94E8
:102C4000740285E40E94FD0185E40E94FD016DE1AE
:102C50007DE180E090E00E94801C6DE17DE182E0FA
:102C600090E00E94801C88EC0C940E0408952F9232
:102C70003F924F925F926F927F928F929F92AF920C
:102C8000BF92CF92DF92EF92FF920F931F93CF9359
:102C9000DF9300D0CDB7DEB780E48AB98BB980E886
:102CA0008BB986E880937A001092C10014B784B77C
:102CB000877F84BF88E10FB6F894809360001092FC
:102CC00060000FBE86E88093640088E380937E00F6
:102CD0001092B00087E08093B10078940E941002B7
:102CE00013FF0BC00E94740286E492E00E94490226
:102CF0008BEC0E940E045E986EC588E40E9401026F
:102D000080EA90E00E94580280E50E94010288E972
:102D100090E00E94580288E50E94010280E990E05C
:102D20000E94580288E70E94010288E890E00E9411
:102D3000580280E70E94010280E890E00E94580259
:102D400080E40E94010288E790E00E9458020E94FD
:102D5000191610E04F9B05C01F3148F488E893E135
:102D600008C082E00E940E041F5F133299F780E6CC
:102D70009DE690930D0180930C0110925B011092DF
:102D80001401109238010E940A1128E1E22EF12C60
:102D90003FE0932E4DE4C42E41E0D42E5CE0B52EEE
:102DA0006DE0A62E10E171E2872EE2E17E2EF0E2C8
:102DB0006F2E109212011092100110926B0110925E
:102DC0005A011092110110924A010E94090217B88B
:102DD00010926E01109282011092830110920001F4
:102DE0000E940A110E94740285E00E94440485E05A
:102DF0000E944004909363018093620180E492E01A
:102E00000E9449026091620170916301660F771F11
:102E1000660F771F6E5C7F4F80E090E060937201D9
:102E200070937301809374019093750102E026E51D
:102E30004DEF0E9439030E94FB0180916201909145
:102E400063018A3F26E0920778F48333964048F482
:102E500081E992E00E9449028AEC0E940E041BB8AC
:102E6000BAC488E992E002C08DE392E00E94490270
:102E70000FB6F894A895E09260000FBE90926000A3
:102E800080914A018823E1F080911401811118C0DA
:102E900080915B01811114C00E9477028CEF91E058
:102EA0000E94490260913B0170913C0180E090E0FA
:102EB00003E026E54DEF0E94390388EC0E940E04E2
:102EC0000E9477020E94FD0C80911201883031F53A
:102ED0000E94090281E092E00E9449020E9477026A
:102EE000609101017091020180E090E003E026E52D
:102EF0004DEF0E9439030E94FB0160910301709124
:102F0000040180E090E026E54DEF0E9439030E9425
:102F1000FB016091050170910601A3C20E94770236
:102F20008DE992E00E94490242E061E080E00E9467
:102F3000900542E060E081E00E94900541E062E09F
:102F400080E00E94900541E060E082E00E949005F0
:102F500040E062E081E00E94900540E061E082E0B4
:102F60000E94900580916E01882361F028E0829F85
:102F7000F0011124E95EFE4F9781911103C0815049
:102F800080936E018091120181111CC083E40E9424
:102F9000FD010E94FD0C10927601109277011092B3
:102FA00078011092790184EF8093850160E082E0DE
:102FB0000E94D00D61E082E00E94D00D60E081E0CF
:102FC0000E94D00D0E940902D0924C01C0924B0188
:102FD00080911201853041F484E792E00E94490219
:102FE00041E467E483E409C08630A1F48DE792E010
:102FF0000E94490242E367E481E30E9494020E9436
:10300000770285E192E00E9449026091510170913E
:103010005201B2C3873009F04FC0809182010E94F3
:10302000FC0187E092E00E944902809183010E94A6
:10303000FC010E945F158091800190918101892B94
:1030400079F08EEE91E00E944902609180017091CA
:10305000810180E090E002E025E24FEF0E94390319
:103060000E947702609176017091770180917801DA
:103070009091790104E026E4409185010E94390392
:1030800060918201809183010E949A1390937F0145
:1030900080937E018A3F9F4F08F075C386EF91E0D1
:1030A0000E94490260917E0170917F0180E090E072
:1030B00002E024EF4EEF65C3823009F0D9C0809161
:1030C00010018130E1F59091880180918E0198176F
:1030D00050F4892F0E94FC0180ED90E00E9449028B
:1030E00080918E0108C00E94FC018CEC90E00E944F
:1030F0004902809188010E94FC01609188018091C1
:103100008E010E94580580E70E94F5028AE292E053
:103110000E9449026091880180918E010E94D00D29
:1031200060917201709173018091740190917501A9
:1031300003E026E4409184010E94390351C28230A9
:1031400009F047C082E30E94FD0187EC90E00E94F5
:1031500049028091880120918901821313C08091D6
:103160008E010E94FC018CEC90E00E94490280914B
:1031700088010E94FC0180ED90E00E94490280914C
:103180008F0116C030918E0190918F01391316C0B6
:103190000E94FC0180ED90E00E94490280918E0126
:1031A0000E94FC018CEC90E00E9449028091890110
:1031B0000E94FC0181E00E94F50212C2321304C099
:1031C00081E080930B013BC098133CC010930B012E
:1031D00036C08330B9F583E380930B0180918E0173
:1031E00090918901891303C021E020930B01409144
:1031F000880130918F01431302C010930B0120917D
:103200008A01821303C082E080930B0180919001B8
:10321000481302C060920B01321302C070920B017E
:10322000981302C080920B0180910B01823250F4FE
:1032300083E30E94FD0187EC90E00E9449020E9416
:103240000B03CEC183E892E00E9449028BE692E034
:103250000E9449020E9477028FE492E00E94490294
:1032600080911001805D0E94FD0180ED90E078C2A8
:10327000833009F0F9C080916B01882399F1809126
:103280005A01882379F160915701809159010E9478
:10329000D00D2090720130907301409074015090D5
:1032A00075010091840160916A01809168010E941A
:1032B000D00D8091840108130EC08091720190910D
:1032C0007301A0917401B0917501281639064A0660
:1032D0005B0618F005C008171CF4A092110102C08B
:1032E000B092110180916B01882379F080915A018D
:1032F000882359F04F9909C0809111018C3019F43D
:10330000A092110102C0B0921101809111018C3084
:1033100061F483E292E00E94490280916B0188236C
:10332000A9F080E70E94FD0111C08FE192E00E94A8
:10333000490280915A01882319F08EE60E94FD010E
:103340008EE591E090934C0180934B010E94FB012C
:1033500000E080911001081750F5E02FF0E0A091F7
:103360004B01B0914C011A968C91E857FE4F908119
:103370009817D9F096819817C1F0809111018C307F
:1033800039F49091580180915901891738F009C09A
:103390009091690180916A01981718F480ED90E08E
:1033A00002C08CEC90E00E9449020F5FD2CF43E450
:1033B00062E485E40E9494020E947702E0914B014E
:1033C000F0914C0186819781892B99F08EEA90E0EB
:1033D0000E944902E0914B01F0914C016681778196
:1033E00080E090E003E021E44BEF0E9439030E946B
:1033F000E304E0914B01F0914C0180859185892B8C
:1034000099F088EA90E00E944902E0914B01F09126
:103410004C016085718580E090E003E021E44BEF92
:103420000E9439030E94E30487E292E00E9449026D
:10343000E0914B01F0914C01608171818281938117
:1034400003E020E040E00E9439030E94FB0185E197
:1034500092E00E944902E0914B01F0914C0164819D
:10346000758180E090E08BC1843009F0D1C08091FB
:10347000110184FF0AC080E50E94FD01EEE5F1E044
:10348000F0934C01E0934B0103C08EE40E94FD01D8
:103490008DE20E94FD0180911101082F0F70043010
:1034A00019F483E392E013C085FF02C084E401C0F5
:1034B00085E40E94FD01033041F48DE292E00E9418
:1034C000490243E467E485E407C088E392E00E9490
:1034D000490244E467E483E50E949402809110016C
:1034E0008130E9F58091110184FF09C09091690153
:1034F00080916A01981748F000E082E008C090913E
:103500005801809159018917B8F701E081E00E94C4
:10351000FD010E947702002359F0809188010E94EA
:10352000FC0180ED90E00E94490280918E010AC06A
:1035300080918E010E94FC018CEC90E00E94490277
:10354000809188010E94FC010E94FB0185E192E0CC
:103550000E94490280E00E94E1020E94E3040E946E
:1035600077028091110185FD1DC08AE292E00E94E0
:103570004902E0914B01F0914C01648582850E94E3
:10358000D00D6091720170917301809174019091DE
:10359000750103E026E4409184010E94390380E133
:1035A00092E015C089E40E94FD018DE30E94FD01B7
:1035B000E0914B01F0914C016681778180E090E0D1
:1035C00002E021E44BEF0E9439038BE092E00E947D
:1035D0004902E0914B01F0914C0160857185CCC0AE
:1035E00080916E01882309F4CEC017B980910C0137
:1035F00090910D010E94A20417B80E9409028091C7
:103600001001805D0E94FD0187EC90E00E9449025C
:1036100020916E01222309F497C0213071F480912A
:1036200024010E94FC0182EC90E00E9449028091FA
:1036300023010E94FC0100E055C0409127015091F8
:1036400028016091290170912A0180911F019091B8
:103650002001A0912101B0912201223059F121E0F5
:1036600084179507A607B70708F020E0E22FF0E0DF
:1036700083E0EE0FFF1F8A95E1F7E15EFE4F409178
:103680002F015091300160913101709132018081A0
:103690009181A281B38184179507A607B70750F0DF
:1036A000022F213019F022E333E302C023E332E397
:1036B00081E304C002E023E331E382E32A83398318
:1036C0000E94FD0182EC90E00E9449023981832F23
:1036D0000E94FD0182EC90E00E9449022A81822F23
:1036E0000E94FD010E94770280916E018130D9F421
:1036F0000E94461180E00E94BB0280910001882355
:1037000009F441C08BEE91E00E94490260910701EB
:10371000709108018091090190910A0103E028E469
:10372000409100012EC0011102C081E003C080E081
:10373000013021F40E94BB0282E003C00E94BB0260
:1037400081E00E94BB021FC08BE592E00E9449020B
:103750000E94770288E892E00E94490283E892E0A2
:103760000E94490280915B018F5F80935B01109200
:10377000140188E893E112C080E090E002E026E5C1
:103780004DEF0E94390310925B01809114018F5F0D
:103790008093140180910C0190910D0117B94F9BFA
:1037A000FECF0E94A204882329F010925B011092A0
:1037B0001401FFCA80915B01853028F480911401C7
:1037C0008A3008F4F6CA8CE00E9401025E9880E01C
:1037D00090E00E94A20480E090E00F900F90DF91B3
:1037E000CF911F910F91FF90EF90DF90CF90BF90FE
:1037F000AF909F908F907F906F905F904F903F9091
:103800002F900895A29FB001B39FC001A39F700D98
:10381000811D1124911DB29F700D811D1124911DD8
:1038200008950E94021CA59F900DB49F900DA49F27
:10383000800D911D11240895DB018F939F930E94A9
:10384000111CBF91AF91A29F800D911DA39F900D60
:10385000B29F900D11240895AA1BBB1B51E107C014
:10386000AA1FBB1FA617B70710F0A61BB70B881F10
:10387000991F5A95A9F780959095BC01CD0108959F
:10388000A1E21A2EAA1BBB1BFD010DC0AA1FBB1F64
:10389000EE1FFF1FA217B307E407F50720F0A21BD6
:1038A000B30BE40BF50B661F771F881F991F1A9443
:1038B00069F760957095809590959B01AC01BD016D
:1038C000CF010895FB019F01423074F0453264F44A
:1038D000642F77270E942C1C805D8A330CF0895D51
:1038E0008193CB010097A1F71082C9010C94851C2C
:1038F000F999FECF92BD81BDF89A992780B50895B8
:103900000E94951C272F0C94961CDC01FC01672F4C
:1039100071917723E1F7329704C07C916D937083A6
:103920006291AE17BF07C8F30895262FF999FECF0D
:103930001FBA92BD81BD20BD0FB6F894FA9AF99ACC
:0A3940000FBE01960895F894FFCF22
:00000001FF
