:100000000C9488020C949A020C949A020C949A0212
:100010000C949A020C94441F0C949A020C94A90616
:100020000C949A020C949A020C94FC160C94361FB1
:100030000C94281F0C94D6160C949A020C949A02D5
:100040000C94021F0C949A020C949A020C949A023B
:100050000C949A020C94AA060C949A020C949A029C
:100060000C949A020C949A025245465F523D0052FB
:1000700045465F433D00203E3130306E4600706E95
:10008000E46D006B4D090A0C020820010410041FE6
:10009000111111111F04001E0203021E0000000FA7
:1000A0000818080F00001B1B1B1B1B1B1B00111338
:1000B000171F1713110011191D1F1D191100432BB4
:1000C000455352405450313A330066405450320048
:1000D000203530487A004330200052695F4C6F3D34
:1000E0000052695F48693D0052303D0052482F522E
:1000F0004C002B52482D2031322031332032330036
:100100002B524C2D203132203133203233005248D3
:100110002B0052482D005248663D005265663D0056
:10012000494345733D00494345303D005665727370
:10013000696F6E20312E31316B002D07062D002A9C
:10014000012020002D022D002D012D004865FF6F9C
:10015000BFBA61BBB8B2706FB361BD21E0BBC7FF6E
:10016000B761BE7963BA6120BA61BBB8B2706FB3D0
:10017000BAB820B761BA6F706FBFB8BF65FFBF7004
:10018000B820BA6FBDBF61BABF61FFB820BD61B60C
:10019000BCB8BF65FFBABD6FBEBA792022544553C3
:1001A00054222E20A86FE3BFB36570E3B8BF65206B
:1001B0005065B6B8BCFF6361BC6FBF6563BF6120AB
:1001C000A86FB3BF6F70BD6FFFBD61B661B3205440
:1001D000455354FFB3FFBF65C065BDB8B820326357
:1001E0002EFF506FB7BA6F706FBFB8BF6520BA6F80
:1001F000BDBF61BABFC3FFBA6FB4E361206FBF6F09
:10020000B27061B66165BF63C72022A5B76FBBC777
:10021000E5B8C7212220A86FE3BABBC6C0B8BF6546
:1002200020BA6FBDE365BD6361BF6F7020313030B0
:100230006E46FFB8BBB8FFB26FBB656520BAFF2240
:1002400054503122FFB8FF225450332220BA6FB4E9
:10025000E361FF636F6FB2E665BDB8652022312DA3
:10026000032D33FF3E3130306E4622206FBF6FB218
:100270007061B66165BF63C72E20A8706FB47061EE
:10028000BCBC79FFB820E36FBA79BC65BDBF61E53E
:10029000B8C62063BC2EFFBD6120687474703A2F0D
:1002A0002F206D696B726F636F6E74726F6C6C650B
:1002B000722E206E65742F7472616E736973746F21
:1002C00072207465737465722000202049723D00AD
:1002D0004C3D0020566C6F73733D00204553523DDA
:1002E000005643433D0043656C6C21002D032D00F7
:1002F0004056673D002056743D0055663D00203154
:1003000032333D00504E50004E504E00423D0043AF
:100310003D002D49474254004A464554002D4D4F5B
:1003200053004F4B004261742E2000A461BA6F70DD
:100330006FBFB8BF6521005065B6B8BC206361BC13
:100340006FBF6563BF61004B7079BFB8BF652100A7
:10035000546563BF20C5BDBA6FE36570610031307D
:100360002D6269742050574D00662DA165BD6570E2
:1003700061BF6F700042C3BABBC6C0B8BFC4004201
:100380006FBBC4BFBC65BF7000AB6163BF6FBF6FA5
:10039000BC657000547061BDB7B863BF6F70205406
:1003A0006563BF0042C3B26570B8BF653A0054656B
:1003B00063BF20B761BA6FBDC065BD00A5B76FBB95
:1003C000C7E5B8C721005065B6B8BC206361BC6FF3
:1003D000BF6563BF61005461B9BC6179BF00BE6F86
:1003E000B37065B6E365BD6120004FBF6379BF633D
:1003F000BFB37965BF20B8BBB80020BD65B8B7B33F
:100400006563BF2E0054B870B863BF6F700043B807
:10041000BCB863BF6F7000E365BF61BBC400BE6F53
:10042000B37065B6E32E2000A4414D45484100431A
:10043000BB61B261C700546563BFB8706FB361BD83
:10044000B8652E2E2E00BA03870358032E03070328
:10045000E402C302A40288020000140029003E0046
:100460005300690080009700AE00C600DF00F8006E
:1004700012012D01490165018201A001BE01DE01C9
:10048000FF012102440268028E02B502DE02090366
:10049000350364039403C803FE0337047304B404F0
:1004A000F90443059305EA054906B3062907AE0793
:1004B0004808FF08DE09AF57B950C24A97451141B5
:1004C000133D87395A367E33E8308E2E692C712AD7
:1004D000A128F5266925F923A222622137201E1FB3
:1004E000161E1E1D341C571B851ABF1903195018E0
:1004F000A61704176A16D6154915C2144114C51358
:100500004E13DC126E1205129F113D11DF10841084
:1005100011241FBECFEFD8E0DEBFCDBF11E0A0E0B9
:10052000B1E001C01D92A23BB107E1F70E94322663
:100530000C94CA2D0C94000080FD5C9A80FF5C989E
:10054000549A00005D9A559A589859985A985B9811
:1005500064FD589A509A65FD599A519A66FD5A9AC7
:10056000529A67FD5B9A539A00005D989AD287FD74
:1005700010C05D9A589859985A985B9860FD589A9F
:1005800061FD599A62FD5A9A63FD5B9A00005D987D
:1005900088D208958FEE8F5C1F93182F81E0612F12
:1005A000CBDF76D2183048F41630B0F4123061F058
:1005B000133071F01130D1F405C0143E79F0143FBE
:1005C000A9F40EC08EE305C08CE735D28CE30FC0D2
:1005D0008CE731D28CE70BC082E509C085E707C004
:1005E0008FE429D288E627D28DE601C0812F23D25D
:1005F0001F9108958DE01FD28AE01DD208951F93A8
:10060000182F80E0612F98DF43D2103811F0103C92
:1006100009F4F0DF1F91089581E0F1DF82E043D219
:10062000E9DF80E8ECDF089586E03DD280E860E312
:1006300083DF81E038D280E860E37EDF23D280E888
:1006400060E37ADF1FD280E860E276DF82E02BD2BF
:1006500080E2D5DF80E2D3DF8AE2D1DF88E0CFDF3E
:10066000DBDF86E0CCDF82E0CADF81E01CD28CE0F9
:10067000C6DF0895EF92FF92CF93DF93E82EE70154
:100680007E01F92EE70101C087DF89918823E1F718
:10069000DF91CF91FF90EF900895CF93DF93EC011E
:1006A000FE018591882329F0803819F075DF2196A5
:1006B000F7CFDF91CF9108950F931F93CF93DF93DF
:1006C0008C01C0E0D0E0F801EC0FFD1F859164DFE4
:1006D0002196C830D105B9F7DF91CF911F910F91C5
:1006E00008951F9314E156DF1150E9F71F91089503
:1006F00080E885DF089580EC82DF089584E97FDF5C
:10070000089584ED7CDF0895089597FF09C08F93C5
:100710009F938DE241DF9F918F91909581959F4F9F
:100720006DE171E04AE050E00E94892DA3DF089559
:10073000EF92FF920F931F93182F062FF42E8EEF38
:1007400092E0ABDFEE24E0915801F09159018485ED
:10075000E81611F4812F09C08285E81611F4802F64
:1007600004C08385E81611F48F2D16DFE3948E2DD7
:10077000833049F71F910F91FF90EF9008950F93E9
:10078000E7E2F1E0880F880F880FE80FF11D608124
:10079000718182819381643671058105910570F4C0
:1007A00020910001222351F4848165810E94881ADE
:1007B000BC0180E090E04EEF03E002C04FEF04E0A8
:1007C00024EF5BD0E7DE0F9108950F93833078F428
:1007D000E6EAF1E0E80FF11DE80FF11D608171819B
:1007E000812D912D4DEF26E503E047D0D3DE0F910B
:1007F00008951F93182F80918001882319F0CADE75
:1008000080E0CADE78DF8AEF92E047DF812F8295B1
:100810008F70DBDF812F8F70D8DF1F910895DF92FB
:10082000EF92FF920F931F93CF93DF93D0900B0122
:100830008D2D82958F70CAE9D1E07E01E80EF11C02
:10084000F7018081A8DE08E411E0C80126DFF70186
:100850008681A1DEC80121DF8D2D8370C80FD11DD7
:100860008E8199DE80910B01C4DFDF91CF911F91C2
:100870000F91FF90EF90DF9008958F929F92AF922B
:10088000BF92CF92DF92EF92FF920F931F93CF937D
:10089000DF93142FC22F033009F4B2C0043009F4DF
:1008A000B6C0053051F0063081F00730B1F0B4E643
:1008B000CB2ED12CE12CF12C17C0A0EACA2EA6E831
:1008C000DA2EEE24E394F12C0FC0F0E4CF2EF2E404
:1008D000DF2EFFE0EF2EF12C07C0E0E8CE2EE6E998
:1008E000DE2EE8E9EE2EF12C5AE0852E912CA12C7B
:1008F000B12C6C157D058E059F0560F06B5F7F4FF9
:100900008F4F9F4FA50194010E94A22CCA01B901EB
:100910001F5FEFCF0CE0010F07FD04C0033118F09B
:1009200002E101C000E01BEA019F112D1124169580
:10093000212F220F210F021B21F01F5F23E0201B1C
:10094000022F2AE030E049E451E00E94642DA9E43E
:10095000B1E00D900020E9F71197A954B140BA2EEB
:100960009D013327802F90E004968217930714F49B
:100970001F5F0D5FE12FF0E0E258FF4FA490DA2FE8
:10098000D01B1D1644F08EE20E94CC02DD2319F02C
:1009900080E30E94CC02011101C0DFEF49E4E42EA4
:1009A00041E0F42E8701CD2EDD24C7FCD094802FAA
:1009B0008E198B1578F4F80181918F010E94CC0279
:1009C0009801295431402C153D0589F78EE20E948B
:1009D000CC02EDCFAA2019F08A2D0E94CC02CC23A4
:1009E000E9F08C2FDF91CF911F910F91FF90EF9045
:1009F000DF90CF90BF90AF909F908F900C94CC02DF
:100A000038EEC32E33E0D32EE12CF12C6DCF20E154
:100A1000C22E27E2D22EE12CF12C66CFDF91CF91AE
:100A20001F910F91FF90EF90DF90CF90BF90AF900C
:100A30009F908F9008958F932F932AE080953B9AF3
:100A4000089410F4439802C0439A000020D027D0A5
:100A500086952A95B1F72F918F91089503D002D0F2
:100A600001D000D000D003D002D001D000D0A89592
:100A700000D003D002D001D000D000D003D002D0EB
:100A800001D000D000D003D002D001D000D000D0DF
:100A900003D002D001D000D000D003D002D001D0CA
:100AA00000D00000089590E0893C28F0885C48EC74
:100AB000849FC0011124009709F4089520918100BA
:100AC000277019F0DBDF019716C08130910519F00E
:100AD00002973EE303C037E180E090E02091B2004E
:100AE000230F2093B30042E04093700027E023BF20
:100AF000889526E023BFA895DECF8F9384E0D3DFCF
:100B000007C08F9382E0CFDF03C08F9381E0CBDFFC
:100B10008F911F93182F106410937C00E12FE078C1
:100B200080914001E81759F0E0934001B0DF8EE971
:100B300080937A0083E083BF889582E083BF20E0C2
:100B400030E0A901E0E01FC08EE980937A0083E0E5
:100B500083BF889582E083BF6091780070917900AF
:100B6000260F371F411D511DE43061F48091420171
:100B7000803041F084E02030380720F417FD02C0B7
:100B80001068CACFEF5F80913F01E817E8F26091EB
:100B900043017091440117FF04C0609141017091BD
:100BA000420180E090E00E946A2C2FEF33E040E0A9
:100BB00050E00E94A22CB901CA0120913F0130E00F
:100BC00040E050E00E94A22CC9011F910895EF92CD
:100BD000FF920F931F93CF93DF93F82EE92EC5E674
:100BE0004F9B05C0CF2DDE2D05E510E01BC081E039
:100BF0000E945305C150A1F7F5CF82E00E94530532
:100C0000000F4F9B0F5F0F730F3379F4111103C067
:100C1000CF2DDE2D14E01F5F163990F4A8951C1619
:100C20001D0644F0D7FFE9CF0BC00111F7CF112308
:100C3000A9F306C02A972097A9F7CFEFDFEFF2CFED
:100C4000812FDF91CF911F910F91FF90EF90089529
:100C500088E893E10E94E7050E947B030E947103EC
:100C60000C947B038BE090E00E949F2D382F8CE04A
:100C700090E00E949F2D20914701230F3091480161
:100C8000381F209314013093150183E0283E380764
:100C900020F0C901885E934002C080E090E062E3EA
:100CA00070E00E947A2C683008F067E0E6E4F4E037
:100CB000E60FF11DE60FF11D4591559125913591F6
:100CC00062E3681B421B530B649FC001659F900D3C
:100CD0001124499662E370E00E947A2C620F731F20
:100CE00070938301609382018DE090E00E949F2DBC
:100CF000992787FD90956091470170914801860F73
:100D0000971F909342018093410190937F018093BC
:100D10007E010895CF93DF9324E130E0B9010E9472
:100D20007A2CDC01E8E5F4E0E60FF71FE60FF71F89
:100D3000C591D591459155914C1B4A9FC0011124F5
:100D4000B9010E947A2C6C0F7D1FCB01DF91CF91EE
:100D50000895189518950F931F93CF93DF931F92C3
:100D6000CDB7DEB798E097B998B9E82FF0E0E5572E
:100D7000FF4F249125B9E62FF0E0E557FF4F9491FE
:100D8000922B94B969830E9489058C016981862F11
:100D90000E948905209143013091440136952795A1
:100DA000A901415251094017510760F4255E3F4F98
:100DB0000217130738F44817590720F441E0821747
:100DC000930708F040E014B8842F0F90DF91CF9183
:100DD0001F910F910895CF9361E080E00E94AB06D0
:100DE000C82F62E080E00E94AB06C80F62E081E09D
:100DF0000E94AB068C0FCF9108952F923F924F9295
:100E00005F926F927F928F929F92AF92BF92CF929A
:100E1000DF92EF92FF920F931F93CF93DF93CDB7A3
:100E2000DEB763970FB6F894DEBF0FBECDBF182FA5
:100E3000807FE9F40E94EB06833009F0F7C30E943B
:100E40000C0386EC93E00E944D030E947B038FE32A
:100E50000E94CC0280ED97E00E94E7058B30F8F409
:100E60000E940C038CE291E00E944D03DFC338EC3A
:100E7000F32E00E00E940C038BE293E00E944D03EE
:100E80000E94EB06833021F40F5F043010F007C09E
:100E900000E088E20E945305FA9461F7E1CF0E94D6
:100EA0007B0388EE90E00E944D0360E082E090E0DA
:100EB0000E94A72D60E083E090E00E94A72D60E0F3
:100EC00081E090E00E94A72D60E082E00E94881AF5
:100ED000782EA82EB92EBA82A98261E082E00E9403
:100EE000881A882EC82ED92EDC82CB8260E081E061
:100EF0000E94881A982EE82EF92EFE82ED82B50106
:100F0000882777FD8095982F03E020E24EEF0E941E
:100F10003D04B601882777FD8095982F20E24EEF9B
:100F20000E943D04B701882777FD8095982F24EF14
:100F30004EEF0E943D042AE5A216B1042CF4672D61
:100F400082E090E00E94A72D8AE5C816D1042CF417
:100F5000682D83E090E00E94A72D9AE5E916F10440
:100F60002CF4692D81E090E00E94A72D0E942806B4
:100F70001F701F87113009F067C0AA24A394B12CF9
:100F800008EB202E02ED302E07E4402E512C82E09B
:100F9000882E98E0992E24ECC22E26E3D22EE12C46
:100FA000F12C54C0739423E0271508F443C00E9429
:100FB0007B030E9471030E9478030E9471030E94C8
:100FC000780384E50E94CC02C5010E9490030E9430
:100FD000CA02113009F03FC00E944D178BE191E029
:100FE0000E944D03609147017091480180E090E0BC
:100FF00004E026E54DEF0E943D040E947B0386E15C
:1010000091E00E944D0380918201909183010E94A2
:1010100090038EEB80933F0197B898B814B815B839
:1010200088EE93E00E94E705143009F4BBCF8B30C3
:1010300008F4B8CF88EC0E9453058FEFA81AB80ABD
:1010400098E0A916B10411F418E736C1712C1A2DD5
:10105000A0E26A2EACCF123009F044C020914301C7
:1010600030914401A8E5BBE10E94492CA7019601FB
:101070000E94C42C81E085B9E5E0E4B980E0288BCA
:10108000398B4A8B5B8B0E947D05288939894A8977
:101090005B89821B930B9A83898381E184B980E009
:1010A000288B398B4A8B5B8B0E947D052889398977
:1010B0004A895B89821B930B9C838B8384E085B96F
:1010C00084E184B981E0288B398B4A8B5B8B0E9449
:1010D0007D0528893989821B930B9E838D8380E04F
:1010E00091E0C2C0133061F585B8FAE0F4B980E050
:1010F0000E947D052091430130914401369527954A
:1011000038872F83821B930B9A83898322E224B929
:1011100080E00E947D052F813885821B930B9C8384
:101120008B8395B888E284B981E00E947D052F8188
:101130003885821B930B9E838D8382EF90E094C051
:10114000143049F48CEB93E00E944D030E94EB06AF
:10115000811169C28FC01530B1F415B884B880E030
:101160000E947D059A83898394B881E00E947D0561
:101170009C838B8364B882E00E947D059E838D836F
:1011800082E191E071C0163051F584B885B880E0F5
:101190000E947D052091430130914401821B930BF5
:1011A0009A83898394B895B881E00E947D05209147
:1011B000430130914401821B930B9C838B8364B861
:1011C00065B882E00E947D05209143013091440181
:1011D000821B930B9E838D838EE091E045C0173078
:1011E00009F045C02091430130914401A8E5BBE1DD
:1011F0000E94492CA20191010E94A22C85B893E083
:1012000094B980E0288B398B4A8B5B8B0E947D05DB
:10121000288939894A895B89821B930B9A83898340
:1012200095B8ECE0E4B981E0288B398B4A8B5B8B75
:101230000E947D05288939894A895B89821B930B25
:101240009C838B8365B8F0E3F4B982E0288B398BFB
:101250004A8B5B8B0E947D0528893989821B930B01
:101260009E838D838CEE90E00E944D0303C011306D
:1012700009F4D2CE0E947B0389819A810E94850362
:101280000E94CA028B819C810E9485030E94CA022F
:101290008D819E810E948503BFCE0E947B030E94A8
:1012A00071030E947B038CEB93E00E944D0384E664
:1012B0000E945305115021F00E94EB068111EDCFE1
:1012C0000E940C0381EE90E00E944D036091450165
:1012D0007091460180E090E003E024EF4FEF0E9420
:1012E0003D040E947B038AED90E00E944D036091D3
:1012F00055017091560180E090E024EF4FEF0E947D
:101300003D040E942806109218010E940C0386EDED
:1013100090E00E944D0360E082E00E940D14009175
:101320008C0110918D011C870B8761E082E00E9487
:101330000D14C0908C01D0908D01DE86CD8660E0CA
:1013400081E00E940D14E0908C01F0908D01FE82EE
:10135000ED8262E080E00E940D1480918C019091FA
:101360008D019C838B8362E081E00E940D1480914B
:101370008C0190918D019A87898761E080E00E94BD
:101380000D1480918C0190918D019A8389839887A7
:101390008F83B801882777FD8095982F03E020E29E
:1013A00040E00E943D04B601882777FD8095982F84
:1013B00020E240E00E943D04B701882777FD809538
:1013C000982F26E444EF0E943D046E01EFE0CE0E1C
:1013D000D11CFE013196819191910A97853B91052F
:1013E000E0F4EC15FD05B9F704E010E0CE0101963C
:1013F0007C01F7016081F2E0EF0EF11C6E5EC80126
:101400000E94A72D0F5F1F4FEC14FD0491F70E945F
:101410007B0382E293E00E944D030E9428062F8501
:10142000213029F080915401823009F0E3C0E0E4DA
:10143000BE2E10E0FAE0CF2ED12CE12CF12C0E9430
:101440000C0380E00E94CB028CEE92E00E944D03E0
:1014500082E00E94CB0286E790E00E944D0310924A
:10146000180160E082E00E940D14009196016091E5
:101470008401709185018091860190918701073FD9
:1014800044F4A70196010E94A22C0F5FB901CA0182
:10149000F6CF009396016093840170938501809349
:1014A000860190938701073F09F08BC0DC01CB01D7
:1014B00080569109A109B10980399545A105B10569
:1014C00008F07FC06091980170919901CB018B5613
:1014D0009F4F8B32914008F074C0113009F073C0F7
:1014E0008BE090E00E94B52D0E940C038FE690E007
:1014F0000E944D0380919801909199010E9485036B
:101500000E94320688E088B989E087B980E284B910
:1015100082E00E948905853D9340D4F714B810926B
:1015200042011092410182E00E9489057C01809174
:101530007E0190917F01909342018093410182E06E
:101540000E9489058C01000F111F10924201109218
:10155000410182E00E948905C0907E01D0907F0108
:10156000D0924201C0924101E80EF91EE01AF10A40
:101570000E947B0388E690E00E944D038DE090E09E
:101580000E949F2D73E0B72EB80E9601D7010E94DE
:10159000582C9801442737FD4095542F0E94C42CA5
:1015A000B20E6B2D8DE090E00E94A72D8B2D992718
:1015B00087FD90950E9485030E9432060E942806AE
:1015C00019C010E001C011E00E947B03609184010A
:1015D00070918501809186019091870104E026E455
:1015E000409196010E943D0488E20E945305BA94FE
:1015F00009F025CF109254018CE00E94FF0289E18E
:1016000080933F010E940C038CE291E00E944D0305
:101610000E947B038EEA93E00E944D031092180112
:101620000E94280603C052E0752E24CE63960FB6A2
:10163000F894DEBF0FBECDBFDF91CF911F910F9108
:10164000FF90EF90DF90CF90BF90AF909F908F90E2
:101650007F906F905F904F903F902F900895809172
:10166000540181110DC084E090E00E949F2D61E043
:10167000680F87E090E00E94A72D81E080935401DD
:1016800008950F93CF93DF93E82FF0E0EB57FF4FD0
:10169000E491E8B9E860E7B915B8E62FF0E0E8575B
:1016A000FF4FE491E4B9862F0E948505EC01009775
:1016B000F1F08AEC92E00E944D03DE0120EA36E868
:1016C00041E050E00E945F2C28E937EB40E050E019
:1016D0000E94A22CCA01B9018827992702E021E4BF
:1016E00047EF0E943D0488E087B988B914B8DF91BC
:1016F000CF910F9108952F923F924F925F926F92E8
:101700007F928F929F92AF92BF92CF92DF92EF9291
:10171000FF920F931F93CF93DF93CDB7DEB76997F7
:101720000FB6F894DEBF0FBECDBF982E862E342E96
:10173000A895862F90E0FC01E557FF4F2490FC010F
:10174000E857FF4F2491288B242F30E0F901E5570B
:10175000FF4F6490F901E857FF4F4490292D30E086
:10176000F901E557FF4F7490F901E857FF4F449195
:101770004B87F901EB57FF4F54915B83FC01EB570B
:10178000FF4F64916C87586058876860562E65B823
:10179000762D72297C8374B957B98B8188B9882DCD
:1017A0000E9485059A83898324B8882D0E94850527
:1017B0005C0114B80E943E0515B89C8194B9882D2F
:1017C0000E948505A981BA818A179B0738F5805E3A
:1017D0009E4FA817B90708F44EC457B888E088B9D7
:1017E00075B8872D862984B9E0914301F0914401B1
:1017F000FA83E983892D0E94850529813A81281B76
:10180000390B3A83298374B8A0904301B090440106
:10181000892D0E948505A81AB90A08C029813A8134
:10182000205E3E4F8217930708F425C4209167017C
:101830008091790190E0820F911D02974CF0213048
:1018400009F019C49091640180917601981313C432
:1018500049815A814437510508F4AEC0CA01880F46
:10186000991F4496A816B90608F0A6C0588557B91E
:101870006B8168B9842D822984B9882D0E948105E5
:101880008C01832D0E9489057C0145B8882D0E941A
:1018900081059801295A3D4F472828173907D8F55F
:1018A00088E088B957B844B845B8832D0E948105AF
:1018B00088349F4028F084E08093180182E204C0BD
:1018C00084E08093180184E28093170110935F01F4
:1018D00000935E01E016F10640F4C8018E199F09DD
:1018E000909363018093620104C01092630110928F
:1018F00062019801A8EEB3E00E94492C20911201E8
:101900003091130140E050E00E94A22C309361011D
:1019100020936001A7C388E088B957B844B845B898
:10192000892D0E9481058C01832D0E9489057C01EF
:1019300075B8892D0E948105895A9D4F801791079E
:1019400008F099C38B8188B9988597B9832D0E9437
:101950008105813D934028F484E08093180182E35F
:1019600004C084E08093180184E3809317010E156E
:101970001F0538F4E01AF10AF0927501E092740143
:1019800004C01092750110927401209143013091AE
:101990004401201B310BA8EEB3E00E94492C20919A
:1019A000190130911A0140E050E00E94A22C3093BE
:1019B00073012093720169C188E088B957B875B87E
:1019C000B72DB629B987B4B9892D0E9485059F83A3
:1019D0008E83E0904301F0904401832D0E9489059D
:1019E0008C018A30910570F514B881E00E9453058E
:1019F000872D842984B9892D0E9485059F838E8334
:101A0000E0904301F0904401E81AF90A832D0E9406
:101A100089058C018091190190911A019C0140E087
:101A200050E060E677EB87E490E00E94A22CD701BB
:101A30000E945F2C980140E050E00E94A22C6901B6
:101A40007A010DC0C701EE81FF818E1B9F0B801BA9
:101A5000910BB8010E947A2C6B01E12CF12C14B887
:101A600015B8FB81F8B9288527B981E00E94530594
:101A700039EBA31637E0B30608F0FDC24C8144B938
:101A8000882D0E9485058F359D4008F404C114B847
:101A900081E00E945305742D7229798B74B9882DC9
:101AA0000E948505998F888F832D0E9489059F87C5
:101AB0008E87892D0E9489059B8B8A8B8E859F85B9
:101AC000813D974008F48CC083E0809318018DE03D
:101AD00080931701E88DF98DAE16BF0620F4EA1940
:101AE000FB09F98FE88F4090120150901301612C8F
:101AF000712C60E677EB87E490E0A30192010E94ED
:101B0000A22CA88DB98D0E945F2CAE85BF859D014A
:101B100040E050E00E94A22C80917901882369F076
:101B200080916C0190916D01A0916E01B0916F0157
:101B300082179307A407B507A0F420936C01309394
:101B40006D0140936E0150936F018A899B89EE85E8
:101B5000FF858E1B9F0B909371018093700121E094
:101B600001C020E080916C0190916D01A0916E0107
:101B7000B0916F018C159D05AE05BF0588F4C0922C
:101B80006C01D0926D01E0926E01F0926F018E8136
:101B90009F81801B910B909371018093700103C012
:101BA000222309F4E4C39501A8EEB3E00E94492C76
:101BB000A30192010E94A22C309373012093720121
:101BC00029813A81A8EEB3E00E94492CA301920139
:101BD0000E94A22C309375012093740121E0C7C3A9
:101BE000F1E6AF16B10408F056C0288D398D213DBD
:101BF00047E0340708F44FC084E080931801265072
:101C00003F4F6A897B892617370710F082E101C0B0
:101C100083E1809317017C857770E72E832D8064A4
:101C200080937C00ABE0FA2ECC24C394D12C0FEF30
:101C300013E0A89561E0862D0E942013298924B91C
:101C400086B18E21E9F324B880917A008064809374
:101C50007A0080917A0086FDFCCF80917800909187
:101C60007900A801481B590BC40ED51EFA9409F738
:101C7000C601880F991F880F991F69E070E00E94C4
:101C80007A2C7093750160937401809179018F5F54
:101C900080937901A3CF5C8154B965B8882D0E94E7
:101CA00085059D838C83832D0E9489059F838E8368
:101CB0006091430170914401681B790B6A30710592
:101CC00090F514B881E00E945305842D822984B9CF
:101CD00045B8882D0E9485059D838C83832D0E94A5
:101CE00089059F838E8380911201909113019C013D
:101CF00040E050E060E677EB87E490E00E94A22CA1
:101D0000AC81BD810E945F2C209143013091440140
:101D1000AE81BF812A1B3B0B40E050E00E94A22C09
:101D200069017A0109C08C819D81861B970B0E94F5
:101D30007A2C6B01E12CF12C57B888E088B9B98571
:101D4000B4B9B5B9892D0E9485058C01832D0E94F7
:101D500089059F878E87882D0E9489059C01003404
:101D6000E6E01E0708F084C175B8892D2E8B3F8BE5
:101D70000E948505AC0174B8892D4C8B5D8B0E9447
:101D800085059B8B8A8B15B881E00E94530575B839
:101D9000892D0E9485052E893F894C895D896A8934
:101DA0007B896034764008F058C08133914108F453
:101DB00054C0C8018A569F4F4817590708F04DC0B4
:101DC00085E080931801809167018F5F80936701A0
:101DD0008E859F85821B930B90935F0180935E019C
:101DE000021B130B109363010093620114B815B822
:101DF000EC85E8B981E00E94530574B8892D0E94F2
:101E00008505853F910508F0C0C2F985F4B9832D99
:101E10000E948505813D934008F4B7C2892D0E9438
:101E200089058D3D924008F4B0C274B8892D0E9496
:101E300085058D3D924008F4A8C275B881E00E94E6
:101E4000530515B8892D0E948505853F910508F039
:101E50009CC286E08093180198C2472844B845B8D0
:101E6000892D0E947D059C01609143017091440180
:101E7000681B790B7F876E87832D2E8B3F8B0E948B
:101E800089059A8789870091430110914401081BB5
:101E9000190B882D0E9489059D878C872E893F8983
:101EA0000E3F79E0170708F48FC083E08093180194
:101EB0008CE0809317018E859F85A816B90620F4C3
:101EC0008A199B099F878E874090190150901A01AB
:101ED000612C712C60E677EB87E490E0A30192011E
:101EE0000E94A22CAE85BF850E945F2C980140E025
:101EF00050E00E94A22C80916701882369F08091B4
:101F00005A0190915B01A0915C01B0915D01821733
:101F10009307A407B507A0F420935A0130935B01FF
:101F200040935C0150935D0189859A85AC85BD85A0
:101F30008A1B9B0B90935F0180935E0121E001C09F
:101F400020E080915A0190915B01A0915C01B091D9
:101F50005D018C159D05AE05BF0598F4C0925A0130
:101F6000D0925B01E0925C01F0925D018E819F81D5
:101F7000EC81FD818E1B9F0B90935F0180935E012E
:101F800003C0222309F402C29501A8EEB3E00E9427
:101F9000492C209112013091130140E050E00E9441
:101FA000A22C309361012093600129813A81A8EE2F
:101FB000B3E00E94492CA30192010E94A22C30930D
:101FC000630120936201E1C1F1E6AF16B10408F0AC
:101FD0004FC04E855F8549345D4008F449C084E0B8
:101FE0008093180182E0809317018C859D8586502F
:101FF0009F4F8217930718F483E0809317010B819A
:102000000770832D806480937C001BE0EE24E394B2
:10201000F12CA89560E0862D0E94201344B845B8A5
:1020200086B18023E9F774B880917A008064809348
:102030007A0080917A0086FDFCCF809178009091A3
:102040007900E80EF91E115021F7C701880F991F7A
:10205000880F991F69E070E00E947A2C70936301E9
:1020600060936201809167018F5F809367018DC1EA
:1020700088E087B988B914B815B888E087B977ECD3
:10208000A71671E0B70608F4B9C088B918EC08853E
:10209000052907B981E00E94530557B8892D0E9490
:1020A0008905429710F01150A1F78B8584B985B945
:1020B00061E0862D0E942013892D0E9485058C01E8
:1020C000988994B915B8A885A7B9BB81B8B960E05B
:1020D000862D0E942013A0904301B0904401882DCA
:1020E0000E9485056C0124B8892D0E9485059A837C
:1020F0008983882D0E94890529813A81281B390B03
:102100003A83298388E088B957B874B875B861E014
:10211000862D0E942013892D0E9485057C01882D23
:102120000E948905E81AF90A49815A814E155F050E
:1021300048F45B8554B955B9892D0E948505FA820A
:10214000E98219C085010C191D09688964B915B89F
:10215000788577B98B8188B960E0862D0E9420133D
:10216000E0904301F0904401882D0E948505D7013D
:10217000A81BB90BCD0129813A812759310929388A
:102180003141E0F529813A8182179307B8F5C801FA
:1021900063E0969587956A95E1F7893C910510F083
:1021A00088EC90E0800F911F49815A818417950730
:1021B00028F5CA0154E0969587955A95E1F780175E
:1021C0009107E0F480911801823018F482E0809346
:1021D000180180911601E82FF0E0DF01A656BE4FEE
:1021E0009C9216968C92EE0FFF1FEA55FE4F2981A6
:1021F0003A81318320838F5F80931601209179018A
:102200008091670190E0820F911D892B09F091C0A8
:10221000A8958091430190914401880F991F880FE0
:10222000991F9093440180934301809141019091C3
:102230004201880F991F880F991F90934201809344
:1022400041018EEB80933F0188E088B957B874B89C
:1022500075B818E1C12CD12C882D0E948505582E07
:10226000492E892D0E9489057C018C199D0997FFB3
:1022700003C0919581959109039734F0A895115069
:1022800009F440C06701E8CF15B83B8534B9892D02
:102290000E94850581359105A8F53B8535B9892DC5
:1022A0000E9485058C01488547B95B8158B915B8EE
:1022B00024B888E1B82EC12CD12C892D0E94850527
:1022C000782E692E882D0E9489059A8389838C191E
:1022D0009D0997FF03C091958195910903970CF093
:1022E00063C0488944B9882D0E9485055C0150EC83
:1022F000E51654E4F50608F05EC0053861E01607FF
:1023000008F45EC0809143019091440196958795B1
:1023100096958795909344018093430180917E0127
:1023200090917F01909342018093410189E18093D4
:102330003F0188E087B988B914B815B869960FB617
:10234000F894DEBF0FBECDBFDF91CF911F910F91EB
:10235000FF90EF90DF90CF90BF90AF909F908F90C5
:102360007F906F905F904F903F902F900895809155
:1023700079018F5F809379012223D9F2309276011F
:102380008092770190927801D4CF21E0809167010B
:102390008F5F80936701222361F2309264019092F3
:1023A000650180926601C5CFA895BA9409F4AACFB9
:1023B000C980DA8082CF003B7DE4170708F0A2CF06
:1023C000C0904301D090440189819A81843A92401F
:1023D00008F060C0B8E9AB16B10408F493CF9801D7
:1023E000A8E9B7EB0E94492C9601201B310B40E075
:1023F00050E00E94A22C29013A0196012A193B09BA
:10240000A8E9B7EB0E94492C6501E12CF12CA7014A
:1024100096010E94A22C08371F4070F4C301B2013C
:10242000B2E0660F771F881F991FBA95D1F7620F28
:10243000731F841F951F12C0F8E7AF16FFE0BF0699
:10244000A0F4CA01B901A2E0660F771F881F991F87
:10245000AA95D1F7640D751D861D971D25E030E006
:1024600040E050E00E94A22C08C0240D351D461DFE
:10247000571D5695479537952795A4E6B0E00E94DD
:102480005F2C6B017C012CEAC20E2DE0D21EE11CF8
:10249000F11C75C0252D342DE216F30608F49701C2
:1024A000072D162D49815A810417150708F48A0152
:1024B00059012E153F0508F45701A0911901B0915B
:1024C0001A01B501621B730B9B010E94492C9601F6
:1024D0002A193B0940E050E00E94A22C29013A0150
:1024E000780189819A818017910708F47C01A09175
:1024F0001201B091130198012E193F090E94492C35
:10250000870120E030E0A90198010E94A22C98E701
:10251000A9169FE0B90670F4C301B201E2E0660FAC
:10252000771F881F991FEA95D1F7620F731F841FC9
:10253000951F12C0A8E7EA16AFE0FA06B0F4CA0188
:10254000B90142E0660F771F881F991F4A95D1F79E
:10255000640D751D861D971D25E030E040E050E0BC
:102560000E94A22C69017A010AC069017A01C40C97
:10257000D51CE61CF71CF694E794D794C7941091E9
:102580001801133008F0BECE80918001882309F431
:1025900043C0B8E08B9F30011124F301E15EFE4F90
:1025A0003F019681931132C080809180A280B380D8
:1025B000A7019601281939094A095B0957FF07C085
:1025C00050954095309521953F4F4F4F5F4FAAE072
:1025D000B0E00E945F2CA50194012C593F4F4F4F52
:1025E0005F4F2C0D3D1D4E1D5F1D0E94A22C232B05
:1025F000242B252B09F086CE123019F081E0809330
:10260000180181E0D30117968C937CCE97819111AC
:1026100003C08150809380018091800128E0829FD7
:10262000F0011124E95DFE4FC082D182E282F38283
:1026300084829582368217828F5F8093800162CE7A
:10264000CF93C82FC09595B160FF02C0982B01C0F1
:102650009C2395B994B1982B94B982E00E945305BC
:1026600084B18C2384B985B18C2385B9CF91089529
:10267000BF92CF92DF92EF92FF920F931F93CF936F
:10268000DF938AE0C82E98E0D92E2FE3B22ED7B878
:10269000D8B815B8B4B880E00E9485058C0181E0F7
:1026A0000E948905EC0182E00E94890520911801B1
:1026B000283081F428E027B914B810930201009360
:1026C0000101D0930401C09303019093060180930C
:1026D000050159C031E0C430D10508F030E021E0F7
:1026E0000430110508F020E0232319F0843091050F
:1026F00008F3083E134010F028E001C029E0C83E6E
:10270000D34008F42260883E934008F4246027B93F
:10271000C0E0D0E0A89580E00E947D057C0181E0CA
:102720000E9489058C0182E00E94890524E1E2165D
:1027300025E0F20608F4389A043135E0130708F46E
:10274000399A843125E0920708F43A9A36E0E31684
:10275000F10428F40630110510F4069738F021969C
:10276000C43F81E0D807B1F6D092180100E010E034
:102770000C171D0729F00E9442050F5F1F4FF8CF6D
:10278000CA9409F084CFDF91CF911F910F91FF90F0
:10279000EF90DF90CF90BF900895CF92DF92EF92AD
:1027A000FF92CF9320918401309185014091860161
:1027B00050918701C09196018AE0C82ED12CE12C5E
:1027C000F12C8C2FCF5F213A96E8390791E0490729
:1027D000510538F0CA01B901A70196010E94A22C47
:1027E000F0CF80939601A0914301B09144010E94E3
:1027F0005F2C28E833E140E050E00E94A22C2093B7
:102800008401309385014093860150938701CF91D5
:10281000FF90EF90DF90CF9008958F929F92AF92AC
:10282000BF92CF92DF92EF92FF920F931F93CF93BD
:10283000DF93C82FD62F8FEF860F9C2F990F9C0FF9
:10284000890F80936901E62FF0E0EB57FF4F049169
:10285000EC2FF0E0E557FF4F149180911801813083
:1028600009F497C24091160180EA91E066EA71E0AE
:10287000DC012A2F281B2417A0F42D912D130EC044
:102880009D0127503109F90120812C1307C0FB015C
:10289000208131812C3D354008F47BC26E5F7F4F33
:1028A000E8CF08601092910110929001109284017B
:1028B00010928501109286011092870184EF809317
:1028C00096010E94381388E088B915B807B914B882
:1028D0008C2F0E9489056C0110926B0110926A0185
:1028E0007C0180916A0190916B01843F914080F559
:1028F00015B914B90E943D0514B815B80E944305D6
:10290000A8958C2F0E948905C816D90620F47C0151
:10291000EC18FD0802C0E12CF12C80916A01909125
:102920006B018E37910528F02BE4E216F10408F4D0
:102930002BC25DE2E51651E0F50680F480916A0154
:1029400090916B01019690936B0180936A01C9CFBE
:10295000FDE2EF16F1E0FF0608F416C280916A016D
:1029600090916B01892B21F0C70100E010E006C0B7
:1029700025E1E21625E0F206B8F380C020916A0155
:1029800030916B012017310748F00E943E058C2FD3
:102990000E948905A8950F5F1F4FF0CFC816D90672
:1029A00030F48C199D098E159F05C8F402C080E093
:1029B00090E08701081B190BA1F0093C110508F0F4
:1029C000E3C19801A8EEB3E00E94492C4701A12C75
:1029D000B12CA50194010E94A22C690104C000E061
:1029E00010E0C12CD12CA0906A01B0906B015FEF78
:1029F000A51AB50AC501A0E0B0E080938C019093C0
:102A00008D01A0938E01B0938F01C8018E0D9F1D83
:102A10000E941E179C01D5010E94492C60938C01D5
:102A200070938D0180938E0190938F016093840148
:102A300070938501809386019093870187EF80933F
:102A400096010E94CD13209184013091850140911F
:102A5000860150918701A8EEB3E00E945F2C24E626
:102A600030E040E050E00E94A22C2093840130939B
:102A70008501409386015093870144C10E94381319
:102A800015B88FE087B988E088B9F12EFF0CF4B84B
:102A900080E480937B0084E580BF8C2F80648093EA
:102AA0007C0086E180937A000E94460510926B01BB
:102AB00010926A011092800010928500109284009A
:102AC00087E286BB81E280936F0081E08093810181
:102AD000F5B89091180180938100943059F481E009
:102AE00090E00C2E01C0880F0A94EAF780958F7051
:102AF00087B901C007B9F89483B7817F83BF8091FC
:102B00008101882389F083B7816083BF7894889599
:102B100083B78E7F83BFF894A89580916A019091C6
:102B20006B018034964059F7789410928100E090C0
:102B30008600F090870010926F0086E980937A00FB
:102B400014B815B88C2F0E94890520914701309147
:102B50004801821B930B0C969093990180939801E6
:102B600080916A0190916B018032934008F00CC112
:102B700080916A0190916B0190938F0180938E01F7
:102B8000F0928D01E0928C0184EF80939601809108
:102B90006A0190916B0182349105C8F060918C01BB
:102BA00070918D0180918E0190918F0124E630E02B
:102BB00040E050E00E94A22C20938C0130938D01C4
:102BC00040938E0150938F0186EF80939601A091E0
:102BD0008201B091830120918C0130918D0140914F
:102BE0008E0150918F010E945F2C20E233E040E083
:102BF00050E00E94A22C20938C0130938D014093D1
:102C00008E0150938F01209384013093850140936E
:102C10008601509387010E94CD1380919601843FD5
:102C200009F060C0C0908401D0908501E0908601D9
:102C3000F090870120EAC2162FE0D206E104F104E9
:102C4000C0F4A70196012C543F4F4F4F5F4F60EAED
:102C50007FE080E090E00E94A22C2C0D3D1D4E1DD7
:102C60005F1D20938401309385014093860150932A
:102C700087018091690190E08C5F9F4F0E949F2D9A
:102C8000C0908401D0908501E0908601F09087018A
:102C9000482F50E060E070E04C155D056E057F0543
:102CA00068F4C41AD50AE60AF70AC0928401D092E1
:102CB0008501E0928601F092870114C084E1C80E7C
:102CC000D11CE11CF11CC416D506E606F70610F46B
:102CD0000E942F0B109284011092850110928601A0
:102CE0001092870114B98091840190918501A0917F
:102CF0008601B09187014997A105B10508F444C048
:102D0000C12CD12C80911601882321F080911801CB
:102D10008430D1F587E0809318012091960180914D
:102D200097018217BCF028132FC040918401509165
:102D30008501609186017091870180918801909151
:102D40008901A0918A01B0918B0184179507A6078C
:102D5000B707D0F48091840190918501A0918601FC
:102D6000B09187018093880190938901A0938A0193
:102D7000B0938B0120939701D0929301C09292015E
:102D8000D0939401C093950188E087B988B914B8AD
:102D900015B8DF91CF911F910F91FF90EF90DF90C9
:102DA000CF90BF90AF909F908F9008951F920F92F9
:102DB0000FB60F9211248F939F93B59904C0809101
:102DC0008101811109C0B59B10C08091860090914E
:102DD00087008A3F910548F480916A0190916B01C8
:102DE000019690936B0180936A019F918F910F9050
:102DF0000FBE0F901F9018951F920F920FB60F9253
:102E000011248F939F9310928101B09B10C08091E9
:102E10008600909187008A3F910548F480916A016D
:102E200090916B01019690936B0180936A019F9141
:102E30008F910F900FBE0F901F9018950F9221E069
:102E40008C32920710F48CE291E08C52914069E14F
:102E500070E00E947A2C99E16B3210F0982F6BE2AF
:102E6000981BE6EBF4E0E60FF11DE60FF11D45912E
:102E7000559125913591692F421B530B649FC001D9
:102E8000659F900D11240C9669E170E00E947A2CE8
:102E9000620F731FCB010F9008958F929F92AF9294
:102EA000BF92CF92DF92EF92FF920F931F93CF9337
:102EB000DF9388E893E190934401809343018EEB84
:102EC00080933F01C8E0C8B988E187B90E944B05EB
:102ED000C7B984E00E948505AC018B5C9840833FB4
:102EE0009140A0F481E080935701209143013091FB
:102EF0004401AFEBB9E00E94492C9A0140E050E058
:102F00000E94A22C30934401209343018EE00E9442
:102F100089058EE00E9485059093480180934701C2
:102F20000E943206D9E0D7B9C1E0C5B9C4B980E082
:102F30000E9485057C010AE007B914E015B914B9AF
:102F400081E00E948505E80EF91E8CE0882E87B886
:102F500090E1992E95B894B882E00E948505E80E1C
:102F6000F91E15B8D8B9D7B9C4B9C0914301D091E9
:102F7000440180E00E9485055C0108B907B914B9D5
:102F8000009143011091440181E00E9485056C018C
:102F900088B887B894B8809043019090440182E04B
:102FA0000E948505C00FD11FC80DD91DCA19DB09A4
:102FB000CC19DD09C81BD90B8091430190914401C4
:102FC0004C01880C991C880E991E8E189F088C1A2B
:102FD0009D0AA12CB12C9701A0E9BAE10E94492CCD
:102FE000A50194010E94A22C69017A013093560137
:102FF000209355019E01A0E9BAE10E94492CA50148
:1030000094010E94A22C3093460120934501205741
:10301000354E30931A012093190180E7C81A85EEC6
:10302000D80AD0921301C092120189E180933F0126
:10303000DF91CF911F910F91FF90EF90DF90CF9094
:10304000BF90AF909F908F9008952F923F924F9294
:103050005F926F927F928F929F92AF92BF92CF9228
:10306000DF92EF92FF920F931F93CF93DF93CDB731
:10307000DEB760970FB6F894DEBF0FBECDBF1092DB
:10308000000180911801813009F029C280918001EE
:10309000813009F024C28091270190912801A091EC
:1030A0002901B0912A0189309245A105B10508F0A6
:1030B00016C2312C80912B01A0902C0141E04315C8
:1030C00010F0B82E02C0BA2CA82EEA2DF0E0EB5773
:1030D000FF4F74908B2D90E0FC01E557FF4FE4917A
:1030E00015B858E058B940912701509128016091D6
:1030F000290170912A01272D2860403F5105610563
:103100007105A0F430FC12C000911201109113015E
:1031100000591A4141E050E00B2C02C0440F551FEA
:103120000A94E2F7CA01822B87B906C0E4B927B92D
:10313000009112011091130144E1642E8B2D0E9425
:1031400081054C018A2D0E94890552E08516910463
:1031500010F4029710F06A9489F760E460937B00A2
:1031600084E580BF8B2D806480937C0086E1809312
:103170007A00E12CF12C10928000109285001092C0
:10318000840087E286BB0E944605932D9170292E0C
:1031900030FC05C081E88093810078B808C078B819
:1031A0000E944F0580E286BB81E88093810046B390
:1031B00045FF11C01092810080E286BB809186009D
:1031C000909187006C0120918400309185008217D6
:1031D000930768F013C040FFEACF21E026BBA89513
:1031E000C70101967C018035910509F7E3CF40FFC7
:1031F00005C041E046BB5FEFE51AF50A68E068B933
:1032000086E980937A0034E1732E8B2D0E9481052C
:103210004C018A2D0E94890522E08216910410F447
:10322000029710F07A9489F78090270190902801F6
:103230008091550190915601880E991E800E911E25
:10324000209114013091150100394AE11407B0F4BE
:1032500051EEC516D104E104F10438F4C60165E06D
:1032600070E00E947A2C645101C069E12852310952
:10327000261B310967FD339586E009C0C40160EB68
:1032800076E30E947A2C87E0860F285D3F4F90E01E
:10329000A0E0B0E08C159D05AE05BF0528F4C81A66
:1032A000D90AEA0AFB0A03C0C12CD12C76012220DC
:1032B00029F062E2C60ED11CE11CF11C80E5E81683
:1032C000F10418F0C12CD12C76019BE0C916D10471
:1032D000E104F10428F041E0C41AD108E108F10842
:1032E0004091430150914401A12CB12CA8EEB3E0D0
:1032F0000E94492C2B013C019801DA010E94492CC3
:10330000A50194010E94A22C44275527C301B201B4
:103310000E94A22CC9010E948A06FC01A501940109
:10332000C701B6010E946A2C4B015C01BF0180E01D
:1033300090E023E0660F771F881F991F2A95D1F729
:103340006B5F7F4F8F4F9F4F2AE030E040E050E0AF
:103350000E94A22CC501B4010E94A22C832D90E0F2
:10336000E1E0F0E0EC0FFD1F64E0369EE00DF11DA2
:1033700011242083318342835383211017C06CE0D2
:10338000C616D104E104F10488F0FC013196EE0F79
:10339000FF1FEE0FFF1F81E090E08C0F9D1FE80FD5
:1033A000F91F20833183428353833394A895339448
:1033B00093E0931508F07ECE88E088B984E00E94FF
:1033C000530521E04D815E816F81788589819A81E5
:1033D000AB81BC8184179507A607B70708F020E0EA
:1033E0004D855E856F85788989859A85AB85BC8595
:1033F00084179507A607B70710F032E001C033E045
:10340000E22FF0E0EE0FFF1FEE0FFF1F41E050E054
:103410004C0F5D1FE40FF51FDA0154E0359FA00D3E
:10342000B11D11244D915D916D917C9180819181AF
:10343000A281B381481759076A077B0708F0322F2A
:10344000E1E0F0E0EC0FFD1F64E0369FE00DF11DC0
:10345000112480819181A281B3818093070190938F
:103460000801A0930901B0930A012BEF20930001FA
:1034700030FD0DC040912701509128016091290134
:1034800070912A01403F510561057105B8F02CEF9C
:1034900020930001BC01CD016B5F7F4F8F4F9F4F89
:1034A0002AE030E040E050E00E94A22C2093070187
:1034B000309308014093090150930A01809107015C
:1034C00090910801A0910901B0910A01892B8A2BE2
:1034D0008B2B11F41092000188E087B914B8609624
:1034E0000FB6F894DEBF0FBECDBFDF91CF911F9115
:1034F0000F91FF90EF90DF90CF90BF90AF909F9093
:103500008F907F906F905F904F903F902F90089595
:103510002F923F924F925F926F927F928F929F92E3
:10352000AF92BF92CF92DF92EF92FF920F931F93D1
:10353000DF93CF93CDB7DEB76E970FB6F894DEBFAB
:103540000FBECDBF662EB82E860F8983209118013D
:10355000273019F5209188013091890140918A0125
:1035600050918B011091970109C0CA01B9012AE05D
:10357000312D412D512D0E94A22C1F5F173FACF31E
:103580002C8B3D8B4E8B5F8B243B60E036074105D7
:10359000510518F48FEF9FEF78C126EDA22E02C0DF
:1035A00094EDA92EE5E8F0E0E60DF11D8591886027
:1035B0008E87E5E8F0E0EB0DF11D859188608F873F
:1035C000EBE8F0E0E60DF11D7590EBE8F0E0EB0DB7
:1035D000F11DC59090EC692AB92A81E0E82EF12C02
:1035E000012D112D8E831F82188619861A861B863F
:1035F0001C861D86188E198E0E94381388E088B9A3
:1036000060927C000E9447053F8537B975B874B851
:103610000E944C050E94500515B814B8DD24B4ED85
:103620009B2EA6ED8A2E3E8537B975B874B8609288
:103630007C00A895A0927A0080917A0086FDFCCF4C
:10364000A0927A0080917A0086FDFCCF20907800CD
:1036500030907900B0927C00A0927A0080917A003C
:1036600086FDFCCF80927A000E944D05C5B8C4B893
:103670000E944B050E944D050E9451058F938F912A
:10368000A895A89514B815B880917A0086FDFCCF4E
:103690002091780030917900288B398B3F8537B99C
:1036A000C5B8C4B8A895B0927C00A0927A00809169
:1036B0007A0086FDFCCFA0927A0080917A0086FD88
:1036C000FCCF609178007091790060927C00A092AC
:1036D0007A0080917A0086FDFCCF80927A000E9469
:1036E0004D0575B874B80E944B050E944D050E94A7
:1036F00051058F938F91A895A89514B815B880910E
:103700007A0086FDFCCF409178005091790014B882
:10371000CB01820D931DE80EF91E011D111DEA82D9
:10372000FB820C831D8388899989840F951F2E81C4
:103730003F8168857985280F391F611D711D2E8392
:103740003F836887798724E62417150650F075B8FB
:1037500074B80E94500514B815B8888D8395888F69
:1037600007C0483E73E0570718F08A8D83958A8F0B
:103770008889998928171906B0F03E8537B9C5B8E8
:10378000C4B80E9450050E944B050E944D050E943E
:1037900051058F938F91A895A89514B815B8898D68
:1037A0008395898F07C0883E73E0970718F08B8D4B
:1037B00083958B8FD3945D2D5F3F09F034CF40907C
:1037C000550150905601440C551C9201E4E0240D23
:1037D000351DEA95E1F72901570168016E807F8068
:1037E00088849984209118012730C1F46C897D89DF
:1037F0008E899F899B01AC016D5E7F4F8F4F9F4FDC
:103800000E946A2C9B01AC016FE670EF85E89AE19B
:103810000E94A22C621A730A840A950AA614B7049D
:10382000C804D90428F46A187B088C089D0803C0D2
:10383000662477244301B20180E090E09301A40163
:103840000E946A2C9501A6010E94A22C80E090E0C3
:103850007981870F911D0E949F2D682EC90160E11B
:1038600070E00E947A2C260F371FC90168161906CE
:1038700018F48619910909C08C5E9F4F8615910531
:1038800010F40E942F0B812D912D6E960FB6F89497
:10389000DEBF0FBECDBFCF91DF911F910F91FF9083
:1038A000EF90DF90CF90BF90AF909F908F907F90E0
:1038B0006F905F904F903F902F9008958F929F92BE
:1038C000AF92BF92CF92DF92EF92FF920F931F932E
:1038D000CF93DF938091920190919301892B09F00E
:1038E0009DC0E0919401F0E0EB57FF4FC491C86098
:1038F000E0919501F0E0E557FF4F14910E943813D5
:1039000088E088B915B8C7B914B9809195010E94AB
:103910008905EC0100919701083F0CF07FC0045F1E
:10392000C0908801D0908901E0908A01F0908B01CD
:103930008AE0882E912CA12CB12C043070F4C701A0
:10394000B6016B5F7F4F8F4F9F4FA50194010E947F
:10395000A22C0F5F69017A01F0CFD701C601019750
:10396000A109B10988389341A105B10508F056C0F5
:1039700015B914B9A12CB12CAC14BD0430F40E94BB
:103980004D0582E0A80EB11CF7CF14B815B8A89564
:1039900085E080933F01809195010E948905C817B9
:1039A000D90720F45C01AC1ABD0A02C0A12CB12CCD
:1039B000812C912C8C149D0430F40E944D052FEF26
:1039C000821A920AF7CF809195010E94890529E118
:1039D00020933F01A895C817D90718F48C1B9D0B9D
:1039E00002C080E090E08A159B0588F49501281BB1
:1039F000390B69F0A4EFB1E00E94492C950140E039
:103A000050E00E94A22C30939301209392010E94D7
:103A1000381388E087B988B914B815B8DF91CF9109
:103A20001F910F91FF90EF90DF90CF90BF90AF90DC
:103A30009F908F9008952F923F924F925F926F9236
:103A40007F928F929F92AF92BF92CF92DF92EF922E
:103A5000FF920F931F93CF93DF9300D000D01F925C
:103A6000CDB7DEB789E893E00E94F72220EF2A83E2
:103A700054980E94420514BC16BC10920C0110927E
:103A80000D0110920E0110920F0131E035BB309301
:103A90006E001092800083E19AE7909389008093F2
:103AA0008800E1E0F0E0F0938B00E0938A00109250
:103AB00085001092840083B5816083BDF6E0F6BB7B
:103AC000F0936F00789424E02093810012E3198230
:103AD0000E943C05A8954F9902C031E0398385B515
:103AE000811125C015BC86B580930C010E940C0382
:103AF00086E60E94CC028DE30E94CC0260910C010C
:103B000070910D0180910E0190910F0107E028E462
:103B100040E00E943D048AE70E94CC0254988091C4
:103B20008100882339F08FE30E94CC0203C011503A
:103B300079F6D8CF1092810010926F0020910C017D
:103B400030910D0140910E0150910F01DA01C90130
:103B50000197A109B109893D9146A105B10508F078
:103B60002BC1AAE0B0E00E945F2C685F7F4F8F4FAF
:103B70009F4F23E096958795779567952A95D1F77E
:103B8000660F771F70937B0160937A0154980E94AF
:103B9000420516BC10920C0110920D0110920E01FC
:103BA00010920F0181E085BB80936E0010927D0121
:103BB00010927C0194E09BBB8091680084608093AC
:103BC0006800789480916D00806180936D001D8203
:103BD0000E943C05A8954F9902C0E1E0E9838091DD
:103BE0006D0084FF05C0FD81FF5FFD83FA3F81F713
:103BF00015BC80916D008F7E80936D008091680070
:103C00008B7F8093680086B580930C010E947B03B4
:103C100084E50E94CC028DE30E94CC0280910C01CD
:103C200090910D01A0910E01B0910F0120917A01A8
:103C300030917B013C832B831C012D019C01A2014F
:103C400060E070E080E090E003E00E94422D5101CE
:103C50006201E12CF12C00E010E00E945B2D590183
:103C60006A017B01E82F192F03E00E94422D0E2FDD
:103C70000E945B2D03E00E94422D51016201E12C64
:103C8000F12C00E010E00E945B2D02E00E94422D2A
:103C900000E00E945B2D01E00E94422D00E00E94A6
:103CA0005B2D03E00E94422DEB81FC815F01C12C62
:103CB000D12C00E00E94DD2C39014A011B012C01AE
:103CC0002B813C812038310530F007E023E745EFB8
:103CD000B301C40116C084E6A82EB12CC12CD12C8E
:103CE000E12CF12C00E010E09301C2010E94DD2CD8
:103CF000E22FF42F07E023E747EF6E2F732F8F2F6C
:103D0000952F0E943D043D813A3F21F48FE30E94AC
:103D1000CC0252C09301A401B101C2012C393E4C26
:103D200043405105610571058105910509F008F4CD
:103D300043C00E94780386E60E94CC028DE30E9475
:103D4000CC029301A401B101C201530164017101CC
:103D5000820121153A4C4A495B4361057105810591
:103D6000910589F080F020E030E04AE85DE568E701
:103D700075E483E691E00E94DD2CE22FF42F07E04A
:103D800028E44AEF0FC020E030E846EC54EA6EE742
:103D90007DE883E090E00E94DD2CE22FF42F07E025
:103DA00028E44CEF6E2F732F8F2F952F0E943D0428
:103DB0008AE70E94CC02549810926E0080ED97E042
:103DC0000E94E7052981820F29F43A8131503A8314
:103DD00031114ECE0F900F900F900F900F90DF91FA
:103DE000CF911F910F91FF90EF90DF90CF90BF90F8
:103DF000AF909F908F907F906F905F904F903F908B
:103E00002F9008951F920F920FB60F9211248F9347
:103E10009F93AF93BF93789480910C0190910D0183
:103E2000A0910E01B0910F019F5FAF4FBF4F8093E4
:103E30000C0190930D01A0930E01B0930F01BF915F
:103E4000AF919F918F910F900FBE0F901F9018957B
:103E50001F920F920FB60F9211248F9386E085BDAB
:103E60008F910F900FBE0F901F9018951F920F9279
:103E70000FB60F921124A8951092810015BC0F90D7
:103E80000FBE0F901F9018951F920F920FB60F92B2
:103E900011242F933F938F939F9380917C01909156
:103EA0007D01892B11F481E085BD20917C01309149
:103EB0007D0180917A0190917B012817390730F0BC
:103EC00015BC80916D008F7E80936D0080917C0188
:103ED00090917D01019690937D0180937C019F914B
:103EE0008F913F912F910F900FBE0F901F901895BB
:103EF000883008F08850811103C084E993E009C03C
:103F0000813019F489E893E004C0823029F489E60D
:103F100093E00E944D030895833019F48EE593E0F9
:103F200013C0843019F48EEB90E00EC0853019F484
:103F300080E593E009C0863019F487E393E004C07C
:103F4000873021F485E793E00C944D0308950F9397
:103F5000CF938EEB90E00E94F722CAEF10921801E7
:103F600060E082E00E94142380911801873009F0FC
:103F700042C00E9478030E9471030E94780383E488
:103F80000E94CC028DE30E94CC0260918801709166
:103F9000890180918A0190918B0103E026E4409190
:103FA00097010E943D0460919401809195010E94C7
:103FB000881A90939101809390010E947B030E9444
:103FC00071030E947B038CED92E00E944D0360918F
:103FD0009001709191016A3F8FEF780740F480E083
:103FE00090E002E024EF4EEF0E943D040AC08FE310
:103FF0000E94CC0206C00E940C038EEB90E00E944F
:104000004D0388EE93E00E94E705811103C0C15083
:1040100009F0A4CFCF910F91089508950F938431A3
:1040200008F08451833189F489E08093810081E034
:1040300090E0909389008093880007E028E44DEF9A
:1040400060E074E985E397E748C1823189F489E04B
:104050008093810083E090E09093890080938800B2
:1040600007E028E44DEF60E07AEC8AE99BE335C194
:10407000813169F489E08093810087E090E090933A
:1040800089008093880007E028E44DEF6CC0803100
:1040900069F489E0809381008FE090E0909389003B
:1040A0008093880007E028E44DEF6FC08F3089F4DB
:1040B00089E08093810089E190E09093890080936A
:1040C000880007E028E44DEF6AE871E88BE299E0A8
:1040D00004C18E3069F489E08093810087E290E02A
:1040E000909389008093880007E028E44DEF60C03A
:1040F0008D3069F489E0809381008FE490E09093A3
:1041000089008093880007E028E44CEF2CC08C30B5
:1041100069F489E0809381008FE990E090938900B1
:104120008093880007E028E44CEF2FC08B3069F4BF
:1041300089E0809381008FE891E0909389008093DB
:10414000880007E028E44CEF33C08A3089F489E026
:10415000809381008FE193E09093890080938800A1
:1041600007E028E44BEF60E075E68DEC9DE1B5C01B
:10417000893081F4809381008FE396E090938900E9
:104180008093880007E028E44BEF60E872EB86EE4E
:104190009EE0A3C0883089F489E0809381008FE994
:1041A0009FE0909389008093880007E028E44BEF1C
:1041B00060E071EE85EF95E090C0873089F489E08A
:1041C0008093810084E493E2909389008093880037
:1041D00007E028E44BEF6FE77DEF83EA92E07DC0D4
:1041E000863089F489E08093810089E593E2909399
:1041F00089008093880007E028E44BEF6FEE7BE6B0
:1042000082EA92E06AC0853089F489E08093810077
:1042100082E893E2909389008093880007E028E485
:104220004BEF68E471E68FE992E057C0843089F47F
:1042300089E0809381008FE79EE3909389008093CB
:10424000880007E028E44BEF60E478E78DE791E031
:1042500044C0833069F48BE08093810080E792E072
:10426000909389008093880007E028E44AEFA0CF6C
:10427000823071F481EE94E09093890080938800FD
:1042800007E028E44AEF60E870EF8AEF92E025C08B
:10429000813089F48BE08093810089E698E19093E6
:1042A00089008093880007E028E44AEF60E876E917
:1042B00088E990E012C0811112C08CE080938100E7
:1042C00088E09DE3909389008093880007E028E4CC
:1042D0004AEF60E472E48FE090E00E943D048AE7D8
:1042E0000F910C94CC02DF92EF92FF920F931F93E9
:1042F000CF93DF9389E693E00E94F72280E18093D9
:10430000800010926F0081E090E09093890080938C
:10431000880010928B0010928A0083E086BB109276
:10432000820088E08093810015B891E194B988B942
:1043300089E087B9229A8093810000E020E0D12CA7
:1043400012E1CEE1D0E0802F90E00A96BE010E94FB
:104350008E2CF62E621791F00E9478030E94710352
:104360000E94780389E693E00E944D03E12CEF144C
:1043700030F48EE20E94CC02E394F9CFF22ED116F3
:1043800069F0143108F014510E947B030E947103FC
:104390000E947B03812F0E940E20D12E88EE93E095
:1043A0000E94E705882331F0853118F01F5F8035C2
:1043B00030F400E00F5F003F10F42F2DC4CF1092B7
:1043C00081001092800088E087B914B82298DF91AC
:1043D000CF911F910F91FF90EF90DF9008956F9212
:1043E0007F928F929F92AF92BF92CF92DF92EF9285
:1043F000FF920F931F93CF93DF9300D000D0CDB7E0
:10440000DEB78EE593E00E94F72283E2809380007E
:1044100010926F0081E090E0909389008093880073
:104420008FEF90E090938B0080938A0083E086BBAF
:104430001092820015B881E184B988E088B989E0DA
:1044400087B9229A8093810010E000E08AE0782EFC
:10445000612C94E6C92ED12CE12CF12C88248A946D
:1044600023E0922EA12CB12C701609F43FC083E6F4
:10447000871510F4ECE97E0E272D30E0AFEFB3E0A6
:104480000E94492C6E5C7F4F8F4F9F4FA701960172
:104490000E94A22C30938B0020938A0029833A83B8
:1044A0004B835C830E947B030E9471030E947B0309
:1044B000A8EEB3E029813A814B815C810E945F2C98
:1044C00061507E4F8F4F9F4FA50194010E94A22CF7
:1044D000CA01B90105E025E24FEF0E943D04F8E270
:1044E000F61518F48CE30E945305072D80E496E03E
:1044F0000E94E705682E82E8861570F0E2E3E61573
:1045000018F4FAE07F0E03C0662011F0739410E0F7
:104510001F5F103F08F4A8CF88E087B91092810090
:104520001092800014B822980F900F900F900F9067
:10453000DF91CF911F910F91FF90EF90DF90CF907F
:10454000BF90AF909F908F907F906F900895CF9382
:10455000DF93D0E0C0E084EA93E00E94F7220E945B
:104560007B030E9471030E947B038C2F0E94781FA3
:1045700088E893E10E94E705882371F1823350F1C6
:10458000CC2391F1C13021F480E00E941B1D23C097
:10459000C23019F40E9473211EC0C33019F40E9466
:1045A000EF2119C0C43019F40E94A71F14C0C530F0
:1045B00019F40E944A240FC0C63021F481E10E9400
:1045C000FD0609C0C73039F45E9880E090E00E9493
:1045D000E70501C0CF5FD0E0DF5FD03528F4C830F9
:1045E00008F4B9CFC850B7CFDF91CF9108951F938A
:1045F000CF93DF9300D0CDB7DEB789839A830E9433
:104600000C0389819A810E944D0314E682E00E9486
:1046100053054F9902C01150C9F70F900F90DF91C9
:10462000CF911F910C947B039F92AF92BF92CF9238
:10463000DF92EF92FF920F931F93CF93DF93C82FD8
:10464000D62F8FEF860F9C2F990F9C0F890F809389
:104650006901E62FF0E0EB57FF4F14911860EC2F43
:10466000F0E0E557FF4FB490109291011092900145
:104670001092840110928501109286011092870198
:1046800087EF809396010E94381388E088B915B8A7
:1046900017B914B88C2F0E9489058C0110926B01F8
:1046A00010926A019C019CE2E92EFF24F3944AE0F7
:1046B000A42E54E6952E80916A0190916B01843D61
:1046C000904308F06FC0B5B880916A0190916B017A
:1046D000892B89F06701C21AD30A60916A0170912F
:1046E0006B01A29EC001A39E900D11240E947A2C02
:1046F000C616D70650F4B4B80E94460514B8809187
:104700006A0190916B01019628C080916A01909195
:104710006B010B97C8F060916A0170916B01929EDA
:10472000C001939E900D11240E947A2C6C157D057A
:1047300058F4B4B80E943C0514B880916A01909175
:104740006B018C599F4F09C0B4B80E94410514B841
:1047500080916A0190916B010A9690936B0180930E
:104760006A0115B80E944805A8958C2F0E948905FA
:104770000817190720F49C01201B310B02C020E010
:1047800030E080916A0190916B018B31964020F06E
:104790002532310508F46DC02D3281E0380708F468
:1047A0008ACF05C02D3281E0380708F462C08091BD
:1047B0006A0190916B01019729F4253145E0340796
:1047C00008F057C000916A0110916B01000F111F92
:1047D000A80160E070E040938C0150938D016093DC
:1047E0008E0170938F01C9010E941E179C01D80190
:1047F0000E94492C60938C0170938D0180938E01EF
:1048000090938F016093840170938501809386015A
:10481000909387010E94CD1360918401709185016E
:1048200080918601909187012AE030E040E050E0DD
:104830000E94A22C2093840130938501409386012D
:104840005093870187E0809318012093880130936B
:10485000890140938A0150938B0180919601809346
:1048600097011092930110929201D0939401C093FA
:10487000950188E087B988B914B815B8DF91CF9150
:104880001F910F91FF90EF90DF90CF90BF90AF906E
:104890009F9008958F929F92AF92BF92CF92DF9296
:1048A000EF92FF920F931F93CF93DF93CDB7DEB7B5
:1048B00068970FB6F894DEBF0FBECDBF80E593E0DA
:1048C0000E94F7220E947B0387E493E00E944D033D
:1048D000DE015196CE010996AE014F5F5F4F9E01FA
:1048E000275E3F4FF42EE52E1D921D92FC01119282
:1048F0001192CF01FA0111921192AF01A217B307E1
:1049000099F785E185B984B900E010E0812C48E091
:10491000D42E59E0C52E6AE0B62E7CE0A72ED8B87A
:10492000C7B80E94500586B181FB992490F882FF98
:1049300002C0939493940115110589F0981469F0BD
:10494000EF2DFE2DE90DF11DE90DF11D80859185FD
:10495000019691878087982C02C034E0932EB7B8D7
:104960000E94500596B1892F817092FD8E5FF4E010
:104970009F120BC0EF2DFE2DE80FF11DE80FF11D6A
:10498000808991890196918B808BA7B80E945005F0
:1049900096B1892F817091FD8E5F94E099120BC0C2
:1049A000EF2DFE2DE80FF11DE80FF11D80819181A3
:1049B000019691838083A8950E9442054F9905C076
:1049C00015B814B888E087B9C7C049895A894531F4
:1049D000510508F16B897C8965317105E0F02D89FD
:1049E0003E8925313105B8F08F89988D8531910543
:1049F00090F0260F371F11E02417350708F010E05C
:104A0000FF24F3942817390708F0F12CCC24C39421
:104A100022E0E22E4CC049855A854531510510F1FE
:104A20006B857C8565317105E8F02D853E852531E6
:104A30003105C0F08F8598898531910598F0260F52
:104A4000371F11E02417350708F010E0FF24F39416
:104A50002817390708F0F12CC12C92E0E92EDD244B
:104A6000D39430C049815A814531510510F16B8191
:104A70007C8165317105E8F02D813E81253131055C
:104A8000C0F08F8198858531910598F0260F371FEA
:104A900011E02417350708F010E0FF24F3942817DD
:104AA000390708F0F12C82E0C82EEE24E394D12CD3
:104AB00009C00F5F1F4F0931E6EF1E0709F44CC014
:104AC000892C2DCF0E947B030E94710300E00E947D
:104AD0007B038D2D0E94CB028DE20E94CC0200FD53
:104AE00002C08DE201C08FE20E94CC028DE20E94E2
:104AF000CC028C2D0E94CB028DE20E94CC0201FDE3
:104B000002C08DE201C08FE20E94CC028DE20E94C1
:104B1000CC028E2D0E94CB020E94CA02802F83708D
:104B200021F4112361F083E405C0833041F4FF20B8
:104B300031F08FE60E94CC0280E293E004C00E9434
:104B4000CA0288EC90E00E94E705811139CF0F5F1F
:104B5000083709F0BCCF34CF68960FB6F894DEBFA3
:104B60000FBECDBFDF91CF911F910F91FF90EF90BE
:104B7000DF90CF90BF90AF909F908F9008951F933C
:104B8000CF93DF9380E090E00E949F2D182F843117
:104B900049F5C0E0D0E0CE018C5F9F4F0E949F2D71
:104BA000CC23A1F0C33099F4811789F0282F30E08D
:104BB000412F50E0BA016F5F7F4F2617370739F05A
:104BC0004E5F5F4F2417350711F00CC0182F8A5025
:104BD000853B40F42196C730D105E9F6DF91CF91AE
:104BE0001F9108950E94780385E40E94CC0285E419
:104BF0000E94CC0263E08DE090E00E94A72D6CE063
:104C000070E08BE090E00E94B52D69E379E384E0E9
:104C100090E00E94B52D6BE386E090E00E94A72D06
:104C20006BE387E090E00E94A72D6BE388E090E0C3
:104C30000E94A72D69E379E389E090E00E94B52DF9
:104C400064E174E180E090E00E94B52D64E174E1DC
:104C500082E090E00E94B52D88ECDF91CF911F910A
:104C60000C9453052F923F924F925F926F927F92D6
:104C70008F929F92AF92BF92CF92DF92EF92FF926C
:104C80000F931F93CF93DF9300D0CDB7DEB780E4AF
:104C90008AB98BB986E880937A001092C10084B7F4
:104CA00084B7877F84BF88E10FB6F8948093600053
:104CB000109260000FBE86E88093640088E38093C2
:104CC0007E001092B00087E08093B10078940E943B
:104CD000140388E40E94FF0286EB90E00E945C03CC
:104CE00080E50E94FF028EEA90E00E945C0388E566
:104CF0000E94FF0286EA90E00E945C0388E70E941F
:104D0000FF028EE990E00E945C0380E70E94FF02B0
:104D100086E990E00E945C0380E40E94FF028EE836
:104D200090E00E945C0380E185BF0E94BF2510E0F7
:104D30004F9B05C01F3148F48FE59DE608C082E017
:104D40000E9453051F5F133299F780E69DE690930A
:104D5000110180931001109240010E944D171D33E4
:104D600010F00E94A72218E0E8E1AE2EB12CFAE57F
:104D70008F2EF1E09F2EADE06A2EB8E17B2E01E28E
:104D8000402E82E1382E90E2292E20E1522E109200
:104D90001801109216011092790110926701109279
:104DA0001701109257010E940C0317B9109280014D
:104DB0001092940110929501109200010E94FA0243
:104DC0000E944D170E94780385E00E94890585E0C6
:104DD0000E948505909371018093700185E293E0B4
:104DE0000E944D038091700190917101880F991F6D
:104DF000880F991FBC016A567F4F80E090E0609356
:104E0000840170938501809386019093870102E06D
:104E100026E54DEF0E943D040E94CA028091700178
:104E2000909171018A3F26E0920778F4833396408F
:104E300048F488E294E00E944D038AEC0E945305F6
:104E40001BB810C58FE294E002C082E293E00E949A
:104E50004D03FFE00FB6F894A895A09260000FBE36
:104E6000F0936000809157018823A1F00E947B039A
:104E700081EE92E00E944D036091430170914401E4
:104E800080E090E003E026E54DEF0E943D0488ECD1
:104E90000E9453050E947B030E94381380911801E1
:104EA000883031F50E940C0386EE92E00E944D039B
:104EB0000E947B03609101017091020180E090E00B
:104EC00003E026E54DEF0E943D040E94CA02609176
:104ED00003017091040180E090E026E54DEF0E940F
:104EE0003D040E94CA026091050170910601BCC296
:104EF0008CE00E94FF0287E090E00E949F2D082F27
:104F000084E090E00E949F2D081B00935401002331
:104F100019F08EE00E94FF0280E00E94FD060E94D0
:104F20007B0386E394E00E944D0342E061E080E071
:104F30000E947B0B42E060E081E00E947B0B41E03D
:104F400062E080E00E947B0B41E060E082E00E9432
:104F50007B0B40E062E081E00E947B0B40E061E07F
:104F600082E00E947B0B80918001882361F028E021
:104F7000829FF0011124E15EFE4F9781911103C0E1
:104F80008150809380018091180181111CC083E4BD
:104F90000E94CC020E94381310928801109289015D
:104FA00010928A0110928B0184EF8093970160E048
:104FB00082E00E940D1461E082E00E940D1460E026
:104FC00081E00E940D140E940C039092590180927E
:104FD000580180911801853041F485E094E00E94E9
:104FE0004D0341E467E483E409C08630A1F48EE018
:104FF00094E00E944D0342E367E481E30E9498033A
:105000000E947B038AEF92E00E944D0360915E0153
:1050100070915F01ACC3873009F04FC0809194015B
:105020000E94CB028CEE92E00E944D03809195018C
:105030000E94CB020E945E1C80919201909193018C
:10504000892B79F083ED92E00E944D0360919201EB
:105050007091930180E090E002E025E24FEF0E9422
:105060003D040E947B0360918801709189018091C9
:105070008A0190918B0104E026E4409197010E94FF
:105080003D0460919401809195010E94881A90934B
:105090009101809390018A3F9F4F08F06FC38BED81
:1050A00092E00E944D03609190017091910180E027
:1050B00090E002E024EF4EEF5FC3823009F0D9C0E8
:1050C000809116018130E1F590919A018091A001C3
:1050D000981750F4892F0E94CB0288E491E00E9437
:1050E0004D038091A00108C00E94CB0284E491E0AE
:1050F0000E944D0380919A010E94CB0260919A0117
:105100008091A0010E94410B80E70E94F9038FE08B
:1051100093E00E944D0360919A018091A0010E944A
:105120000D146091840170918501809186019091A8
:10513000870103E026E4409196010E943D0453C29A
:10514000823009F047C082E30E94CC028FE391E0F5
:105150000E944D0380919A0120919B01821313C0FC
:105160008091A0010E94CB0284E491E00E944D0353
:1051700080919A010E94CB0288E491E00E944D0345
:105180008091A10116C03091A0019091A101391325
:1051900016C00E94CB0288E491E00E944D038091EA
:1051A000A0010E94CB0284E491E00E944D03809113
:1051B0009B010E94CB0281E00E94F90314C23213CA
:1051C00004C081E080930B013BC098133CC0509217
:1051D0000B0136C08330B9F583E380930B018091D6
:1051E000A00190919B01891303C021E020930B0142
:1051F00040919A013091A101431302C050920B01DA
:1052000020919C01821303C082E080930B01809166
:10521000A201481302C020920B01321302C0309247
:105220000B01981302C040920B0180910B01823256
:1052300050F483E30E94CC028FE391E00E944D037F
:105240000E940F04D0C187E194E00E944D038AEFD1
:1052500093E00E944D030E947B038EED93E00E9439
:105260004D0380911601805D0E94CC0288E491E09C
:1052700079C2833009F0FBC0809179018823A1F1C4
:1052800080916701882381F16091640180916601BA
:105290000E940D14C0908401D0908501E090860199
:1052A000F0908701009196016091780180917601DC
:1052B0000E940D148091960108130EC08091840104
:1052C00090918501A0918601B0918701C816D906F9
:1052D000EA06FB0618F005C008171CF460921701D7
:1052E00003C08CE08093170180917901882381F0BD
:1052F00080916701882361F04F990AC0809117015E
:105300008C3019F46092170103C08CE08093170170
:10531000809117018C3061F488E093E00E944D0386
:10532000809179018823A9F080E70E94CC0211C006
:1053300084E093E00E944D0380916701882319F077
:105340008EE60E94CC028CE691E090935901809306
:1053500058010E94CA0200E080911601081750F51A
:10536000E02FF0E0A0915801B09159011A968C916C
:10537000E656FE4F90819817D9F096819817C1F0A4
:10538000809117018C3039F490916501809166010C
:10539000891738F009C090917701809178019817AA
:1053A00018F488E491E002C084E491E00E944D0387
:1053B0000F5FD2CF43E462E485E40E9498030E9429
:1053C0007B03E0915801F091590186819781892BE7
:1053D00099F086E291E00E944D03E0915801F0912E
:1053E00059016681778180E090E003E021E44BEF92
:1053F0000E943D040E942806E0915801F091590155
:1054000080859185892B99F080E291E00E944D037F
:10541000E0915801F09159016085718580E090E03C
:1054200003E021E44BEF0E943D040E9428068CE03B
:1054300093E00E944D03E0915801F0915901608181
:1054400071818281938103E020E040E00E943D046D
:105450000E94CA028AEF92E00E944D03E091580137
:10546000F09159016481758180E090E083C18430BE
:1054700009F0D1C08091170184FF0AC080E50E9425
:10548000CC02ECE6F1E0F0935901E093580103C03F
:105490008EE40E94CC028DE20E94CC028091170122
:1054A000082F0F70043019F488E193E013C085FFD2
:1054B00002C084E401C085E40E94CC02033041F4C0
:1054C00082E193E00E944D0343E467E485E407C072
:1054D0008DE193E00E944D0344E467E483E50E947C
:1054E0009803809116018130E9F58091170184FFBE
:1054F00009C09091770180917801981748F000E0F9
:1055000082E008C090916501809166018917B8F723
:1055100001E081E00E94CC020E947B03002359F04D
:1055200080919A010E94CB0288E491E00E944D0391
:105530008091A0010AC08091A0010E94CB0284E466
:1055400091E00E944D0380919A010E94CB020E943B
:10555000CA028AEF92E00E944D0380E00E94E503B8
:105560000E9428060E947B038091170185FD1DC0C3
:105570008FE093E00E944D03E0915801F0915901B2
:10558000648582850E940D1460918401709185016B
:10559000809186019091870103E026E44091960175
:1055A0000E943D0485EF92E015C089E40E94CC0280
:1055B0008DE30E94CC02E0915801F091590166817F
:1055C000778180E090E002E021E44BEF0E943D040F
:1055D00080EF92E00E944D03E0915801F091590153
:1055E00060857185C4C080918001882309F4C6C09C
:1055F00077B880911001909111010E94E70517B9C9
:105600000E940C0380911601805D0E94CC028FE302
:1056100091E00E944D0320918001222309F496C05D
:10562000213071F480912C010E94CB028AE391E039
:105630000E944D0380912B010E94CB0200E055C0D7
:1056400040912F01509130016091310170913201F0
:105650008091270190912801A0912901B0912A0100
:10566000223059F121E084179507A607B70708F003
:1056700020E0E22FF0E063E0EE0FFF1F6A95E1F714
:10568000E95DFE4F40913701509138016091390139
:1056900070913A0180819181A281B381841795072D
:1056A000A607B70750F0022F213019F022E333E3A9
:1056B00002C023E332E381E304C002E023E331E3E9
:1056C00082E32A8339830E94CC028AE391E00E941C
:1056D0004D033981832F0E94CC028AE391E00E941E
:1056E0004D032A81822F0E94CC020E947B0380916D
:1056F00080018130D1F40E94251880E00E94BF0310
:10570000809100018823D1F180ED92E00E944D0349
:1057100060910701709108018091090190910A013F
:1057200003E028E44091000127C0011102C081E09C
:1057300003C080E0013021F40E94BF0382E003C077
:105740000E94BF0381E00E94BF0318C08AEE93E06D
:105750000E944D030E947B038EE194E00E944D0362
:1057600087E194E00E944D0388E893E10BC080E05C
:1057700090E002E026E54DEF0E943D04809110018B
:105780009091110177B84F9BFECF0E94E7058233BD
:1057900008F0E7CA8111FBCA8CE00E94FF028091E9
:1057A0005401882309F459C054E0D52E812C912C42
:1057B00020E030E040E1B42E8401045B1E4FF8018C
:1057C000E20FF31FC490F0E2CF1201C0B22E2F5FA0
:1057D0003F4F2131310599F7DD2029F0D0FC0AC077
:1057E0000E940C0307C088E893E10E94E705882324
:1057F000A9F32FC021E0D21202C00E947B03D394F0
:105800008D2D8170D82EE12CF12CEB1498F4F80139
:10581000EE0DFF1DC490CC20E1F09FEFC91203C034
:105820000E94CA0203C08C2D0E94CC02EFEFEE1A38
:10583000FE0AEBCFCC2069F08B0C911CF401E45BE9
:10584000FE4FE491E03209F0B3CFFFEF8F1A9F0AC9
:10585000AFCF88E893E10E94E7055E9880E090E092
:105860000E94E70580E090E00F900F90DF91CF91CC
:105870001F910F91FF90EF90DF90CF90BF90AF906E
:105880009F908F907F906F905F904F903F902F9060
:105890000895A29FB001B39FC001A39F700D811D09
:1058A0001124911DB29F700D811D1124911D089529
:1058B0000E94492CB7FF0895821B930B08950E9404
:1058C000492CA59F900DB49F900DA49F800D911D14
:1058D00011240895DB018F939F930E945F2CBF9149
:1058E000AF91A29F800D911DA39F900DB29F900D2F
:1058F00011240895AA1BBB1B51E107C0AA1FBB1F9F
:10590000A617B70710F0A61BB70B881F991F5A954B
:10591000A9F780959095BC01CD01089597FB072EBE
:1059200016F4009407D077FD09D00E947A2C07FC6A
:1059300005D03EF4909581959F4F0895709561959F
:105940007F4F0895A1E21A2EAA1BBB1BFD010DC0BB
:10595000AA1FBB1FEE1FFF1FA217B307E407F5071F
:1059600020F0A21BB30BE40BF50B661F771F881FFB
:10597000991F1A9469F760957095809590959B0191
:10598000AC01BD01CF010895052E97FB1EF40094D4
:105990000E943A2D57FD07D00E94A22C07FC03D08D
:1059A0004EF40C943A2D50954095309521953F4FEB
:1059B0004F4F5F4F0895689401C0E8948F929F9273
:1059C000CF93DF930E94E92CDF91CF919F908F902E
:1059D000089588249924F401E401B0E49F93AA2750
:1059E0009A158B049C04ED05FE05CF05D007A10791
:1059F00098F4AD2FDC2FCF2FFE2FE92D982C892E78
:105A0000982F872F762F652F542F432F322F222741
:105A1000B85031F7BF9127C01B2EBF91BB27220F73
:105A2000331F441F551F661F771F881F991F881C2F
:105A3000991CEE1FFF1FCC1FDD1FAA1FBB1F8A145E
:105A40009B04EC05FD05CE05DF05A007B10748F076
:105A50008A189B08EC09FD09CE09DF09A00BB10BE0
:105A600021601A94E1F62EF49401AF01BE01CD013C
:105A7000000C089590958095709561957F4F8F4F9C
:105A80009F4F08950F93083090F0982F872F762F0F
:105A9000652F542F432F322F22270850F4CF220F87
:105AA000331F441F551F661F771F881F991F0A95B4
:105AB000B2F70F9108952A193B094C095D096E0947
:105AC0007F09800B910B0895FA01CF93FF93EF9319
:105AD0002230CCF02532BCF4C22F2C2F33274427A0
